{
	"contracts/001Conter.sol": {
		"Conter": {
			"abi": [
				{
					"inputs": [],
					"name": "deincr",
					"outputs": [
						{
							"internalType": "uint256",
							"name": "",
							"type": "uint256"
						}
					],
					"stateMutability": "nonpayable",
					"type": "function"
				},
				{
					"inputs": [],
					"name": "get",
					"outputs": [
						{
							"internalType": "uint256",
							"name": "",
							"type": "uint256"
						}
					],
					"stateMutability": "view",
					"type": "function"
				},
				{
					"inputs": [],
					"name": "getLibAdd",
					"outputs": [
						{
							"internalType": "uint256",
							"name": "",
							"type": "uint256"
						}
					],
					"stateMutability": "pure",
					"type": "function"
				},
				{
					"inputs": [],
					"name": "getLibMult",
					"outputs": [
						{
							"internalType": "uint256",
							"name": "",
							"type": "uint256"
						}
					],
					"stateMutability": "pure",
					"type": "function"
				},
				{
					"inputs": [],
					"name": "getLibSub",
					"outputs": [
						{
							"internalType": "uint256",
							"name": "",
							"type": "uint256"
						}
					],
					"stateMutability": "pure",
					"type": "function"
				},
				{
					"inputs": [],
					"name": "incr",
					"outputs": [
						{
							"internalType": "uint256",
							"name": "",
							"type": "uint256"
						}
					],
					"stateMutability": "nonpayable",
					"type": "function"
				}
			],
			"devdoc": {
				"kind": "dev",
				"methods": {},
				"version": 1
			},
			"evm": {
				"assembly": "    /* \"contracts/001Conter.sol\":115:1045  contract Conter{... */\n  mstore(0x40, 0x80)\n    /* \"contracts/001Conter.sol\":211:213  18 */\n  0x12\n    /* \"contracts/001Conter.sol\":202:213  uint cnt=18 */\n  0x00\n  sstore\n    /* \"contracts/001Conter.sol\":115:1045  contract Conter{... */\n  callvalue\n  dup1\n  iszero\n  tag_1\n  jumpi\n  0x00\n  dup1\n  revert\ntag_1:\n  pop\n  dataSize(sub_0)\n  dup1\n  dataOffset(sub_0)\n  0x00\n  codecopy\n  0x00\n  return\nstop\n\nsub_0: assembly {\n        /* \"contracts/001Conter.sol\":115:1045  contract Conter{... */\n      mstore(0x40, 0x80)\n      callvalue\n      dup1\n      iszero\n      tag_1\n      jumpi\n      0x00\n      dup1\n      revert\n    tag_1:\n      pop\n      jumpi(tag_2, lt(calldatasize, 0x04))\n      shr(0xe0, calldataload(0x00))\n      dup1\n      0x119fbbd4\n      eq\n      tag_3\n      jumpi\n      dup1\n      0x1f383810\n      eq\n      tag_4\n      jumpi\n      dup1\n      0x644d7c4c\n      eq\n      tag_5\n      jumpi\n      dup1\n      0x6d4ce63c\n      eq\n      tag_6\n      jumpi\n      dup1\n      0x6feb35e1\n      eq\n      tag_7\n      jumpi\n      dup1\n      0xa6e28be0\n      eq\n      tag_8\n      jumpi\n    tag_2:\n      0x00\n      dup1\n      revert\n        /* \"contracts/001Conter.sol\":383:467  function incr() public returns(uint)  {... */\n    tag_3:\n      tag_9\n      tag_10\n      jump\t// in\n    tag_9:\n      mload(0x40)\n      tag_11\n      swap2\n      swap1\n      tag_12\n      jump\t// in\n    tag_11:\n      mload(0x40)\n      dup1\n      swap2\n      sub\n      swap1\n      return\n        /* \"contracts/001Conter.sol\":585:732  function getLibSub() public pure returns(uint256){... */\n    tag_4:\n      tag_13\n      tag_14\n      jump\t// in\n    tag_13:\n      mload(0x40)\n      tag_15\n      swap2\n      swap1\n      tag_12\n      jump\t// in\n    tag_15:\n      mload(0x40)\n      dup1\n      swap2\n      sub\n      swap1\n      return\n        /* \"contracts/001Conter.sol\":882:1033  function getLibMult() public pure  returns(uint256){... */\n    tag_5:\n      tag_16\n      tag_17\n      jump\t// in\n    tag_16:\n      mload(0x40)\n      tag_18\n      swap2\n      swap1\n      tag_12\n      jump\t// in\n    tag_18:\n      mload(0x40)\n      dup1\n      swap2\n      sub\n      swap1\n      return\n        /* \"contracts/001Conter.sol\":219:286  function get() public view returns(uint){... */\n    tag_6:\n      tag_19\n      tag_20\n      jump\t// in\n    tag_19:\n      mload(0x40)\n      tag_21\n      swap2\n      swap1\n      tag_12\n      jump\t// in\n    tag_21:\n      mload(0x40)\n      dup1\n      swap2\n      sub\n      swap1\n      return\n        /* \"contracts/001Conter.sol\":741:875  function getLibAdd() public pure  returns(uint256){... */\n    tag_7:\n      tag_22\n      tag_23\n      jump\t// in\n    tag_22:\n      mload(0x40)\n      tag_24\n      swap2\n      swap1\n      tag_12\n      jump\t// in\n    tag_24:\n      mload(0x40)\n      dup1\n      swap2\n      sub\n      swap1\n      return\n        /* \"contracts/001Conter.sol\":472:558  function deincr() public returns(uint)  {... */\n    tag_8:\n      tag_25\n      tag_26\n      jump\t// in\n    tag_25:\n      mload(0x40)\n      tag_27\n      swap2\n      swap1\n      tag_12\n      jump\t// in\n    tag_27:\n      mload(0x40)\n      dup1\n      swap2\n      sub\n      swap1\n      return\n        /* \"contracts/001Conter.sol\":383:467  function incr() public returns(uint)  {... */\n    tag_10:\n        /* \"contracts/001Conter.sol\":414:418  uint */\n      0x00\n        /* \"contracts/001Conter.sol\":437:438  1 */\n      0x01\n        /* \"contracts/001Conter.sol\":431:434  cnt */\n      0x00\n      dup1\n        /* \"contracts/001Conter.sol\":431:438  cnt +=1 */\n      dup3\n      dup3\n      sload\n      tag_29\n      swap2\n      swap1\n      tag_30\n      jump\t// in\n    tag_29:\n      swap3\n      pop\n      pop\n      dup2\n      swap1\n      sstore\n      pop\n        /* \"contracts/001Conter.sol\":457:460  cnt */\n      sload(0x00)\n        /* \"contracts/001Conter.sol\":450:460  return cnt */\n      swap1\n      pop\n        /* \"contracts/001Conter.sol\":383:467  function incr() public returns(uint)  {... */\n      swap1\n      jump\t// out\n        /* \"contracts/001Conter.sol\":585:732  function getLibSub() public pure returns(uint256){... */\n    tag_14:\n        /* \"contracts/001Conter.sol\":626:633  uint256 */\n      0x00\n        /* \"contracts/001Conter.sol\":645:660  uint256 sub_res */\n      dup1\n        /* \"contracts/001Conter.sol\":663:685  SafeMath.sub(1000,100) */\n      tag_32\n        /* \"contracts/001Conter.sol\":676:680  1000 */\n      0x03e8\n        /* \"contracts/001Conter.sol\":681:684  100 */\n      0x64\n        /* \"contracts/001Conter.sol\":663:675  SafeMath.sub */\n      tag_33\n        /* \"contracts/001Conter.sol\":663:685  SafeMath.sub(1000,100) */\n      jump\t// in\n    tag_32:\n        /* \"contracts/001Conter.sol\":645:685  uint256 sub_res = SafeMath.sub(1000,100) */\n      swap1\n      pop\n        /* \"contracts/001Conter.sol\":718:725  sub_res */\n      dup1\n        /* \"contracts/001Conter.sol\":711:725  return sub_res */\n      swap2\n      pop\n      pop\n        /* \"contracts/001Conter.sol\":585:732  function getLibSub() public pure returns(uint256){... */\n      swap1\n      jump\t// out\n        /* \"contracts/001Conter.sol\":882:1033  function getLibMult() public pure  returns(uint256){... */\n    tag_17:\n        /* \"contracts/001Conter.sol\":925:932  uint256 */\n      0x00\n        /* \"contracts/001Conter.sol\":944:959  uint256 mul_res */\n      dup1\n        /* \"contracts/001Conter.sol\":962:985  SafeMath.multiply(10,8) */\n      tag_35\n        /* \"contracts/001Conter.sol\":980:982  10 */\n      0x0a\n        /* \"contracts/001Conter.sol\":983:984  8 */\n      0x08\n        /* \"contracts/001Conter.sol\":962:979  SafeMath.multiply */\n      tag_36\n        /* \"contracts/001Conter.sol\":962:985  SafeMath.multiply(10,8) */\n      jump\t// in\n    tag_35:\n        /* \"contracts/001Conter.sol\":944:985  uint256 mul_res = SafeMath.multiply(10,8) */\n      swap1\n      pop\n        /* \"contracts/001Conter.sol\":1019:1026  mul_res */\n      dup1\n        /* \"contracts/001Conter.sol\":1012:1026  return mul_res */\n      swap2\n      pop\n      pop\n        /* \"contracts/001Conter.sol\":882:1033  function getLibMult() public pure  returns(uint256){... */\n      swap1\n      jump\t// out\n        /* \"contracts/001Conter.sol\":219:286  function get() public view returns(uint){... */\n    tag_20:\n        /* \"contracts/001Conter.sol\":254:258  uint */\n      0x00\n        /* \"contracts/001Conter.sol\":276:279  cnt */\n      dup1\n      sload\n        /* \"contracts/001Conter.sol\":269:279  return cnt */\n      swap1\n      pop\n        /* \"contracts/001Conter.sol\":219:286  function get() public view returns(uint){... */\n      swap1\n      jump\t// out\n        /* \"contracts/001Conter.sol\":741:875  function getLibAdd() public pure  returns(uint256){... */\n    tag_23:\n        /* \"contracts/001Conter.sol\":783:790  uint256 */\n      0x00\n        /* \"contracts/001Conter.sol\":802:813  uint256 res */\n      dup1\n        /* \"contracts/001Conter.sol\":815:834  SafeMath.add(30,40) */\n      tag_39\n        /* \"contracts/001Conter.sol\":828:830  30 */\n      0x1e\n        /* \"contracts/001Conter.sol\":831:833  40 */\n      0x28\n        /* \"contracts/001Conter.sol\":815:827  SafeMath.add */\n      tag_40\n        /* \"contracts/001Conter.sol\":815:834  SafeMath.add(30,40) */\n      jump\t// in\n    tag_39:\n        /* \"contracts/001Conter.sol\":802:834  uint256 res= SafeMath.add(30,40) */\n      swap1\n      pop\n        /* \"contracts/001Conter.sol\":865:868  res */\n      dup1\n        /* \"contracts/001Conter.sol\":858:868  return res */\n      swap2\n      pop\n      pop\n        /* \"contracts/001Conter.sol\":741:875  function getLibAdd() public pure  returns(uint256){... */\n      swap1\n      jump\t// out\n        /* \"contracts/001Conter.sol\":472:558  function deincr() public returns(uint)  {... */\n    tag_26:\n        /* \"contracts/001Conter.sol\":505:509  uint */\n      0x00\n        /* \"contracts/001Conter.sol\":528:529  1 */\n      0x01\n        /* \"contracts/001Conter.sol\":522:525  cnt */\n      0x00\n      dup1\n        /* \"contracts/001Conter.sol\":522:529  cnt -=1 */\n      dup3\n      dup3\n      sload\n      tag_42\n      swap2\n      swap1\n      tag_43\n      jump\t// in\n    tag_42:\n      swap3\n      pop\n      pop\n      dup2\n      swap1\n      sstore\n      pop\n        /* \"contracts/001Conter.sol\":548:551  cnt */\n      sload(0x00)\n        /* \"contracts/001Conter.sol\":541:551  return cnt */\n      swap1\n      pop\n        /* \"contracts/001Conter.sol\":472:558  function deincr() public returns(uint)  {... */\n      swap1\n      jump\t// out\n        /* \"library/SafeMath.sol\":347:480  function sub(uint256 x,uint256 y) internal pure returns(uint256){... */\n    tag_33:\n        /* \"library/SafeMath.sol\":403:410  uint256 */\n      0x00\n        /* \"library/SafeMath.sol\":426:474  sub(x,y,\"SafeMath::sub operation overflow=====\") */\n      tag_45\n        /* \"library/SafeMath.sol\":430:431  x */\n      dup4\n        /* \"library/SafeMath.sol\":432:433  y */\n      dup4\n        /* \"library/SafeMath.sol\":426:474  sub(x,y,\"SafeMath::sub operation overflow=====\") */\n      mload(0x40)\n      dup1\n      0x60\n      add\n      0x40\n      mstore\n      dup1\n      0x25\n      dup2\n      mstore\n      0x20\n      add\n      data_523f3ce2653040be7e930b1e7f18a6ecc030dea263aa69622b447d554f5e21b4\n      0x25\n      swap2\n      codecopy\n        /* \"library/SafeMath.sol\":426:429  sub */\n      tag_46\n        /* \"library/SafeMath.sol\":426:474  sub(x,y,\"SafeMath::sub operation overflow=====\") */\n      jump\t// in\n    tag_45:\n        /* \"library/SafeMath.sol\":419:474  return sub(x,y,\"SafeMath::sub operation overflow=====\") */\n      swap1\n      pop\n        /* \"library/SafeMath.sol\":347:480  function sub(uint256 x,uint256 y) internal pure returns(uint256){... */\n      swap3\n      swap2\n      pop\n      pop\n      jump\t// out\n        /* \"library/SafeMath.sol\":689:921  function multiply(uint256 x,uint256 y) internal pure returns(uint256){... */\n    tag_36:\n        /* \"library/SafeMath.sol\":750:757  uint256 */\n      0x00\n        /* \"library/SafeMath.sol\":771:772  0 */\n      dup1\n        /* \"library/SafeMath.sol\":768:769  y */\n      dup3\n        /* \"library/SafeMath.sol\":768:772  y==0 */\n      eq\n        /* \"library/SafeMath.sol\":768:780  y==0 || x==0 */\n      dup1\n      tag_48\n      jumpi\n      pop\n        /* \"library/SafeMath.sol\":779:780  0 */\n      0x00\n        /* \"library/SafeMath.sol\":776:777  x */\n      dup4\n        /* \"library/SafeMath.sol\":776:780  x==0 */\n      eq\n        /* \"library/SafeMath.sol\":768:780  y==0 || x==0 */\n    tag_48:\n        /* \"library/SafeMath.sol\":764:916  if (y==0 || x==0 ){... */\n      iszero\n      tag_49\n      jumpi\n        /* \"library/SafeMath.sol\":798:799  0 */\n      0x00\n        /* \"library/SafeMath.sol\":791:799  return 0 */\n      swap1\n      pop\n      jump(tag_47)\n        /* \"library/SafeMath.sol\":764:916  if (y==0 || x==0 ){... */\n    tag_49:\n        /* \"library/SafeMath.sol\":822:831  uint256 z */\n      0x00\n        /* \"library/SafeMath.sol\":834:835  y */\n      dup3\n        /* \"library/SafeMath.sol\":832:833  x */\n      dup5\n        /* \"library/SafeMath.sol\":832:835  x*y */\n      tag_51\n      swap2\n      swap1\n      tag_52\n      jump\t// in\n    tag_51:\n        /* \"library/SafeMath.sol\":822:835  uint256 z=x*y */\n      swap1\n      pop\n        /* \"library/SafeMath.sol\":858:859  x */\n      dup4\n        /* \"library/SafeMath.sol\":855:856  y */\n      dup4\n        /* \"library/SafeMath.sol\":853:854  z */\n      dup3\n        /* \"library/SafeMath.sol\":853:856  z/y */\n      tag_53\n      swap2\n      swap1\n      tag_54\n      jump\t// in\n    tag_53:\n        /* \"library/SafeMath.sol\":853:859  z/y>=x */\n      lt\n      iszero\n        /* \"library/SafeMath.sol\":845:890  require(z/y>=x,\"SafeMath::multiply overflow\") */\n      tag_55\n      jumpi\n      mload(0x40)\n      0x08c379a000000000000000000000000000000000000000000000000000000000\n      dup2\n      mstore\n      0x04\n      add\n      tag_56\n      swap1\n      tag_57\n      jump\t// in\n    tag_56:\n      mload(0x40)\n      dup1\n      swap2\n      sub\n      swap1\n      revert\n    tag_55:\n        /* \"library/SafeMath.sol\":907:908  z */\n      dup1\n        /* \"library/SafeMath.sol\":900:908  return z */\n      swap2\n      pop\n      pop\n        /* \"library/SafeMath.sol\":689:921  function multiply(uint256 x,uint256 y) internal pure returns(uint256){... */\n    tag_47:\n      swap3\n      swap2\n      pop\n      pop\n      jump\t// out\n        /* \"library/SafeMath.sol\":156:343  function add(uint256 x,uint256 y) internal pure returns(uint256){... */\n    tag_40:\n        /* \"library/SafeMath.sol\":212:219  uint256 */\n      0x00\n        /* \"library/SafeMath.sol\":227:236  uint256 z */\n      dup1\n        /* \"library/SafeMath.sol\":239:240  y */\n      dup3\n        /* \"library/SafeMath.sol\":237:238  x */\n      dup5\n        /* \"library/SafeMath.sol\":237:240  x+y */\n      tag_59\n      swap2\n      swap1\n      tag_30\n      jump\t// in\n    tag_59:\n        /* \"library/SafeMath.sol\":227:240  uint256 z=x+y */\n      swap1\n      pop\n        /* \"library/SafeMath.sol\":291:292  x */\n      dup4\n        /* \"library/SafeMath.sol\":288:289  z */\n      dup2\n        /* \"library/SafeMath.sol\":288:292  z>=x */\n      lt\n      iszero\n        /* \"library/SafeMath.sol\":280:322  require(z>=x,\"SafeMath:addition overflow\") */\n      tag_60\n      jumpi\n      mload(0x40)\n      0x08c379a000000000000000000000000000000000000000000000000000000000\n      dup2\n      mstore\n      0x04\n      add\n      tag_61\n      swap1\n      tag_62\n      jump\t// in\n    tag_61:\n      mload(0x40)\n      dup1\n      swap2\n      sub\n      swap1\n      revert\n    tag_60:\n        /* \"library/SafeMath.sol\":336:337  z */\n      dup1\n        /* \"library/SafeMath.sol\":329:337  return z */\n      swap2\n      pop\n      pop\n        /* \"library/SafeMath.sol\":156:343  function add(uint256 x,uint256 y) internal pure returns(uint256){... */\n      swap3\n      swap2\n      pop\n      pop\n      jump\t// out\n        /* \"library/SafeMath.sol\":486:685  function sub(uint256 x,uint256 y,string memory errorMessage) internal pure returns(uint256){... */\n    tag_46:\n        /* \"library/SafeMath.sol\":569:576  uint256 */\n      0x00\n        /* \"library/SafeMath.sol\":627:628  y */\n      dup3\n        /* \"library/SafeMath.sol\":625:626  x */\n      dup5\n        /* \"library/SafeMath.sol\":625:628  x<y */\n      lt\n        /* \"library/SafeMath.sol\":629:641  errorMessage */\n      dup3\n        /* \"library/SafeMath.sol\":617:642  require(x<y,errorMessage) */\n      swap1\n      tag_64\n      jumpi\n      mload(0x40)\n      0x08c379a000000000000000000000000000000000000000000000000000000000\n      dup2\n      mstore\n      0x04\n      add\n      tag_65\n      swap2\n      swap1\n      tag_66\n      jump\t// in\n    tag_65:\n      mload(0x40)\n      dup1\n      swap2\n      sub\n      swap1\n      revert\n    tag_64:\n      pop\n        /* \"library/SafeMath.sol\":650:659  uint256 s */\n      0x00\n        /* \"library/SafeMath.sol\":662:663  y */\n      dup4\n        /* \"library/SafeMath.sol\":660:661  x */\n      dup6\n        /* \"library/SafeMath.sol\":660:663  x-y */\n      tag_67\n      swap2\n      swap1\n      tag_43\n      jump\t// in\n    tag_67:\n        /* \"library/SafeMath.sol\":650:663  uint256 s=x-y */\n      swap1\n      pop\n        /* \"library/SafeMath.sol\":678:679  s */\n      dup1\n        /* \"library/SafeMath.sol\":671:679  return s */\n      swap2\n      pop\n      pop\n        /* \"library/SafeMath.sol\":486:685  function sub(uint256 x,uint256 y,string memory errorMessage) internal pure returns(uint256){... */\n      swap4\n      swap3\n      pop\n      pop\n      pop\n      jump\t// out\n        /* \"#utility.yul\":7:84   */\n    tag_68:\n        /* \"#utility.yul\":44:51   */\n      0x00\n        /* \"#utility.yul\":73:78   */\n      dup2\n        /* \"#utility.yul\":62:78   */\n      swap1\n      pop\n        /* \"#utility.yul\":7:84   */\n      swap2\n      swap1\n      pop\n      jump\t// out\n        /* \"#utility.yul\":90:208   */\n    tag_69:\n        /* \"#utility.yul\":177:201   */\n      tag_84\n        /* \"#utility.yul\":195:200   */\n      dup2\n        /* \"#utility.yul\":177:201   */\n      tag_68\n      jump\t// in\n    tag_84:\n        /* \"#utility.yul\":172:175   */\n      dup3\n        /* \"#utility.yul\":165:202   */\n      mstore\n        /* \"#utility.yul\":90:208   */\n      pop\n      pop\n      jump\t// out\n        /* \"#utility.yul\":214:436   */\n    tag_12:\n        /* \"#utility.yul\":307:311   */\n      0x00\n        /* \"#utility.yul\":345:347   */\n      0x20\n        /* \"#utility.yul\":334:343   */\n      dup3\n        /* \"#utility.yul\":330:348   */\n      add\n        /* \"#utility.yul\":322:348   */\n      swap1\n      pop\n        /* \"#utility.yul\":358:429   */\n      tag_86\n        /* \"#utility.yul\":426:427   */\n      0x00\n        /* \"#utility.yul\":415:424   */\n      dup4\n        /* \"#utility.yul\":411:428   */\n      add\n        /* \"#utility.yul\":402:408   */\n      dup5\n        /* \"#utility.yul\":358:429   */\n      tag_69\n      jump\t// in\n    tag_86:\n        /* \"#utility.yul\":214:436   */\n      swap3\n      swap2\n      pop\n      pop\n      jump\t// out\n        /* \"#utility.yul\":442:622   */\n    tag_70:\n        /* \"#utility.yul\":490:567   */\n      0x4e487b7100000000000000000000000000000000000000000000000000000000\n        /* \"#utility.yul\":487:488   */\n      0x00\n        /* \"#utility.yul\":480:568   */\n      mstore\n        /* \"#utility.yul\":587:591   */\n      0x11\n        /* \"#utility.yul\":584:585   */\n      0x04\n        /* \"#utility.yul\":577:592   */\n      mstore\n        /* \"#utility.yul\":611:615   */\n      0x24\n        /* \"#utility.yul\":608:609   */\n      0x00\n        /* \"#utility.yul\":601:616   */\n      revert\n        /* \"#utility.yul\":628:819   */\n    tag_30:\n        /* \"#utility.yul\":668:671   */\n      0x00\n        /* \"#utility.yul\":687:707   */\n      tag_89\n        /* \"#utility.yul\":705:706   */\n      dup3\n        /* \"#utility.yul\":687:707   */\n      tag_68\n      jump\t// in\n    tag_89:\n        /* \"#utility.yul\":682:707   */\n      swap2\n      pop\n        /* \"#utility.yul\":721:741   */\n      tag_90\n        /* \"#utility.yul\":739:740   */\n      dup4\n        /* \"#utility.yul\":721:741   */\n      tag_68\n      jump\t// in\n    tag_90:\n        /* \"#utility.yul\":716:741   */\n      swap3\n      pop\n        /* \"#utility.yul\":764:765   */\n      dup3\n        /* \"#utility.yul\":761:762   */\n      dup3\n        /* \"#utility.yul\":757:766   */\n      add\n        /* \"#utility.yul\":750:766   */\n      swap1\n      pop\n        /* \"#utility.yul\":785:788   */\n      dup1\n        /* \"#utility.yul\":782:783   */\n      dup3\n        /* \"#utility.yul\":779:789   */\n      gt\n        /* \"#utility.yul\":776:812   */\n      iszero\n      tag_91\n      jumpi\n        /* \"#utility.yul\":792:810   */\n      tag_92\n      tag_70\n      jump\t// in\n    tag_92:\n        /* \"#utility.yul\":776:812   */\n    tag_91:\n        /* \"#utility.yul\":628:819   */\n      swap3\n      swap2\n      pop\n      pop\n      jump\t// out\n        /* \"#utility.yul\":825:1019   */\n    tag_43:\n        /* \"#utility.yul\":865:869   */\n      0x00\n        /* \"#utility.yul\":885:905   */\n      tag_94\n        /* \"#utility.yul\":903:904   */\n      dup3\n        /* \"#utility.yul\":885:905   */\n      tag_68\n      jump\t// in\n    tag_94:\n        /* \"#utility.yul\":880:905   */\n      swap2\n      pop\n        /* \"#utility.yul\":919:939   */\n      tag_95\n        /* \"#utility.yul\":937:938   */\n      dup4\n        /* \"#utility.yul\":919:939   */\n      tag_68\n      jump\t// in\n    tag_95:\n        /* \"#utility.yul\":914:939   */\n      swap3\n      pop\n        /* \"#utility.yul\":963:964   */\n      dup3\n        /* \"#utility.yul\":960:961   */\n      dup3\n        /* \"#utility.yul\":956:965   */\n      sub\n        /* \"#utility.yul\":948:965   */\n      swap1\n      pop\n        /* \"#utility.yul\":987:988   */\n      dup2\n        /* \"#utility.yul\":981:985   */\n      dup2\n        /* \"#utility.yul\":978:989   */\n      gt\n        /* \"#utility.yul\":975:1012   */\n      iszero\n      tag_96\n      jumpi\n        /* \"#utility.yul\":992:1010   */\n      tag_97\n      tag_70\n      jump\t// in\n    tag_97:\n        /* \"#utility.yul\":975:1012   */\n    tag_96:\n        /* \"#utility.yul\":825:1019   */\n      swap3\n      swap2\n      pop\n      pop\n      jump\t// out\n        /* \"#utility.yul\":1025:1435   */\n    tag_52:\n        /* \"#utility.yul\":1065:1072   */\n      0x00\n        /* \"#utility.yul\":1088:1108   */\n      tag_99\n        /* \"#utility.yul\":1106:1107   */\n      dup3\n        /* \"#utility.yul\":1088:1108   */\n      tag_68\n      jump\t// in\n    tag_99:\n        /* \"#utility.yul\":1083:1108   */\n      swap2\n      pop\n        /* \"#utility.yul\":1122:1142   */\n      tag_100\n        /* \"#utility.yul\":1140:1141   */\n      dup4\n        /* \"#utility.yul\":1122:1142   */\n      tag_68\n      jump\t// in\n    tag_100:\n        /* \"#utility.yul\":1117:1142   */\n      swap3\n      pop\n        /* \"#utility.yul\":1177:1178   */\n      dup3\n        /* \"#utility.yul\":1174:1175   */\n      dup3\n        /* \"#utility.yul\":1170:1179   */\n      mul\n        /* \"#utility.yul\":1199:1229   */\n      tag_101\n        /* \"#utility.yul\":1217:1228   */\n      dup2\n        /* \"#utility.yul\":1199:1229   */\n      tag_68\n      jump\t// in\n    tag_101:\n        /* \"#utility.yul\":1188:1229   */\n      swap2\n      pop\n        /* \"#utility.yul\":1378:1379   */\n      dup3\n        /* \"#utility.yul\":1369:1376   */\n      dup3\n        /* \"#utility.yul\":1365:1380   */\n      div\n        /* \"#utility.yul\":1362:1363   */\n      dup5\n        /* \"#utility.yul\":1359:1381   */\n      eq\n        /* \"#utility.yul\":1339:1340   */\n      dup4\n        /* \"#utility.yul\":1332:1341   */\n      iszero\n        /* \"#utility.yul\":1312:1395   */\n      or\n        /* \"#utility.yul\":1289:1428   */\n      tag_102\n      jumpi\n        /* \"#utility.yul\":1408:1426   */\n      tag_103\n      tag_70\n      jump\t// in\n    tag_103:\n        /* \"#utility.yul\":1289:1428   */\n    tag_102:\n        /* \"#utility.yul\":1073:1435   */\n      pop\n        /* \"#utility.yul\":1025:1435   */\n      swap3\n      swap2\n      pop\n      pop\n      jump\t// out\n        /* \"#utility.yul\":1441:1621   */\n    tag_71:\n        /* \"#utility.yul\":1489:1566   */\n      0x4e487b7100000000000000000000000000000000000000000000000000000000\n        /* \"#utility.yul\":1486:1487   */\n      0x00\n        /* \"#utility.yul\":1479:1567   */\n      mstore\n        /* \"#utility.yul\":1586:1590   */\n      0x12\n        /* \"#utility.yul\":1583:1584   */\n      0x04\n        /* \"#utility.yul\":1576:1591   */\n      mstore\n        /* \"#utility.yul\":1610:1614   */\n      0x24\n        /* \"#utility.yul\":1607:1608   */\n      0x00\n        /* \"#utility.yul\":1600:1615   */\n      revert\n        /* \"#utility.yul\":1627:1812   */\n    tag_54:\n        /* \"#utility.yul\":1667:1668   */\n      0x00\n        /* \"#utility.yul\":1684:1704   */\n      tag_106\n        /* \"#utility.yul\":1702:1703   */\n      dup3\n        /* \"#utility.yul\":1684:1704   */\n      tag_68\n      jump\t// in\n    tag_106:\n        /* \"#utility.yul\":1679:1704   */\n      swap2\n      pop\n        /* \"#utility.yul\":1718:1738   */\n      tag_107\n        /* \"#utility.yul\":1736:1737   */\n      dup4\n        /* \"#utility.yul\":1718:1738   */\n      tag_68\n      jump\t// in\n    tag_107:\n        /* \"#utility.yul\":1713:1738   */\n      swap3\n      pop\n        /* \"#utility.yul\":1757:1758   */\n      dup3\n        /* \"#utility.yul\":1747:1782   */\n      tag_108\n      jumpi\n        /* \"#utility.yul\":1762:1780   */\n      tag_109\n      tag_71\n      jump\t// in\n    tag_109:\n        /* \"#utility.yul\":1747:1782   */\n    tag_108:\n        /* \"#utility.yul\":1804:1805   */\n      dup3\n        /* \"#utility.yul\":1801:1802   */\n      dup3\n        /* \"#utility.yul\":1797:1806   */\n      div\n        /* \"#utility.yul\":1792:1806   */\n      swap1\n      pop\n        /* \"#utility.yul\":1627:1812   */\n      swap3\n      swap2\n      pop\n      pop\n      jump\t// out\n        /* \"#utility.yul\":1818:1987   */\n    tag_72:\n        /* \"#utility.yul\":1902:1913   */\n      0x00\n        /* \"#utility.yul\":1936:1942   */\n      dup3\n        /* \"#utility.yul\":1931:1934   */\n      dup3\n        /* \"#utility.yul\":1924:1943   */\n      mstore\n        /* \"#utility.yul\":1976:1980   */\n      0x20\n        /* \"#utility.yul\":1971:1974   */\n      dup3\n        /* \"#utility.yul\":1967:1981   */\n      add\n        /* \"#utility.yul\":1952:1981   */\n      swap1\n      pop\n        /* \"#utility.yul\":1818:1987   */\n      swap3\n      swap2\n      pop\n      pop\n      jump\t// out\n        /* \"#utility.yul\":1993:2170   */\n    tag_73:\n        /* \"#utility.yul\":2133:2162   */\n      0x536166654d6174683a3a6d756c7469706c79206f766572666c6f770000000000\n        /* \"#utility.yul\":2129:2130   */\n      0x00\n        /* \"#utility.yul\":2121:2127   */\n      dup3\n        /* \"#utility.yul\":2117:2131   */\n      add\n        /* \"#utility.yul\":2110:2163   */\n      mstore\n        /* \"#utility.yul\":1993:2170   */\n      pop\n      jump\t// out\n        /* \"#utility.yul\":2176:2542   */\n    tag_74:\n        /* \"#utility.yul\":2318:2321   */\n      0x00\n        /* \"#utility.yul\":2339:2406   */\n      tag_113\n        /* \"#utility.yul\":2403:2405   */\n      0x1b\n        /* \"#utility.yul\":2398:2401   */\n      dup4\n        /* \"#utility.yul\":2339:2406   */\n      tag_72\n      jump\t// in\n    tag_113:\n        /* \"#utility.yul\":2332:2406   */\n      swap2\n      pop\n        /* \"#utility.yul\":2415:2508   */\n      tag_114\n        /* \"#utility.yul\":2504:2507   */\n      dup3\n        /* \"#utility.yul\":2415:2508   */\n      tag_73\n      jump\t// in\n    tag_114:\n        /* \"#utility.yul\":2533:2535   */\n      0x20\n        /* \"#utility.yul\":2528:2531   */\n      dup3\n        /* \"#utility.yul\":2524:2536   */\n      add\n        /* \"#utility.yul\":2517:2536   */\n      swap1\n      pop\n        /* \"#utility.yul\":2176:2542   */\n      swap2\n      swap1\n      pop\n      jump\t// out\n        /* \"#utility.yul\":2548:2967   */\n    tag_57:\n        /* \"#utility.yul\":2714:2718   */\n      0x00\n        /* \"#utility.yul\":2752:2754   */\n      0x20\n        /* \"#utility.yul\":2741:2750   */\n      dup3\n        /* \"#utility.yul\":2737:2755   */\n      add\n        /* \"#utility.yul\":2729:2755   */\n      swap1\n      pop\n        /* \"#utility.yul\":2801:2810   */\n      dup2\n        /* \"#utility.yul\":2795:2799   */\n      dup2\n        /* \"#utility.yul\":2791:2811   */\n      sub\n        /* \"#utility.yul\":2787:2788   */\n      0x00\n        /* \"#utility.yul\":2776:2785   */\n      dup4\n        /* \"#utility.yul\":2772:2789   */\n      add\n        /* \"#utility.yul\":2765:2812   */\n      mstore\n        /* \"#utility.yul\":2829:2960   */\n      tag_116\n        /* \"#utility.yul\":2955:2959   */\n      dup2\n        /* \"#utility.yul\":2829:2960   */\n      tag_74\n      jump\t// in\n    tag_116:\n        /* \"#utility.yul\":2821:2960   */\n      swap1\n      pop\n        /* \"#utility.yul\":2548:2967   */\n      swap2\n      swap1\n      pop\n      jump\t// out\n        /* \"#utility.yul\":2973:3149   */\n    tag_75:\n        /* \"#utility.yul\":3113:3141   */\n      0x536166654d6174683a6164646974696f6e206f766572666c6f77000000000000\n        /* \"#utility.yul\":3109:3110   */\n      0x00\n        /* \"#utility.yul\":3101:3107   */\n      dup3\n        /* \"#utility.yul\":3097:3111   */\n      add\n        /* \"#utility.yul\":3090:3142   */\n      mstore\n        /* \"#utility.yul\":2973:3149   */\n      pop\n      jump\t// out\n        /* \"#utility.yul\":3155:3521   */\n    tag_76:\n        /* \"#utility.yul\":3297:3300   */\n      0x00\n        /* \"#utility.yul\":3318:3385   */\n      tag_119\n        /* \"#utility.yul\":3382:3384   */\n      0x1a\n        /* \"#utility.yul\":3377:3380   */\n      dup4\n        /* \"#utility.yul\":3318:3385   */\n      tag_72\n      jump\t// in\n    tag_119:\n        /* \"#utility.yul\":3311:3385   */\n      swap2\n      pop\n        /* \"#utility.yul\":3394:3487   */\n      tag_120\n        /* \"#utility.yul\":3483:3486   */\n      dup3\n        /* \"#utility.yul\":3394:3487   */\n      tag_75\n      jump\t// in\n    tag_120:\n        /* \"#utility.yul\":3512:3514   */\n      0x20\n        /* \"#utility.yul\":3507:3510   */\n      dup3\n        /* \"#utility.yul\":3503:3515   */\n      add\n        /* \"#utility.yul\":3496:3515   */\n      swap1\n      pop\n        /* \"#utility.yul\":3155:3521   */\n      swap2\n      swap1\n      pop\n      jump\t// out\n        /* \"#utility.yul\":3527:3946   */\n    tag_62:\n        /* \"#utility.yul\":3693:3697   */\n      0x00\n        /* \"#utility.yul\":3731:3733   */\n      0x20\n        /* \"#utility.yul\":3720:3729   */\n      dup3\n        /* \"#utility.yul\":3716:3734   */\n      add\n        /* \"#utility.yul\":3708:3734   */\n      swap1\n      pop\n        /* \"#utility.yul\":3780:3789   */\n      dup2\n        /* \"#utility.yul\":3774:3778   */\n      dup2\n        /* \"#utility.yul\":3770:3790   */\n      sub\n        /* \"#utility.yul\":3766:3767   */\n      0x00\n        /* \"#utility.yul\":3755:3764   */\n      dup4\n        /* \"#utility.yul\":3751:3768   */\n      add\n        /* \"#utility.yul\":3744:3791   */\n      mstore\n        /* \"#utility.yul\":3808:3939   */\n      tag_122\n        /* \"#utility.yul\":3934:3938   */\n      dup2\n        /* \"#utility.yul\":3808:3939   */\n      tag_76\n      jump\t// in\n    tag_122:\n        /* \"#utility.yul\":3800:3939   */\n      swap1\n      pop\n        /* \"#utility.yul\":3527:3946   */\n      swap2\n      swap1\n      pop\n      jump\t// out\n        /* \"#utility.yul\":3952:4051   */\n    tag_77:\n        /* \"#utility.yul\":4004:4010   */\n      0x00\n        /* \"#utility.yul\":4038:4043   */\n      dup2\n        /* \"#utility.yul\":4032:4044   */\n      mload\n        /* \"#utility.yul\":4022:4044   */\n      swap1\n      pop\n        /* \"#utility.yul\":3952:4051   */\n      swap2\n      swap1\n      pop\n      jump\t// out\n        /* \"#utility.yul\":4057:4196   */\n    tag_78:\n        /* \"#utility.yul\":4146:4152   */\n      dup3\n        /* \"#utility.yul\":4141:4144   */\n      dup2\n        /* \"#utility.yul\":4136:4139   */\n      dup4\n        /* \"#utility.yul\":4130:4153   */\n      mcopy\n        /* \"#utility.yul\":4187:4188   */\n      0x00\n        /* \"#utility.yul\":4178:4184   */\n      dup4\n        /* \"#utility.yul\":4173:4176   */\n      dup4\n        /* \"#utility.yul\":4169:4185   */\n      add\n        /* \"#utility.yul\":4162:4189   */\n      mstore\n        /* \"#utility.yul\":4057:4196   */\n      pop\n      pop\n      pop\n      jump\t// out\n        /* \"#utility.yul\":4202:4304   */\n    tag_79:\n        /* \"#utility.yul\":4243:4249   */\n      0x00\n        /* \"#utility.yul\":4294:4296   */\n      0x1f\n        /* \"#utility.yul\":4290:4297   */\n      not\n        /* \"#utility.yul\":4285:4287   */\n      0x1f\n        /* \"#utility.yul\":4278:4283   */\n      dup4\n        /* \"#utility.yul\":4274:4288   */\n      add\n        /* \"#utility.yul\":4270:4298   */\n      and\n        /* \"#utility.yul\":4260:4298   */\n      swap1\n      pop\n        /* \"#utility.yul\":4202:4304   */\n      swap2\n      swap1\n      pop\n      jump\t// out\n        /* \"#utility.yul\":4310:4687   */\n    tag_80:\n        /* \"#utility.yul\":4398:4401   */\n      0x00\n        /* \"#utility.yul\":4426:4465   */\n      tag_127\n        /* \"#utility.yul\":4459:4464   */\n      dup3\n        /* \"#utility.yul\":4426:4465   */\n      tag_77\n      jump\t// in\n    tag_127:\n        /* \"#utility.yul\":4481:4552   */\n      tag_128\n        /* \"#utility.yul\":4545:4551   */\n      dup2\n        /* \"#utility.yul\":4540:4543   */\n      dup6\n        /* \"#utility.yul\":4481:4552   */\n      tag_72\n      jump\t// in\n    tag_128:\n        /* \"#utility.yul\":4474:4552   */\n      swap4\n      pop\n        /* \"#utility.yul\":4561:4626   */\n      tag_129\n        /* \"#utility.yul\":4619:4625   */\n      dup2\n        /* \"#utility.yul\":4614:4617   */\n      dup6\n        /* \"#utility.yul\":4607:4611   */\n      0x20\n        /* \"#utility.yul\":4600:4605   */\n      dup7\n        /* \"#utility.yul\":4596:4612   */\n      add\n        /* \"#utility.yul\":4561:4626   */\n      tag_78\n      jump\t// in\n    tag_129:\n        /* \"#utility.yul\":4651:4680   */\n      tag_130\n        /* \"#utility.yul\":4673:4679   */\n      dup2\n        /* \"#utility.yul\":4651:4680   */\n      tag_79\n      jump\t// in\n    tag_130:\n        /* \"#utility.yul\":4646:4649   */\n      dup5\n        /* \"#utility.yul\":4642:4681   */\n      add\n        /* \"#utility.yul\":4635:4681   */\n      swap2\n      pop\n        /* \"#utility.yul\":4402:4687   */\n      pop\n        /* \"#utility.yul\":4310:4687   */\n      swap3\n      swap2\n      pop\n      pop\n      jump\t// out\n        /* \"#utility.yul\":4693:5006   */\n    tag_66:\n        /* \"#utility.yul\":4806:4810   */\n      0x00\n        /* \"#utility.yul\":4844:4846   */\n      0x20\n        /* \"#utility.yul\":4833:4842   */\n      dup3\n        /* \"#utility.yul\":4829:4847   */\n      add\n        /* \"#utility.yul\":4821:4847   */\n      swap1\n      pop\n        /* \"#utility.yul\":4893:4902   */\n      dup2\n        /* \"#utility.yul\":4887:4891   */\n      dup2\n        /* \"#utility.yul\":4883:4903   */\n      sub\n        /* \"#utility.yul\":4879:4880   */\n      0x00\n        /* \"#utility.yul\":4868:4877   */\n      dup4\n        /* \"#utility.yul\":4864:4881   */\n      add\n        /* \"#utility.yul\":4857:4904   */\n      mstore\n        /* \"#utility.yul\":4921:4999   */\n      tag_132\n        /* \"#utility.yul\":4994:4998   */\n      dup2\n        /* \"#utility.yul\":4985:4991   */\n      dup5\n        /* \"#utility.yul\":4921:4999   */\n      tag_80\n      jump\t// in\n    tag_132:\n        /* \"#utility.yul\":4913:4999   */\n      swap1\n      pop\n        /* \"#utility.yul\":4693:5006   */\n      swap3\n      swap2\n      pop\n      pop\n      jump\t// out\n    stop\n    data_523f3ce2653040be7e930b1e7f18a6ecc030dea263aa69622b447d554f5e21b4 536166654d6174683a3a737562206f7065726174696f6e206f766572666c6f773d3d3d3d3d\n\n    auxdata: 0xa2646970667358221220078095e1b1dcb365b7d58ca99aec15158f5f74a4aad40182eb17c2142663e67164736f6c634300081a0033\n}\n",
				"bytecode": {
					"linkReferences": {},
					"object": "608060405260125f553480156012575f80fd5b50610630806100205f395ff3fe608060405234801561000f575f80fd5b5060043610610060575f3560e01c8063119fbbd4146100645780631f38381014610082578063644d7c4c146100a05780636d4ce63c146100be5780636feb35e1146100dc578063a6e28be0146100fa575b5f80fd5b61006c610118565b604051610079919061032b565b60405180910390f35b61008a610138565b604051610097919061032b565b60405180910390f35b6100a8610150565b6040516100b5919061032b565b60405180910390f35b6100c6610167565b6040516100d3919061032b565b60405180910390f35b6100e461016f565b6040516100f1919061032b565b60405180910390f35b610102610186565b60405161010f919061032b565b60405180910390f35b5f60015f8082825461012a9190610371565b925050819055505f54905090565b5f806101476103e860646101a6565b90508091505090565b5f8061015e600a60086101d2565b90508091505090565b5f8054905090565b5f8061017d601e6028610255565b90508091505090565b5f60015f8082825461019891906103a4565b925050819055505f54905090565b5f6101ca83836040518060600160405280602581526020016105d6602591396102b2565b905092915050565b5f808214806101e057505f83145b156101ed575f905061024f565b5f82846101fa91906103d7565b90508383826102099190610445565b101561024a576040517f08c379a0000000000000000000000000000000000000000000000000000000008152600401610241906104cf565b60405180910390fd5b809150505b92915050565b5f8082846102639190610371565b9050838110156102a8576040517f08c379a000000000000000000000000000000000000000000000000000000000815260040161029f90610537565b60405180910390fd5b8091505092915050565b5f82841082906102f8576040517f08c379a00000000000000000000000000000000000000000000000000000000081526004016102ef91906105b5565b60405180910390fd5b505f838561030691906103a4565b9050809150509392505050565b5f819050919050565b61032581610313565b82525050565b5f60208201905061033e5f83018461031c565b92915050565b7f4e487b71000000000000000000000000000000000000000000000000000000005f52601160045260245ffd5b5f61037b82610313565b915061038683610313565b925082820190508082111561039e5761039d610344565b5b92915050565b5f6103ae82610313565b91506103b983610313565b92508282039050818111156103d1576103d0610344565b5b92915050565b5f6103e182610313565b91506103ec83610313565b92508282026103fa81610313565b9150828204841483151761041157610410610344565b5b5092915050565b7f4e487b71000000000000000000000000000000000000000000000000000000005f52601260045260245ffd5b5f61044f82610313565b915061045a83610313565b92508261046a57610469610418565b5b828204905092915050565b5f82825260208201905092915050565b7f536166654d6174683a3a6d756c7469706c79206f766572666c6f7700000000005f82015250565b5f6104b9601b83610475565b91506104c482610485565b602082019050919050565b5f6020820190508181035f8301526104e6816104ad565b9050919050565b7f536166654d6174683a6164646974696f6e206f766572666c6f770000000000005f82015250565b5f610521601a83610475565b915061052c826104ed565b602082019050919050565b5f6020820190508181035f83015261054e81610515565b9050919050565b5f81519050919050565b8281835e5f83830152505050565b5f601f19601f8301169050919050565b5f61058782610555565b6105918185610475565b93506105a181856020860161055f565b6105aa8161056d565b840191505092915050565b5f6020820190508181035f8301526105cd818461057d565b90509291505056fe536166654d6174683a3a737562206f7065726174696f6e206f766572666c6f773d3d3d3d3da2646970667358221220078095e1b1dcb365b7d58ca99aec15158f5f74a4aad40182eb17c2142663e67164736f6c634300081a0033",
					"opcodes": "PUSH1 0x80 PUSH1 0x40 MSTORE PUSH1 0x12 PUSH0 SSTORE CALLVALUE DUP1 ISZERO PUSH1 0x12 JUMPI PUSH0 DUP1 REVERT JUMPDEST POP PUSH2 0x630 DUP1 PUSH2 0x20 PUSH0 CODECOPY PUSH0 RETURN INVALID PUSH1 0x80 PUSH1 0x40 MSTORE CALLVALUE DUP1 ISZERO PUSH2 0xF JUMPI PUSH0 DUP1 REVERT JUMPDEST POP PUSH1 0x4 CALLDATASIZE LT PUSH2 0x60 JUMPI PUSH0 CALLDATALOAD PUSH1 0xE0 SHR DUP1 PUSH4 0x119FBBD4 EQ PUSH2 0x64 JUMPI DUP1 PUSH4 0x1F383810 EQ PUSH2 0x82 JUMPI DUP1 PUSH4 0x644D7C4C EQ PUSH2 0xA0 JUMPI DUP1 PUSH4 0x6D4CE63C EQ PUSH2 0xBE JUMPI DUP1 PUSH4 0x6FEB35E1 EQ PUSH2 0xDC JUMPI DUP1 PUSH4 0xA6E28BE0 EQ PUSH2 0xFA JUMPI JUMPDEST PUSH0 DUP1 REVERT JUMPDEST PUSH2 0x6C PUSH2 0x118 JUMP JUMPDEST PUSH1 0x40 MLOAD PUSH2 0x79 SWAP2 SWAP1 PUSH2 0x32B JUMP JUMPDEST PUSH1 0x40 MLOAD DUP1 SWAP2 SUB SWAP1 RETURN JUMPDEST PUSH2 0x8A PUSH2 0x138 JUMP JUMPDEST PUSH1 0x40 MLOAD PUSH2 0x97 SWAP2 SWAP1 PUSH2 0x32B JUMP JUMPDEST PUSH1 0x40 MLOAD DUP1 SWAP2 SUB SWAP1 RETURN JUMPDEST PUSH2 0xA8 PUSH2 0x150 JUMP JUMPDEST PUSH1 0x40 MLOAD PUSH2 0xB5 SWAP2 SWAP1 PUSH2 0x32B JUMP JUMPDEST PUSH1 0x40 MLOAD DUP1 SWAP2 SUB SWAP1 RETURN JUMPDEST PUSH2 0xC6 PUSH2 0x167 JUMP JUMPDEST PUSH1 0x40 MLOAD PUSH2 0xD3 SWAP2 SWAP1 PUSH2 0x32B JUMP JUMPDEST PUSH1 0x40 MLOAD DUP1 SWAP2 SUB SWAP1 RETURN JUMPDEST PUSH2 0xE4 PUSH2 0x16F JUMP JUMPDEST PUSH1 0x40 MLOAD PUSH2 0xF1 SWAP2 SWAP1 PUSH2 0x32B JUMP JUMPDEST PUSH1 0x40 MLOAD DUP1 SWAP2 SUB SWAP1 RETURN JUMPDEST PUSH2 0x102 PUSH2 0x186 JUMP JUMPDEST PUSH1 0x40 MLOAD PUSH2 0x10F SWAP2 SWAP1 PUSH2 0x32B JUMP JUMPDEST PUSH1 0x40 MLOAD DUP1 SWAP2 SUB SWAP1 RETURN JUMPDEST PUSH0 PUSH1 0x1 PUSH0 DUP1 DUP3 DUP3 SLOAD PUSH2 0x12A SWAP2 SWAP1 PUSH2 0x371 JUMP JUMPDEST SWAP3 POP POP DUP2 SWAP1 SSTORE POP PUSH0 SLOAD SWAP1 POP SWAP1 JUMP JUMPDEST PUSH0 DUP1 PUSH2 0x147 PUSH2 0x3E8 PUSH1 0x64 PUSH2 0x1A6 JUMP JUMPDEST SWAP1 POP DUP1 SWAP2 POP POP SWAP1 JUMP JUMPDEST PUSH0 DUP1 PUSH2 0x15E PUSH1 0xA PUSH1 0x8 PUSH2 0x1D2 JUMP JUMPDEST SWAP1 POP DUP1 SWAP2 POP POP SWAP1 JUMP JUMPDEST PUSH0 DUP1 SLOAD SWAP1 POP SWAP1 JUMP JUMPDEST PUSH0 DUP1 PUSH2 0x17D PUSH1 0x1E PUSH1 0x28 PUSH2 0x255 JUMP JUMPDEST SWAP1 POP DUP1 SWAP2 POP POP SWAP1 JUMP JUMPDEST PUSH0 PUSH1 0x1 PUSH0 DUP1 DUP3 DUP3 SLOAD PUSH2 0x198 SWAP2 SWAP1 PUSH2 0x3A4 JUMP JUMPDEST SWAP3 POP POP DUP2 SWAP1 SSTORE POP PUSH0 SLOAD SWAP1 POP SWAP1 JUMP JUMPDEST PUSH0 PUSH2 0x1CA DUP4 DUP4 PUSH1 0x40 MLOAD DUP1 PUSH1 0x60 ADD PUSH1 0x40 MSTORE DUP1 PUSH1 0x25 DUP2 MSTORE PUSH1 0x20 ADD PUSH2 0x5D6 PUSH1 0x25 SWAP2 CODECOPY PUSH2 0x2B2 JUMP JUMPDEST SWAP1 POP SWAP3 SWAP2 POP POP JUMP JUMPDEST PUSH0 DUP1 DUP3 EQ DUP1 PUSH2 0x1E0 JUMPI POP PUSH0 DUP4 EQ JUMPDEST ISZERO PUSH2 0x1ED JUMPI PUSH0 SWAP1 POP PUSH2 0x24F JUMP JUMPDEST PUSH0 DUP3 DUP5 PUSH2 0x1FA SWAP2 SWAP1 PUSH2 0x3D7 JUMP JUMPDEST SWAP1 POP DUP4 DUP4 DUP3 PUSH2 0x209 SWAP2 SWAP1 PUSH2 0x445 JUMP JUMPDEST LT ISZERO PUSH2 0x24A JUMPI PUSH1 0x40 MLOAD PUSH32 0x8C379A000000000000000000000000000000000000000000000000000000000 DUP2 MSTORE PUSH1 0x4 ADD PUSH2 0x241 SWAP1 PUSH2 0x4CF JUMP JUMPDEST PUSH1 0x40 MLOAD DUP1 SWAP2 SUB SWAP1 REVERT JUMPDEST DUP1 SWAP2 POP POP JUMPDEST SWAP3 SWAP2 POP POP JUMP JUMPDEST PUSH0 DUP1 DUP3 DUP5 PUSH2 0x263 SWAP2 SWAP1 PUSH2 0x371 JUMP JUMPDEST SWAP1 POP DUP4 DUP2 LT ISZERO PUSH2 0x2A8 JUMPI PUSH1 0x40 MLOAD PUSH32 0x8C379A000000000000000000000000000000000000000000000000000000000 DUP2 MSTORE PUSH1 0x4 ADD PUSH2 0x29F SWAP1 PUSH2 0x537 JUMP JUMPDEST PUSH1 0x40 MLOAD DUP1 SWAP2 SUB SWAP1 REVERT JUMPDEST DUP1 SWAP2 POP POP SWAP3 SWAP2 POP POP JUMP JUMPDEST PUSH0 DUP3 DUP5 LT DUP3 SWAP1 PUSH2 0x2F8 JUMPI PUSH1 0x40 MLOAD PUSH32 0x8C379A000000000000000000000000000000000000000000000000000000000 DUP2 MSTORE PUSH1 0x4 ADD PUSH2 0x2EF SWAP2 SWAP1 PUSH2 0x5B5 JUMP JUMPDEST PUSH1 0x40 MLOAD DUP1 SWAP2 SUB SWAP1 REVERT JUMPDEST POP PUSH0 DUP4 DUP6 PUSH2 0x306 SWAP2 SWAP1 PUSH2 0x3A4 JUMP JUMPDEST SWAP1 POP DUP1 SWAP2 POP POP SWAP4 SWAP3 POP POP POP JUMP JUMPDEST PUSH0 DUP2 SWAP1 POP SWAP2 SWAP1 POP JUMP JUMPDEST PUSH2 0x325 DUP2 PUSH2 0x313 JUMP JUMPDEST DUP3 MSTORE POP POP JUMP JUMPDEST PUSH0 PUSH1 0x20 DUP3 ADD SWAP1 POP PUSH2 0x33E PUSH0 DUP4 ADD DUP5 PUSH2 0x31C JUMP JUMPDEST SWAP3 SWAP2 POP POP JUMP JUMPDEST PUSH32 0x4E487B7100000000000000000000000000000000000000000000000000000000 PUSH0 MSTORE PUSH1 0x11 PUSH1 0x4 MSTORE PUSH1 0x24 PUSH0 REVERT JUMPDEST PUSH0 PUSH2 0x37B DUP3 PUSH2 0x313 JUMP JUMPDEST SWAP2 POP PUSH2 0x386 DUP4 PUSH2 0x313 JUMP JUMPDEST SWAP3 POP DUP3 DUP3 ADD SWAP1 POP DUP1 DUP3 GT ISZERO PUSH2 0x39E JUMPI PUSH2 0x39D PUSH2 0x344 JUMP JUMPDEST JUMPDEST SWAP3 SWAP2 POP POP JUMP JUMPDEST PUSH0 PUSH2 0x3AE DUP3 PUSH2 0x313 JUMP JUMPDEST SWAP2 POP PUSH2 0x3B9 DUP4 PUSH2 0x313 JUMP JUMPDEST SWAP3 POP DUP3 DUP3 SUB SWAP1 POP DUP2 DUP2 GT ISZERO PUSH2 0x3D1 JUMPI PUSH2 0x3D0 PUSH2 0x344 JUMP JUMPDEST JUMPDEST SWAP3 SWAP2 POP POP JUMP JUMPDEST PUSH0 PUSH2 0x3E1 DUP3 PUSH2 0x313 JUMP JUMPDEST SWAP2 POP PUSH2 0x3EC DUP4 PUSH2 0x313 JUMP JUMPDEST SWAP3 POP DUP3 DUP3 MUL PUSH2 0x3FA DUP2 PUSH2 0x313 JUMP JUMPDEST SWAP2 POP DUP3 DUP3 DIV DUP5 EQ DUP4 ISZERO OR PUSH2 0x411 JUMPI PUSH2 0x410 PUSH2 0x344 JUMP JUMPDEST JUMPDEST POP SWAP3 SWAP2 POP POP JUMP JUMPDEST PUSH32 0x4E487B7100000000000000000000000000000000000000000000000000000000 PUSH0 MSTORE PUSH1 0x12 PUSH1 0x4 MSTORE PUSH1 0x24 PUSH0 REVERT JUMPDEST PUSH0 PUSH2 0x44F DUP3 PUSH2 0x313 JUMP JUMPDEST SWAP2 POP PUSH2 0x45A DUP4 PUSH2 0x313 JUMP JUMPDEST SWAP3 POP DUP3 PUSH2 0x46A JUMPI PUSH2 0x469 PUSH2 0x418 JUMP JUMPDEST JUMPDEST DUP3 DUP3 DIV SWAP1 POP SWAP3 SWAP2 POP POP JUMP JUMPDEST PUSH0 DUP3 DUP3 MSTORE PUSH1 0x20 DUP3 ADD SWAP1 POP SWAP3 SWAP2 POP POP JUMP JUMPDEST PUSH32 0x536166654D6174683A3A6D756C7469706C79206F766572666C6F770000000000 PUSH0 DUP3 ADD MSTORE POP JUMP JUMPDEST PUSH0 PUSH2 0x4B9 PUSH1 0x1B DUP4 PUSH2 0x475 JUMP JUMPDEST SWAP2 POP PUSH2 0x4C4 DUP3 PUSH2 0x485 JUMP JUMPDEST PUSH1 0x20 DUP3 ADD SWAP1 POP SWAP2 SWAP1 POP JUMP JUMPDEST PUSH0 PUSH1 0x20 DUP3 ADD SWAP1 POP DUP2 DUP2 SUB PUSH0 DUP4 ADD MSTORE PUSH2 0x4E6 DUP2 PUSH2 0x4AD JUMP JUMPDEST SWAP1 POP SWAP2 SWAP1 POP JUMP JUMPDEST PUSH32 0x536166654D6174683A6164646974696F6E206F766572666C6F77000000000000 PUSH0 DUP3 ADD MSTORE POP JUMP JUMPDEST PUSH0 PUSH2 0x521 PUSH1 0x1A DUP4 PUSH2 0x475 JUMP JUMPDEST SWAP2 POP PUSH2 0x52C DUP3 PUSH2 0x4ED JUMP JUMPDEST PUSH1 0x20 DUP3 ADD SWAP1 POP SWAP2 SWAP1 POP JUMP JUMPDEST PUSH0 PUSH1 0x20 DUP3 ADD SWAP1 POP DUP2 DUP2 SUB PUSH0 DUP4 ADD MSTORE PUSH2 0x54E DUP2 PUSH2 0x515 JUMP JUMPDEST SWAP1 POP SWAP2 SWAP1 POP JUMP JUMPDEST PUSH0 DUP2 MLOAD SWAP1 POP SWAP2 SWAP1 POP JUMP JUMPDEST DUP3 DUP2 DUP4 MCOPY PUSH0 DUP4 DUP4 ADD MSTORE POP POP POP JUMP JUMPDEST PUSH0 PUSH1 0x1F NOT PUSH1 0x1F DUP4 ADD AND SWAP1 POP SWAP2 SWAP1 POP JUMP JUMPDEST PUSH0 PUSH2 0x587 DUP3 PUSH2 0x555 JUMP JUMPDEST PUSH2 0x591 DUP2 DUP6 PUSH2 0x475 JUMP JUMPDEST SWAP4 POP PUSH2 0x5A1 DUP2 DUP6 PUSH1 0x20 DUP7 ADD PUSH2 0x55F JUMP JUMPDEST PUSH2 0x5AA DUP2 PUSH2 0x56D JUMP JUMPDEST DUP5 ADD SWAP2 POP POP SWAP3 SWAP2 POP POP JUMP JUMPDEST PUSH0 PUSH1 0x20 DUP3 ADD SWAP1 POP DUP2 DUP2 SUB PUSH0 DUP4 ADD MSTORE PUSH2 0x5CD DUP2 DUP5 PUSH2 0x57D JUMP JUMPDEST SWAP1 POP SWAP3 SWAP2 POP POP JUMP INVALID MSTORE8 PUSH2 0x6665 0x4D PUSH2 0x7468 GASPRICE GASPRICE PUSH20 0x7562206F7065726174696F6E206F766572666C6F PUSH24 0x3D3D3D3D3DA2646970667358221220078095E1B1DCB365B7 0xD5 DUP13 0xA9 SWAP11 0xEC ISZERO ISZERO DUP16 PUSH0 PUSH21 0xA4AAD40182EB17C2142663E67164736F6C63430008 BYTE STOP CALLER "
				},
				"gasEstimates": {
					"creation": {
						"codeDepositCost": "316800",
						"executionCost": "22458",
						"totalCost": "339258"
					},
					"external": {
						"deincr()": "infinite",
						"get()": "2476",
						"getLibAdd()": "infinite",
						"getLibMult()": "infinite",
						"getLibSub()": "infinite",
						"incr()": "infinite"
					}
				},
				"methodIdentifiers": {
					"deincr()": "a6e28be0",
					"get()": "6d4ce63c",
					"getLibAdd()": "6feb35e1",
					"getLibMult()": "644d7c4c",
					"getLibSub()": "1f383810",
					"incr()": "119fbbd4"
				}
			},
			"storageLayout": {
				"storage": [
					{
						"astId": 8,
						"contract": "contracts/001Conter.sol:Conter",
						"label": "cnt",
						"offset": 0,
						"slot": "0",
						"type": "t_uint256"
					}
				],
				"types": {
					"t_uint256": {
						"encoding": "inplace",
						"label": "uint256",
						"numberOfBytes": "32"
					}
				}
			},
			"userdoc": {
				"kind": "user",
				"methods": {},
				"version": 1
			}
		}
	}
}