{
	"contracts/Ballot.sol": {
		"Ballot": {
			"abi": [
				{
					"inputs": [
						{
							"internalType": "bytes[]",
							"name": "proposalNames",
							"type": "bytes[]"
						}
					],
					"stateMutability": "nonpayable",
					"type": "constructor"
				},
				{
					"inputs": [],
					"name": "chainPerson",
					"outputs": [
						{
							"internalType": "address",
							"name": "",
							"type": "address"
						}
					],
					"stateMutability": "view",
					"type": "function"
				},
				{
					"inputs": [
						{
							"internalType": "address",
							"name": "to",
							"type": "address"
						}
					],
					"name": "delegate",
					"outputs": [],
					"stateMutability": "nonpayable",
					"type": "function"
				},
				{
					"inputs": [
						{
							"internalType": "address",
							"name": "voter",
							"type": "address"
						}
					],
					"name": "giveRightToVote",
					"outputs": [],
					"stateMutability": "nonpayable",
					"type": "function"
				},
				{
					"inputs": [
						{
							"internalType": "uint256",
							"name": "",
							"type": "uint256"
						}
					],
					"name": "proposals",
					"outputs": [
						{
							"internalType": "bytes32",
							"name": "name",
							"type": "bytes32"
						},
						{
							"internalType": "uint256",
							"name": "voteCount",
							"type": "uint256"
						}
					],
					"stateMutability": "view",
					"type": "function"
				},
				{
					"inputs": [
						{
							"internalType": "uint256",
							"name": "proposal",
							"type": "uint256"
						}
					],
					"name": "vote",
					"outputs": [],
					"stateMutability": "nonpayable",
					"type": "function"
				},
				{
					"inputs": [
						{
							"internalType": "address",
							"name": "",
							"type": "address"
						}
					],
					"name": "voters",
					"outputs": [
						{
							"internalType": "uint256",
							"name": "weight",
							"type": "uint256"
						},
						{
							"internalType": "bool",
							"name": "voted",
							"type": "bool"
						},
						{
							"internalType": "address",
							"name": "delegate",
							"type": "address"
						},
						{
							"internalType": "uint256",
							"name": "vote",
							"type": "uint256"
						}
					],
					"stateMutability": "view",
					"type": "function"
				},
				{
					"inputs": [],
					"name": "winnerName",
					"outputs": [
						{
							"internalType": "bytes32",
							"name": "winnerName_",
							"type": "bytes32"
						}
					],
					"stateMutability": "view",
					"type": "function"
				},
				{
					"inputs": [],
					"name": "winningProposal",
					"outputs": [
						{
							"internalType": "uint256",
							"name": "winningProposal_",
							"type": "uint256"
						}
					],
					"stateMutability": "view",
					"type": "function"
				}
			],
			"devdoc": {
				"kind": "dev",
				"methods": {},
				"version": 1
			},
			"evm": {
				"assembly": "    /* \"contracts/Ballot.sol\":58:2755  contract Ballot{... */\n  mstore(0x40, 0x80)\n    /* \"contracts/Ballot.sol\":469:801  constructor(bytes[] memory proposalNames){... */\n  callvalue\n  dup1\n  iszero\n  tag_1\n  jumpi\n  0x00\n  dup1\n  revert\ntag_1:\n  pop\n  mload(0x40)\n  sub(codesize, bytecodeSize)\n  dup1\n  bytecodeSize\n  dup4\n  codecopy\n  dup2\n  dup2\n  add\n  0x40\n  mstore\n  dup2\n  add\n  swap1\n  tag_2\n  swap2\n  swap1\n  tag_3\n  jump\t// in\ntag_2:\n    /* \"contracts/Ballot.sol\":534:544  msg.sender */\n  caller\n    /* \"contracts/Ballot.sol\":520:531  chainPerson */\n  0x00\n  dup1\n    /* \"contracts/Ballot.sol\":520:544  chainPerson = msg.sender */\n  0x0100\n  exp\n  dup2\n  sload\n  dup2\n  0xffffffffffffffffffffffffffffffffffffffff\n  mul\n  not\n  and\n  swap1\n  dup4\n  0xffffffffffffffffffffffffffffffffffffffff\n  and\n  mul\n  or\n  swap1\n  sstore\n  pop\n    /* \"contracts/Ballot.sol\":583:584  1 */\n  0x01\n    /* \"contracts/Ballot.sol\":554:560  voters */\n  dup1\n    /* \"contracts/Ballot.sol\":554:573  voters[chainPerson] */\n  0x00\n    /* \"contracts/Ballot.sol\":561:572  chainPerson */\n  dup1\n  0x00\n  swap1\n  sload\n  swap1\n  0x0100\n  exp\n  swap1\n  div\n  0xffffffffffffffffffffffffffffffffffffffff\n  and\n    /* \"contracts/Ballot.sol\":554:573  voters[chainPerson] */\n  0xffffffffffffffffffffffffffffffffffffffff\n  and\n  0xffffffffffffffffffffffffffffffffffffffff\n  and\n  dup2\n  mstore\n  0x20\n  add\n  swap1\n  dup2\n  mstore\n  0x20\n  add\n  0x00\n  keccak256\n    /* \"contracts/Ballot.sol\":554:580  voters[chainPerson].weight */\n  0x00\n  add\n    /* \"contracts/Ballot.sol\":554:584  voters[chainPerson].weight = 1 */\n  dup2\n  swap1\n  sstore\n  pop\n    /* \"contracts/Ballot.sol\":598:604  uint i */\n  0x00\n    /* \"contracts/Ballot.sol\":594:785  for(uint i = 0; i < proposalNames.length; i++){... */\ntag_6:\n    /* \"contracts/Ballot.sol\":614:627  proposalNames */\n  dup2\n    /* \"contracts/Ballot.sol\":614:634  proposalNames.length */\n  mload\n    /* \"contracts/Ballot.sol\":610:611  i */\n  dup2\n    /* \"contracts/Ballot.sol\":610:634  i < proposalNames.length */\n  lt\n    /* \"contracts/Ballot.sol\":594:785  for(uint i = 0; i < proposalNames.length; i++){... */\n  iszero\n  tag_7\n  jumpi\n    /* \"contracts/Ballot.sol\":654:663  proposals */\n  0x02\n    /* \"contracts/Ballot.sol\":669:772  Proposal({... */\n  mload(0x40)\n  dup1\n  0x40\n  add\n  0x40\n  mstore\n  dup1\n    /* \"contracts/Ballot.sol\":710:723  proposalNames */\n  dup5\n    /* \"contracts/Ballot.sol\":724:725  i */\n  dup5\n    /* \"contracts/Ballot.sol\":710:726  proposalNames[i] */\n  dup2\n  mload\n  dup2\n  lt\n  tag_9\n  jumpi\n  tag_10\n  tag_11\n  jump\t// in\ntag_10:\ntag_9:\n  0x20\n  mul\n  0x20\n  add\n  add\n  mload\n    /* \"contracts/Ballot.sol\":702:727  bytes32(proposalNames[i]) */\n  tag_12\n  swap1\n  tag_13\n  jump\t// in\ntag_12:\n    /* \"contracts/Ballot.sol\":669:772  Proposal({... */\n  dup2\n  mstore\n  0x20\n  add\n    /* \"contracts/Ballot.sol\":756:757  0 */\n  0x00\n    /* \"contracts/Ballot.sol\":669:772  Proposal({... */\n  dup2\n  mstore\n  pop\n    /* \"contracts/Ballot.sol\":654:773  proposals.push(Proposal({... */\n  swap1\n  dup1\n  0x01\n  dup2\n  sload\n  add\n  dup1\n  dup3\n  sstore\n  dup1\n  swap2\n  pop\n  pop\n  0x01\n  swap1\n  sub\n  swap1\n  0x00\n  mstore\n  keccak256(0x00, 0x20)\n  swap1\n  0x02\n  mul\n  add\n  0x00\n  swap1\n  swap2\n  swap1\n  swap2\n  swap1\n  swap2\n  pop\n  0x00\n  dup3\n  add\n  mload\n  dup2\n  0x00\n  add\n  sstore\n  0x20\n  dup3\n  add\n  mload\n  dup2\n  0x01\n  add\n  sstore\n  pop\n  pop\n    /* \"contracts/Ballot.sol\":636:639  i++ */\n  dup1\n  dup1\n  0x01\n  add\n  swap2\n  pop\n  pop\n    /* \"contracts/Ballot.sol\":594:785  for(uint i = 0; i < proposalNames.length; i++){... */\n  jump(tag_6)\ntag_7:\n  pop\n    /* \"contracts/Ballot.sol\":469:801  constructor(bytes[] memory proposalNames){... */\n  pop\n    /* \"contracts/Ballot.sol\":58:2755  contract Ballot{... */\n  jump(tag_15)\n    /* \"#utility.yul\":7:82   */\ntag_16:\n    /* \"#utility.yul\":40:46   */\n  0x00\n    /* \"#utility.yul\":73:75   */\n  0x40\n    /* \"#utility.yul\":67:76   */\n  mload\n    /* \"#utility.yul\":57:76   */\n  swap1\n  pop\n    /* \"#utility.yul\":7:82   */\n  swap1\n  jump\t// out\n    /* \"#utility.yul\":88:205   */\ntag_17:\n    /* \"#utility.yul\":197:198   */\n  0x00\n    /* \"#utility.yul\":194:195   */\n  dup1\n    /* \"#utility.yul\":187:199   */\n  revert\n    /* \"#utility.yul\":211:328   */\ntag_18:\n    /* \"#utility.yul\":320:321   */\n  0x00\n    /* \"#utility.yul\":317:318   */\n  dup1\n    /* \"#utility.yul\":310:322   */\n  revert\n    /* \"#utility.yul\":334:451   */\ntag_19:\n    /* \"#utility.yul\":443:444   */\n  0x00\n    /* \"#utility.yul\":440:441   */\n  dup1\n    /* \"#utility.yul\":433:445   */\n  revert\n    /* \"#utility.yul\":457:559   */\ntag_20:\n    /* \"#utility.yul\":498:504   */\n  0x00\n    /* \"#utility.yul\":549:551   */\n  0x1f\n    /* \"#utility.yul\":545:552   */\n  not\n    /* \"#utility.yul\":540:542   */\n  0x1f\n    /* \"#utility.yul\":533:538   */\n  dup4\n    /* \"#utility.yul\":529:543   */\n  add\n    /* \"#utility.yul\":525:553   */\n  and\n    /* \"#utility.yul\":515:553   */\n  swap1\n  pop\n    /* \"#utility.yul\":457:559   */\n  swap2\n  swap1\n  pop\n  jump\t// out\n    /* \"#utility.yul\":565:745   */\ntag_21:\n    /* \"#utility.yul\":613:690   */\n  0x4e487b7100000000000000000000000000000000000000000000000000000000\n    /* \"#utility.yul\":610:611   */\n  0x00\n    /* \"#utility.yul\":603:691   */\n  mstore\n    /* \"#utility.yul\":710:714   */\n  0x41\n    /* \"#utility.yul\":707:708   */\n  0x04\n    /* \"#utility.yul\":700:715   */\n  mstore\n    /* \"#utility.yul\":734:738   */\n  0x24\n    /* \"#utility.yul\":731:732   */\n  0x00\n    /* \"#utility.yul\":724:739   */\n  revert\n    /* \"#utility.yul\":751:1032   */\ntag_22:\n    /* \"#utility.yul\":834:861   */\n  tag_46\n    /* \"#utility.yul\":856:860   */\n  dup3\n    /* \"#utility.yul\":834:861   */\n  tag_20\n  jump\t// in\ntag_46:\n    /* \"#utility.yul\":826:832   */\n  dup2\n    /* \"#utility.yul\":822:862   */\n  add\n    /* \"#utility.yul\":964:970   */\n  dup2\n    /* \"#utility.yul\":952:962   */\n  dup2\n    /* \"#utility.yul\":949:971   */\n  lt\n    /* \"#utility.yul\":928:946   */\n  0xffffffffffffffff\n    /* \"#utility.yul\":916:926   */\n  dup3\n    /* \"#utility.yul\":913:947   */\n  gt\n    /* \"#utility.yul\":910:972   */\n  or\n    /* \"#utility.yul\":907:995   */\n  iszero\n  tag_47\n  jumpi\n    /* \"#utility.yul\":975:993   */\n  tag_48\n  tag_21\n  jump\t// in\ntag_48:\n    /* \"#utility.yul\":907:995   */\ntag_47:\n    /* \"#utility.yul\":1015:1025   */\n  dup1\n    /* \"#utility.yul\":1011:1013   */\n  0x40\n    /* \"#utility.yul\":1004:1026   */\n  mstore\n    /* \"#utility.yul\":794:1032   */\n  pop\n    /* \"#utility.yul\":751:1032   */\n  pop\n  pop\n  jump\t// out\n    /* \"#utility.yul\":1038:1167   */\ntag_23:\n    /* \"#utility.yul\":1072:1078   */\n  0x00\n    /* \"#utility.yul\":1099:1119   */\n  tag_50\n  tag_16\n  jump\t// in\ntag_50:\n    /* \"#utility.yul\":1089:1119   */\n  swap1\n  pop\n    /* \"#utility.yul\":1128:1161   */\n  tag_51\n    /* \"#utility.yul\":1156:1160   */\n  dup3\n    /* \"#utility.yul\":1148:1154   */\n  dup3\n    /* \"#utility.yul\":1128:1161   */\n  tag_22\n  jump\t// in\ntag_51:\n    /* \"#utility.yul\":1038:1167   */\n  swap2\n  swap1\n  pop\n  jump\t// out\n    /* \"#utility.yul\":1173:1493   */\ntag_24:\n    /* \"#utility.yul\":1259:1263   */\n  0x00\n    /* \"#utility.yul\":1349:1367   */\n  0xffffffffffffffff\n    /* \"#utility.yul\":1341:1347   */\n  dup3\n    /* \"#utility.yul\":1338:1368   */\n  gt\n    /* \"#utility.yul\":1335:1391   */\n  iszero\n  tag_53\n  jumpi\n    /* \"#utility.yul\":1371:1389   */\n  tag_54\n  tag_21\n  jump\t// in\ntag_54:\n    /* \"#utility.yul\":1335:1391   */\ntag_53:\n    /* \"#utility.yul\":1421:1425   */\n  0x20\n    /* \"#utility.yul\":1413:1419   */\n  dup3\n    /* \"#utility.yul\":1409:1426   */\n  mul\n    /* \"#utility.yul\":1401:1426   */\n  swap1\n  pop\n    /* \"#utility.yul\":1481:1485   */\n  0x20\n    /* \"#utility.yul\":1475:1479   */\n  dup2\n    /* \"#utility.yul\":1471:1486   */\n  add\n    /* \"#utility.yul\":1463:1486   */\n  swap1\n  pop\n    /* \"#utility.yul\":1173:1493   */\n  swap2\n  swap1\n  pop\n  jump\t// out\n    /* \"#utility.yul\":1499:1616   */\ntag_25:\n    /* \"#utility.yul\":1608:1609   */\n  0x00\n    /* \"#utility.yul\":1605:1606   */\n  dup1\n    /* \"#utility.yul\":1598:1610   */\n  revert\n    /* \"#utility.yul\":1622:1739   */\ntag_26:\n    /* \"#utility.yul\":1731:1732   */\n  0x00\n    /* \"#utility.yul\":1728:1729   */\n  dup1\n    /* \"#utility.yul\":1721:1733   */\n  revert\n    /* \"#utility.yul\":1745:2052   */\ntag_27:\n    /* \"#utility.yul\":1806:1810   */\n  0x00\n    /* \"#utility.yul\":1896:1914   */\n  0xffffffffffffffff\n    /* \"#utility.yul\":1888:1894   */\n  dup3\n    /* \"#utility.yul\":1885:1915   */\n  gt\n    /* \"#utility.yul\":1882:1938   */\n  iszero\n  tag_58\n  jumpi\n    /* \"#utility.yul\":1918:1936   */\n  tag_59\n  tag_21\n  jump\t// in\ntag_59:\n    /* \"#utility.yul\":1882:1938   */\ntag_58:\n    /* \"#utility.yul\":1956:1985   */\n  tag_60\n    /* \"#utility.yul\":1978:1984   */\n  dup3\n    /* \"#utility.yul\":1956:1985   */\n  tag_20\n  jump\t// in\ntag_60:\n    /* \"#utility.yul\":1948:1985   */\n  swap1\n  pop\n    /* \"#utility.yul\":2040:2044   */\n  0x20\n    /* \"#utility.yul\":2034:2038   */\n  dup2\n    /* \"#utility.yul\":2030:2045   */\n  add\n    /* \"#utility.yul\":2022:2045   */\n  swap1\n  pop\n    /* \"#utility.yul\":1745:2052   */\n  swap2\n  swap1\n  pop\n  jump\t// out\n    /* \"#utility.yul\":2058:2197   */\ntag_28:\n    /* \"#utility.yul\":2147:2153   */\n  dup3\n    /* \"#utility.yul\":2142:2145   */\n  dup2\n    /* \"#utility.yul\":2137:2140   */\n  dup4\n    /* \"#utility.yul\":2131:2154   */\n  mcopy\n    /* \"#utility.yul\":2188:2189   */\n  0x00\n    /* \"#utility.yul\":2179:2185   */\n  dup4\n    /* \"#utility.yul\":2174:2177   */\n  dup4\n    /* \"#utility.yul\":2170:2186   */\n  add\n    /* \"#utility.yul\":2163:2190   */\n  mstore\n    /* \"#utility.yul\":2058:2197   */\n  pop\n  pop\n  pop\n  jump\t// out\n    /* \"#utility.yul\":2203:2635   */\ntag_29:\n    /* \"#utility.yul\":2291:2296   */\n  0x00\n    /* \"#utility.yul\":2316:2381   */\n  tag_63\n    /* \"#utility.yul\":2332:2380   */\n  tag_64\n    /* \"#utility.yul\":2373:2379   */\n  dup5\n    /* \"#utility.yul\":2332:2380   */\n  tag_27\n  jump\t// in\ntag_64:\n    /* \"#utility.yul\":2316:2381   */\n  tag_23\n  jump\t// in\ntag_63:\n    /* \"#utility.yul\":2307:2381   */\n  swap1\n  pop\n    /* \"#utility.yul\":2404:2410   */\n  dup3\n    /* \"#utility.yul\":2397:2402   */\n  dup2\n    /* \"#utility.yul\":2390:2411   */\n  mstore\n    /* \"#utility.yul\":2442:2446   */\n  0x20\n    /* \"#utility.yul\":2435:2440   */\n  dup2\n    /* \"#utility.yul\":2431:2447   */\n  add\n    /* \"#utility.yul\":2480:2483   */\n  dup5\n    /* \"#utility.yul\":2471:2477   */\n  dup5\n    /* \"#utility.yul\":2466:2469   */\n  dup5\n    /* \"#utility.yul\":2462:2478   */\n  add\n    /* \"#utility.yul\":2459:2484   */\n  gt\n    /* \"#utility.yul\":2456:2568   */\n  iszero\n  tag_65\n  jumpi\n    /* \"#utility.yul\":2487:2566   */\n  tag_66\n  tag_26\n  jump\t// in\ntag_66:\n    /* \"#utility.yul\":2456:2568   */\ntag_65:\n    /* \"#utility.yul\":2577:2629   */\n  tag_67\n    /* \"#utility.yul\":2622:2628   */\n  dup5\n    /* \"#utility.yul\":2617:2620   */\n  dup3\n    /* \"#utility.yul\":2612:2615   */\n  dup6\n    /* \"#utility.yul\":2577:2629   */\n  tag_28\n  jump\t// in\ntag_67:\n    /* \"#utility.yul\":2297:2635   */\n  pop\n    /* \"#utility.yul\":2203:2635   */\n  swap4\n  swap3\n  pop\n  pop\n  pop\n  jump\t// out\n    /* \"#utility.yul\":2654:3007   */\ntag_30:\n    /* \"#utility.yul\":2720:2725   */\n  0x00\n    /* \"#utility.yul\":2769:2772   */\n  dup3\n    /* \"#utility.yul\":2762:2766   */\n  0x1f\n    /* \"#utility.yul\":2754:2760   */\n  dup4\n    /* \"#utility.yul\":2750:2767   */\n  add\n    /* \"#utility.yul\":2746:2773   */\n  slt\n    /* \"#utility.yul\":2736:2858   */\n  tag_69\n  jumpi\n    /* \"#utility.yul\":2777:2856   */\n  tag_70\n  tag_19\n  jump\t// in\ntag_70:\n    /* \"#utility.yul\":2736:2858   */\ntag_69:\n    /* \"#utility.yul\":2887:2893   */\n  dup2\n    /* \"#utility.yul\":2881:2894   */\n  mload\n    /* \"#utility.yul\":2912:3001   */\n  tag_71\n    /* \"#utility.yul\":2997:3000   */\n  dup5\n    /* \"#utility.yul\":2989:2995   */\n  dup3\n    /* \"#utility.yul\":2982:2986   */\n  0x20\n    /* \"#utility.yul\":2974:2980   */\n  dup7\n    /* \"#utility.yul\":2970:2987   */\n  add\n    /* \"#utility.yul\":2912:3001   */\n  tag_29\n  jump\t// in\ntag_71:\n    /* \"#utility.yul\":2903:3001   */\n  swap2\n  pop\n    /* \"#utility.yul\":2726:3007   */\n  pop\n    /* \"#utility.yul\":2654:3007   */\n  swap3\n  swap2\n  pop\n  pop\n  jump\t// out\n    /* \"#utility.yul\":3028:3985   */\ntag_31:\n    /* \"#utility.yul\":3144:3149   */\n  0x00\n    /* \"#utility.yul\":3169:3259   */\n  tag_73\n    /* \"#utility.yul\":3185:3258   */\n  tag_74\n    /* \"#utility.yul\":3251:3257   */\n  dup5\n    /* \"#utility.yul\":3185:3258   */\n  tag_24\n  jump\t// in\ntag_74:\n    /* \"#utility.yul\":3169:3259   */\n  tag_23\n  jump\t// in\ntag_73:\n    /* \"#utility.yul\":3160:3259   */\n  swap1\n  pop\n    /* \"#utility.yul\":3279:3284   */\n  dup1\n    /* \"#utility.yul\":3308:3314   */\n  dup4\n    /* \"#utility.yul\":3301:3306   */\n  dup3\n    /* \"#utility.yul\":3294:3315   */\n  mstore\n    /* \"#utility.yul\":3342:3346   */\n  0x20\n    /* \"#utility.yul\":3335:3340   */\n  dup3\n    /* \"#utility.yul\":3331:3347   */\n  add\n    /* \"#utility.yul\":3324:3347   */\n  swap1\n  pop\n    /* \"#utility.yul\":3395:3399   */\n  0x20\n    /* \"#utility.yul\":3387:3393   */\n  dup5\n    /* \"#utility.yul\":3383:3400   */\n  mul\n    /* \"#utility.yul\":3375:3381   */\n  dup4\n    /* \"#utility.yul\":3371:3401   */\n  add\n    /* \"#utility.yul\":3424:3427   */\n  dup6\n    /* \"#utility.yul\":3416:3422   */\n  dup2\n    /* \"#utility.yul\":3413:3428   */\n  gt\n    /* \"#utility.yul\":3410:3532   */\n  iszero\n  tag_75\n  jumpi\n    /* \"#utility.yul\":3443:3522   */\n  tag_76\n  tag_25\n  jump\t// in\ntag_76:\n    /* \"#utility.yul\":3410:3532   */\ntag_75:\n    /* \"#utility.yul\":3558:3564   */\n  dup4\n    /* \"#utility.yul\":3541:3979   */\ntag_77:\n    /* \"#utility.yul\":3575:3581   */\n  dup2\n    /* \"#utility.yul\":3570:3573   */\n  dup2\n    /* \"#utility.yul\":3567:3582   */\n  lt\n    /* \"#utility.yul\":3541:3979   */\n  iszero\n  tag_79\n  jumpi\n    /* \"#utility.yul\":3657:3660   */\n  dup1\n    /* \"#utility.yul\":3651:3661   */\n  mload\n    /* \"#utility.yul\":3693:3711   */\n  0xffffffffffffffff\n    /* \"#utility.yul\":3680:3691   */\n  dup2\n    /* \"#utility.yul\":3677:3712   */\n  gt\n    /* \"#utility.yul\":3674:3796   */\n  iszero\n  tag_80\n  jumpi\n    /* \"#utility.yul\":3715:3794   */\n  tag_81\n  tag_19\n  jump\t// in\ntag_81:\n    /* \"#utility.yul\":3674:3796   */\ntag_80:\n    /* \"#utility.yul\":3839:3850   */\n  dup1\n    /* \"#utility.yul\":3831:3837   */\n  dup7\n    /* \"#utility.yul\":3827:3851   */\n  add\n    /* \"#utility.yul\":3877:3934   */\n  tag_82\n    /* \"#utility.yul\":3930:3933   */\n  dup10\n    /* \"#utility.yul\":3918:3928   */\n  dup3\n    /* \"#utility.yul\":3877:3934   */\n  tag_30\n  jump\t// in\ntag_82:\n    /* \"#utility.yul\":3872:3875   */\n  dup6\n    /* \"#utility.yul\":3865:3935   */\n  mstore\n    /* \"#utility.yul\":3964:3968   */\n  0x20\n    /* \"#utility.yul\":3959:3962   */\n  dup6\n    /* \"#utility.yul\":3955:3969   */\n  add\n    /* \"#utility.yul\":3948:3969   */\n  swap5\n  pop\n    /* \"#utility.yul\":3617:3979   */\n  pop\n  pop\n    /* \"#utility.yul\":3601:3605   */\n  0x20\n    /* \"#utility.yul\":3596:3599   */\n  dup2\n    /* \"#utility.yul\":3592:3606   */\n  add\n    /* \"#utility.yul\":3585:3606   */\n  swap1\n  pop\n    /* \"#utility.yul\":3541:3979   */\n  jump(tag_77)\ntag_79:\n    /* \"#utility.yul\":3545:3566   */\n  pop\n    /* \"#utility.yul\":3150:3985   */\n  pop\n  pop\n    /* \"#utility.yul\":3028:3985   */\n  swap4\n  swap3\n  pop\n  pop\n  pop\n  jump\t// out\n    /* \"#utility.yul\":4006:4409   */\ntag_32:\n    /* \"#utility.yul\":4097:4102   */\n  0x00\n    /* \"#utility.yul\":4146:4149   */\n  dup3\n    /* \"#utility.yul\":4139:4143   */\n  0x1f\n    /* \"#utility.yul\":4131:4137   */\n  dup4\n    /* \"#utility.yul\":4127:4144   */\n  add\n    /* \"#utility.yul\":4123:4150   */\n  slt\n    /* \"#utility.yul\":4113:4235   */\n  tag_84\n  jumpi\n    /* \"#utility.yul\":4154:4233   */\n  tag_85\n  tag_19\n  jump\t// in\ntag_85:\n    /* \"#utility.yul\":4113:4235   */\ntag_84:\n    /* \"#utility.yul\":4264:4270   */\n  dup2\n    /* \"#utility.yul\":4258:4271   */\n  mload\n    /* \"#utility.yul\":4289:4403   */\n  tag_86\n    /* \"#utility.yul\":4399:4402   */\n  dup5\n    /* \"#utility.yul\":4391:4397   */\n  dup3\n    /* \"#utility.yul\":4384:4388   */\n  0x20\n    /* \"#utility.yul\":4376:4382   */\n  dup7\n    /* \"#utility.yul\":4372:4389   */\n  add\n    /* \"#utility.yul\":4289:4403   */\n  tag_31\n  jump\t// in\ntag_86:\n    /* \"#utility.yul\":4280:4403   */\n  swap2\n  pop\n    /* \"#utility.yul\":4103:4409   */\n  pop\n    /* \"#utility.yul\":4006:4409   */\n  swap3\n  swap2\n  pop\n  pop\n  jump\t// out\n    /* \"#utility.yul\":4415:4987   */\ntag_3:\n    /* \"#utility.yul\":4519:4525   */\n  0x00\n    /* \"#utility.yul\":4568:4570   */\n  0x20\n    /* \"#utility.yul\":4556:4565   */\n  dup3\n    /* \"#utility.yul\":4547:4554   */\n  dup5\n    /* \"#utility.yul\":4543:4566   */\n  sub\n    /* \"#utility.yul\":4539:4571   */\n  slt\n    /* \"#utility.yul\":4536:4655   */\n  iszero\n  tag_88\n  jumpi\n    /* \"#utility.yul\":4574:4653   */\n  tag_89\n  tag_17\n  jump\t// in\ntag_89:\n    /* \"#utility.yul\":4536:4655   */\ntag_88:\n    /* \"#utility.yul\":4715:4716   */\n  0x00\n    /* \"#utility.yul\":4704:4713   */\n  dup3\n    /* \"#utility.yul\":4700:4717   */\n  add\n    /* \"#utility.yul\":4694:4718   */\n  mload\n    /* \"#utility.yul\":4745:4763   */\n  0xffffffffffffffff\n    /* \"#utility.yul\":4737:4743   */\n  dup2\n    /* \"#utility.yul\":4734:4764   */\n  gt\n    /* \"#utility.yul\":4731:4848   */\n  iszero\n  tag_90\n  jumpi\n    /* \"#utility.yul\":4767:4846   */\n  tag_91\n  tag_18\n  jump\t// in\ntag_91:\n    /* \"#utility.yul\":4731:4848   */\ntag_90:\n    /* \"#utility.yul\":4872:4970   */\n  tag_92\n    /* \"#utility.yul\":4962:4969   */\n  dup5\n    /* \"#utility.yul\":4953:4959   */\n  dup3\n    /* \"#utility.yul\":4942:4951   */\n  dup6\n    /* \"#utility.yul\":4938:4960   */\n  add\n    /* \"#utility.yul\":4872:4970   */\n  tag_32\n  jump\t// in\ntag_92:\n    /* \"#utility.yul\":4862:4970   */\n  swap2\n  pop\n    /* \"#utility.yul\":4665:4980   */\n  pop\n    /* \"#utility.yul\":4415:4987   */\n  swap3\n  swap2\n  pop\n  pop\n  jump\t// out\n    /* \"#utility.yul\":4993:5173   */\ntag_11:\n    /* \"#utility.yul\":5041:5118   */\n  0x4e487b7100000000000000000000000000000000000000000000000000000000\n    /* \"#utility.yul\":5038:5039   */\n  0x00\n    /* \"#utility.yul\":5031:5119   */\n  mstore\n    /* \"#utility.yul\":5138:5142   */\n  0x32\n    /* \"#utility.yul\":5135:5136   */\n  0x04\n    /* \"#utility.yul\":5128:5143   */\n  mstore\n    /* \"#utility.yul\":5162:5166   */\n  0x24\n    /* \"#utility.yul\":5159:5160   */\n  0x00\n    /* \"#utility.yul\":5152:5167   */\n  revert\n    /* \"#utility.yul\":5179:5277   */\ntag_33:\n    /* \"#utility.yul\":5230:5236   */\n  0x00\n    /* \"#utility.yul\":5264:5269   */\n  dup2\n    /* \"#utility.yul\":5258:5270   */\n  mload\n    /* \"#utility.yul\":5248:5270   */\n  swap1\n  pop\n    /* \"#utility.yul\":5179:5277   */\n  swap2\n  swap1\n  pop\n  jump\t// out\n    /* \"#utility.yul\":5283:5399   */\ntag_34:\n    /* \"#utility.yul\":5334:5338   */\n  0x00\n    /* \"#utility.yul\":5357:5360   */\n  dup2\n    /* \"#utility.yul\":5349:5360   */\n  swap1\n  pop\n    /* \"#utility.yul\":5387:5391   */\n  0x20\n    /* \"#utility.yul\":5382:5385   */\n  dup3\n    /* \"#utility.yul\":5378:5392   */\n  add\n    /* \"#utility.yul\":5370:5392   */\n  swap1\n  pop\n    /* \"#utility.yul\":5283:5399   */\n  swap2\n  swap1\n  pop\n  jump\t// out\n    /* \"#utility.yul\":5405:5482   */\ntag_35:\n    /* \"#utility.yul\":5442:5449   */\n  0x00\n    /* \"#utility.yul\":5471:5476   */\n  dup2\n    /* \"#utility.yul\":5460:5476   */\n  swap1\n  pop\n    /* \"#utility.yul\":5405:5482   */\n  swap2\n  swap1\n  pop\n  jump\t// out\n    /* \"#utility.yul\":5488:5642   */\ntag_36:\n    /* \"#utility.yul\":5531:5542   */\n  0x00\n    /* \"#utility.yul\":5567:5596   */\n  tag_98\n    /* \"#utility.yul\":5591:5594   */\n  dup3\n    /* \"#utility.yul\":5585:5595   */\n  mload\n    /* \"#utility.yul\":5567:5596   */\n  tag_35\n  jump\t// in\ntag_98:\n    /* \"#utility.yul\":5630:5635   */\n  dup1\n    /* \"#utility.yul\":5606:5635   */\n  swap2\n  pop\n    /* \"#utility.yul\":5543:5642   */\n  pop\n    /* \"#utility.yul\":5488:5642   */\n  swap2\n  swap1\n  pop\n  jump\t// out\n    /* \"#utility.yul\":5648:5755   */\ntag_37:\n    /* \"#utility.yul\":5692:5700   */\n  0x00\n    /* \"#utility.yul\":5742:5747   */\n  dup3\n    /* \"#utility.yul\":5736:5740   */\n  dup3\n    /* \"#utility.yul\":5732:5748   */\n  shl\n    /* \"#utility.yul\":5711:5748   */\n  swap1\n  pop\n    /* \"#utility.yul\":5648:5755   */\n  swap3\n  swap2\n  pop\n  pop\n  jump\t// out\n    /* \"#utility.yul\":5761:6355   */\ntag_13:\n    /* \"#utility.yul\":5845:5850   */\n  0x00\n    /* \"#utility.yul\":5876:5914   */\n  tag_101\n    /* \"#utility.yul\":5908:5913   */\n  dup3\n    /* \"#utility.yul\":5876:5914   */\n  tag_33\n  jump\t// in\ntag_101:\n    /* \"#utility.yul\":5939:5944   */\n  dup3\n    /* \"#utility.yul\":5966:6006   */\n  tag_102\n    /* \"#utility.yul\":6000:6005   */\n  dup5\n    /* \"#utility.yul\":5966:6006   */\n  tag_34\n  jump\t// in\ntag_102:\n    /* \"#utility.yul\":5954:6006   */\n  swap1\n  pop\n    /* \"#utility.yul\":6025:6060   */\n  tag_103\n    /* \"#utility.yul\":6051:6059   */\n  dup2\n    /* \"#utility.yul\":6025:6060   */\n  tag_36\n  jump\t// in\ntag_103:\n    /* \"#utility.yul\":6016:6060   */\n  swap3\n  pop\n    /* \"#utility.yul\":6084:6086   */\n  0x20\n    /* \"#utility.yul\":6076:6082   */\n  dup3\n    /* \"#utility.yul\":6073:6087   */\n  lt\n    /* \"#utility.yul\":6070:6348   */\n  iszero\n  tag_104\n  jumpi\n    /* \"#utility.yul\":6155:6324   */\n  tag_105\n    /* \"#utility.yul\":6240:6306   */\n  0xffffffffffffffffffffffffffffffffffffffffffffffffffffffffffffffff\n    /* \"#utility.yul\":6210:6216   */\n  dup4\n    /* \"#utility.yul\":6206:6208   */\n  0x20\n    /* \"#utility.yul\":6202:6217   */\n  sub\n    /* \"#utility.yul\":6199:6200   */\n  0x08\n    /* \"#utility.yul\":6195:6218   */\n  mul\n    /* \"#utility.yul\":6155:6324   */\n  tag_37\n  jump\t// in\ntag_105:\n    /* \"#utility.yul\":6132:6137   */\n  dup4\n    /* \"#utility.yul\":6111:6338   */\n  and\n    /* \"#utility.yul\":6102:6338   */\n  swap3\n  pop\n    /* \"#utility.yul\":6070:6348   */\ntag_104:\n    /* \"#utility.yul\":5851:6355   */\n  pop\n  pop\n    /* \"#utility.yul\":5761:6355   */\n  swap2\n  swap1\n  pop\n  jump\t// out\n    /* \"contracts/Ballot.sol\":58:2755  contract Ballot{... */\ntag_15:\n  dataSize(sub_0)\n  dup1\n  dataOffset(sub_0)\n  0x00\n  codecopy\n  0x00\n  return\nstop\n\nsub_0: assembly {\n        /* \"contracts/Ballot.sol\":58:2755  contract Ballot{... */\n      mstore(0x40, 0x80)\n      callvalue\n      dup1\n      iszero\n      tag_1\n      jumpi\n      0x00\n      dup1\n      revert\n    tag_1:\n      pop\n      jumpi(tag_2, lt(calldatasize, 0x04))\n      shr(0xe0, calldataload(0x00))\n      dup1\n      0x9e7b8d61\n      gt\n      tag_11\n      jumpi\n      dup1\n      0x9e7b8d61\n      eq\n      tag_7\n      jumpi\n      dup1\n      0xa3ec138d\n      eq\n      tag_8\n      jumpi\n      dup1\n      0xd8869461\n      eq\n      tag_9\n      jumpi\n      dup1\n      0xe2ba53f0\n      eq\n      tag_10\n      jumpi\n      jump(tag_2)\n    tag_11:\n      dup1\n      0x0121b93f\n      eq\n      tag_3\n      jumpi\n      dup1\n      0x013cf08b\n      eq\n      tag_4\n      jumpi\n      dup1\n      0x5c19a95c\n      eq\n      tag_5\n      jumpi\n      dup1\n      0x609ff1bd\n      eq\n      tag_6\n      jumpi\n    tag_2:\n      0x00\n      dup1\n      revert\n        /* \"contracts/Ballot.sol\":1969:2290  function vote(uint proposal) external {... */\n    tag_3:\n      tag_12\n      0x04\n      dup1\n      calldatasize\n      sub\n      dup2\n      add\n      swap1\n      tag_13\n      swap2\n      swap1\n      tag_14\n      jump\t// in\n    tag_13:\n      tag_15\n      jump\t// in\n    tag_12:\n      stop\n        /* \"contracts/Ballot.sol\":435:462  Proposal[] public proposals */\n    tag_4:\n      tag_16\n      0x04\n      dup1\n      calldatasize\n      sub\n      dup2\n      add\n      swap1\n      tag_17\n      swap2\n      swap1\n      tag_14\n      jump\t// in\n    tag_17:\n      tag_18\n      jump\t// in\n    tag_16:\n      mload(0x40)\n      tag_19\n      swap3\n      swap2\n      swap1\n      tag_20\n      jump\t// in\n    tag_19:\n      mload(0x40)\n      dup1\n      swap2\n      sub\n      swap1\n      return\n        /* \"contracts/Ballot.sol\":1176:1964  function delegate(address to) external {... */\n    tag_5:\n      tag_21\n      0x04\n      dup1\n      calldatasize\n      sub\n      dup2\n      add\n      swap1\n      tag_22\n      swap2\n      swap1\n      tag_23\n      jump\t// in\n    tag_22:\n      tag_24\n      jump\t// in\n    tag_21:\n      stop\n        /* \"contracts/Ballot.sol\":2295:2614  function winningProposal() public view returns(uint winningProposal_) {... */\n    tag_6:\n      tag_25\n      tag_26\n      jump\t// in\n    tag_25:\n      mload(0x40)\n      tag_27\n      swap2\n      swap1\n      tag_28\n      jump\t// in\n    tag_27:\n      mload(0x40)\n      dup1\n      swap2\n      sub\n      swap1\n      return\n        /* \"contracts/Ballot.sol\":806:1170  function giveRightToVote(address voter) external {... */\n    tag_7:\n      tag_29\n      0x04\n      dup1\n      calldatasize\n      sub\n      dup2\n      add\n      swap1\n      tag_30\n      swap2\n      swap1\n      tag_23\n      jump\t// in\n    tag_30:\n      tag_31\n      jump\t// in\n    tag_29:\n      stop\n        /* \"contracts/Ballot.sol\":390:428  mapping(address => Voter)public voters */\n    tag_8:\n      tag_32\n      0x04\n      dup1\n      calldatasize\n      sub\n      dup2\n      add\n      swap1\n      tag_33\n      swap2\n      swap1\n      tag_23\n      jump\t// in\n    tag_33:\n      tag_34\n      jump\t// in\n    tag_32:\n      mload(0x40)\n      tag_35\n      swap5\n      swap4\n      swap3\n      swap2\n      swap1\n      tag_36\n      jump\t// in\n    tag_35:\n      mload(0x40)\n      dup1\n      swap2\n      sub\n      swap1\n      return\n        /* \"contracts/Ballot.sol\":319:345  address public chainPerson */\n    tag_9:\n      tag_37\n      tag_38\n      jump\t// in\n    tag_37:\n      mload(0x40)\n      tag_39\n      swap2\n      swap1\n      tag_40\n      jump\t// in\n    tag_39:\n      mload(0x40)\n      dup1\n      swap2\n      sub\n      swap1\n      return\n        /* \"contracts/Ballot.sol\":2620:2748  function winnerName() external view returns(bytes32 winnerName_){... */\n    tag_10:\n      tag_41\n      tag_42\n      jump\t// in\n    tag_41:\n      mload(0x40)\n      tag_43\n      swap2\n      swap1\n      tag_44\n      jump\t// in\n    tag_43:\n      mload(0x40)\n      dup1\n      swap2\n      sub\n      swap1\n      return\n        /* \"contracts/Ballot.sol\":1969:2290  function vote(uint proposal) external {... */\n    tag_15:\n        /* \"contracts/Ballot.sol\":2017:2037  Voter storage sender */\n      0x00\n        /* \"contracts/Ballot.sol\":2040:2046  voters */\n      0x01\n        /* \"contracts/Ballot.sol\":2040:2058  voters[msg.sender] */\n      0x00\n        /* \"contracts/Ballot.sol\":2047:2057  msg.sender */\n      caller\n        /* \"contracts/Ballot.sol\":2040:2058  voters[msg.sender] */\n      0xffffffffffffffffffffffffffffffffffffffff\n      and\n      0xffffffffffffffffffffffffffffffffffffffff\n      and\n      dup2\n      mstore\n      0x20\n      add\n      swap1\n      dup2\n      mstore\n      0x20\n      add\n      0x00\n      keccak256\n        /* \"contracts/Ballot.sol\":2017:2058  Voter storage sender = voters[msg.sender] */\n      swap1\n      pop\n        /* \"contracts/Ballot.sol\":2093:2094  0 */\n      0x00\n        /* \"contracts/Ballot.sol\":2076:2082  sender */\n      dup2\n        /* \"contracts/Ballot.sol\":2076:2089  sender.weight */\n      0x00\n      add\n      sload\n        /* \"contracts/Ballot.sol\":2076:2094  sender.weight != 0 */\n      sub\n        /* \"contracts/Ballot.sol\":2068:2111  require(sender.weight != 0,\"you privliage\") */\n      tag_46\n      jumpi\n      mload(0x40)\n      0x08c379a000000000000000000000000000000000000000000000000000000000\n      dup2\n      mstore\n      0x04\n      add\n      tag_47\n      swap1\n      tag_48\n      jump\t// in\n    tag_47:\n      mload(0x40)\n      dup1\n      swap2\n      sub\n      swap1\n      revert\n    tag_46:\n        /* \"contracts/Ballot.sol\":2130:2136  sender */\n      dup1\n        /* \"contracts/Ballot.sol\":2130:2142  sender.voted */\n      0x01\n      add\n      0x00\n      swap1\n      sload\n      swap1\n      0x0100\n      exp\n      swap1\n      div\n      0xff\n      and\n        /* \"contracts/Ballot.sol\":2129:2142  !sender.voted */\n      iszero\n        /* \"contracts/Ballot.sol\":2121:2165  require(!sender.voted,\"you have been voted\") */\n      tag_49\n      jumpi\n      mload(0x40)\n      0x08c379a000000000000000000000000000000000000000000000000000000000\n      dup2\n      mstore\n      0x04\n      add\n      tag_50\n      swap1\n      tag_51\n      jump\t// in\n    tag_50:\n      mload(0x40)\n      dup1\n      swap2\n      sub\n      swap1\n      revert\n    tag_49:\n        /* \"contracts/Ballot.sol\":2190:2194  true */\n      0x01\n        /* \"contracts/Ballot.sol\":2175:2181  sender */\n      dup2\n        /* \"contracts/Ballot.sol\":2175:2187  sender.voted */\n      0x01\n      add\n      0x00\n        /* \"contracts/Ballot.sol\":2175:2194  sender.voted = true */\n      0x0100\n      exp\n      dup2\n      sload\n      dup2\n      0xff\n      mul\n      not\n      and\n      swap1\n      dup4\n      iszero\n      iszero\n      mul\n      or\n      swap1\n      sstore\n      pop\n        /* \"contracts/Ballot.sol\":2218:2226  proposal */\n      dup2\n        /* \"contracts/Ballot.sol\":2204:2210  sender */\n      dup2\n        /* \"contracts/Ballot.sol\":2204:2215  sender.vote */\n      0x02\n      add\n        /* \"contracts/Ballot.sol\":2204:2226  sender.vote = proposal */\n      dup2\n      swap1\n      sstore\n      pop\n        /* \"contracts/Ballot.sol\":2270:2276  sender */\n      dup1\n        /* \"contracts/Ballot.sol\":2270:2283  sender.weight */\n      0x00\n      add\n      sload\n        /* \"contracts/Ballot.sol\":2237:2246  proposals */\n      0x02\n        /* \"contracts/Ballot.sol\":2247:2255  proposal */\n      dup4\n        /* \"contracts/Ballot.sol\":2237:2256  proposals[proposal] */\n      dup2\n      sload\n      dup2\n      lt\n      tag_52\n      jumpi\n      tag_53\n      tag_54\n      jump\t// in\n    tag_53:\n    tag_52:\n      swap1\n      0x00\n      mstore\n      keccak256(0x00, 0x20)\n      swap1\n      0x02\n      mul\n      add\n        /* \"contracts/Ballot.sol\":2237:2266  proposals[proposal].voteCount */\n      0x01\n      add\n      0x00\n        /* \"contracts/Ballot.sol\":2237:2283  proposals[proposal].voteCount += sender.weight */\n      dup3\n      dup3\n      sload\n      tag_56\n      swap2\n      swap1\n      tag_57\n      jump\t// in\n    tag_56:\n      swap3\n      pop\n      pop\n      dup2\n      swap1\n      sstore\n      pop\n        /* \"contracts/Ballot.sol\":2007:2290  {... */\n      pop\n        /* \"contracts/Ballot.sol\":1969:2290  function vote(uint proposal) external {... */\n      pop\n      jump\t// out\n        /* \"contracts/Ballot.sol\":435:462  Proposal[] public proposals */\n    tag_18:\n      0x02\n      dup2\n      dup2\n      sload\n      dup2\n      lt\n      tag_58\n      jumpi\n      0x00\n      dup1\n      revert\n    tag_58:\n      swap1\n      0x00\n      mstore\n      keccak256(0x00, 0x20)\n      swap1\n      0x02\n      mul\n      add\n      0x00\n      swap2\n      pop\n      swap1\n      pop\n      dup1\n      0x00\n      add\n      sload\n      swap1\n      dup1\n      0x01\n      add\n      sload\n      swap1\n      pop\n      dup3\n      jump\t// out\n        /* \"contracts/Ballot.sol\":1176:1964  function delegate(address to) external {... */\n    tag_24:\n        /* \"contracts/Ballot.sol\":1225:1245  Voter storage sender */\n      0x00\n        /* \"contracts/Ballot.sol\":1248:1254  voters */\n      0x01\n        /* \"contracts/Ballot.sol\":1248:1266  voters[msg.sender] */\n      0x00\n        /* \"contracts/Ballot.sol\":1255:1265  msg.sender */\n      caller\n        /* \"contracts/Ballot.sol\":1248:1266  voters[msg.sender] */\n      0xffffffffffffffffffffffffffffffffffffffff\n      and\n      0xffffffffffffffffffffffffffffffffffffffff\n      and\n      dup2\n      mstore\n      0x20\n      add\n      swap1\n      dup2\n      mstore\n      0x20\n      add\n      0x00\n      keccak256\n        /* \"contracts/Ballot.sol\":1225:1266  Voter storage sender = voters[msg.sender] */\n      swap1\n      pop\n        /* \"contracts/Ballot.sol\":1301:1302  0 */\n      0x00\n        /* \"contracts/Ballot.sol\":1284:1290  sender */\n      dup2\n        /* \"contracts/Ballot.sol\":1284:1297  sender.weight */\n      0x00\n      add\n      sload\n        /* \"contracts/Ballot.sol\":1284:1302  sender.weight != 0 */\n      sub\n        /* \"contracts/Ballot.sol\":1276:1326  require(sender.weight != 0, \"you have been voted\") */\n      tag_61\n      jumpi\n      mload(0x40)\n      0x08c379a000000000000000000000000000000000000000000000000000000000\n      dup2\n      mstore\n      0x04\n      add\n      tag_62\n      swap1\n      tag_51\n      jump\t// in\n    tag_62:\n      mload(0x40)\n      dup1\n      swap2\n      sub\n      swap1\n      revert\n    tag_61:\n        /* \"contracts/Ballot.sol\":1345:1351  sender */\n      dup1\n        /* \"contracts/Ballot.sol\":1345:1357  sender.voted */\n      0x01\n      add\n      0x00\n      swap1\n      sload\n      swap1\n      0x0100\n      exp\n      swap1\n      div\n      0xff\n      and\n        /* \"contracts/Ballot.sol\":1344:1357  !sender.voted */\n      iszero\n        /* \"contracts/Ballot.sol\":1336:1380  require(!sender.voted,\"you have been voted\") */\n      tag_63\n      jumpi\n      mload(0x40)\n      0x08c379a000000000000000000000000000000000000000000000000000000000\n      dup2\n      mstore\n      0x04\n      add\n      tag_64\n      swap1\n      tag_51\n      jump\t// in\n    tag_64:\n      mload(0x40)\n      dup1\n      swap2\n      sub\n      swap1\n      revert\n    tag_63:\n        /* \"contracts/Ballot.sol\":1404:1414  msg.sender */\n      caller\n        /* \"contracts/Ballot.sol\":1398:1414  to != msg.sender */\n      0xffffffffffffffffffffffffffffffffffffffff\n      and\n        /* \"contracts/Ballot.sol\":1398:1400  to */\n      dup3\n        /* \"contracts/Ballot.sol\":1398:1414  to != msg.sender */\n      0xffffffffffffffffffffffffffffffffffffffff\n      and\n      sub\n        /* \"contracts/Ballot.sol\":1390:1442  require(to != msg.sender,\"you cannot vote yourself\") */\n      tag_65\n      jumpi\n      mload(0x40)\n      0x08c379a000000000000000000000000000000000000000000000000000000000\n      dup2\n      mstore\n      0x04\n      add\n      tag_66\n      swap1\n      tag_67\n      jump\t// in\n    tag_66:\n      mload(0x40)\n      dup1\n      swap2\n      sub\n      swap1\n      revert\n    tag_65:\n        /* \"contracts/Ballot.sol\":1453:1609  while(voters[to].delegate != address(0)){... */\n    tag_68:\n        /* \"contracts/Ballot.sol\":1490:1491  0 */\n      0x00\n        /* \"contracts/Ballot.sol\":1459:1492  voters[to].delegate != address(0) */\n      0xffffffffffffffffffffffffffffffffffffffff\n      and\n        /* \"contracts/Ballot.sol\":1459:1465  voters */\n      0x01\n        /* \"contracts/Ballot.sol\":1459:1469  voters[to] */\n      0x00\n        /* \"contracts/Ballot.sol\":1466:1468  to */\n      dup5\n        /* \"contracts/Ballot.sol\":1459:1469  voters[to] */\n      0xffffffffffffffffffffffffffffffffffffffff\n      and\n      0xffffffffffffffffffffffffffffffffffffffff\n      and\n      dup2\n      mstore\n      0x20\n      add\n      swap1\n      dup2\n      mstore\n      0x20\n      add\n      0x00\n      keccak256\n        /* \"contracts/Ballot.sol\":1459:1478  voters[to].delegate */\n      0x01\n      add\n      0x01\n      swap1\n      sload\n      swap1\n      0x0100\n      exp\n      swap1\n      div\n      0xffffffffffffffffffffffffffffffffffffffff\n      and\n        /* \"contracts/Ballot.sol\":1459:1492  voters[to].delegate != address(0) */\n      0xffffffffffffffffffffffffffffffffffffffff\n      and\n      eq\n        /* \"contracts/Ballot.sol\":1453:1609  while(voters[to].delegate != address(0)){... */\n      tag_69\n      jumpi\n        /* \"contracts/Ballot.sol\":1512:1518  voters */\n      0x01\n        /* \"contracts/Ballot.sol\":1512:1522  voters[to] */\n      0x00\n        /* \"contracts/Ballot.sol\":1519:1521  to */\n      dup4\n        /* \"contracts/Ballot.sol\":1512:1522  voters[to] */\n      0xffffffffffffffffffffffffffffffffffffffff\n      and\n      0xffffffffffffffffffffffffffffffffffffffff\n      and\n      dup2\n      mstore\n      0x20\n      add\n      swap1\n      dup2\n      mstore\n      0x20\n      add\n      0x00\n      keccak256\n        /* \"contracts/Ballot.sol\":1512:1531  voters[to].delegate */\n      0x01\n      add\n      0x01\n      swap1\n      sload\n      swap1\n      0x0100\n      exp\n      swap1\n      div\n      0xffffffffffffffffffffffffffffffffffffffff\n      and\n        /* \"contracts/Ballot.sol\":1507:1531  to = voters[to].delegate */\n      swap2\n      pop\n        /* \"contracts/Ballot.sol\":1574:1584  msg.sender */\n      caller\n        /* \"contracts/Ballot.sol\":1568:1584  to != msg.sender */\n      0xffffffffffffffffffffffffffffffffffffffff\n      and\n        /* \"contracts/Ballot.sol\":1568:1570  to */\n      dup3\n        /* \"contracts/Ballot.sol\":1568:1584  to != msg.sender */\n      0xffffffffffffffffffffffffffffffffffffffff\n      and\n      sub\n        /* \"contracts/Ballot.sol\":1559:1597  require (to != msg.sender,\"find loop\") */\n      tag_70\n      jumpi\n      mload(0x40)\n      0x08c379a000000000000000000000000000000000000000000000000000000000\n      dup2\n      mstore\n      0x04\n      add\n      tag_71\n      swap1\n      tag_72\n      jump\t// in\n    tag_71:\n      mload(0x40)\n      dup1\n      swap2\n      sub\n      swap1\n      revert\n    tag_70:\n        /* \"contracts/Ballot.sol\":1453:1609  while(voters[to].delegate != address(0)){... */\n      jump(tag_68)\n    tag_69:\n        /* \"contracts/Ballot.sol\":1619:1642  Voter storage delegate_ */\n      0x00\n        /* \"contracts/Ballot.sol\":1646:1652  voters */\n      0x01\n        /* \"contracts/Ballot.sol\":1646:1656  voters[to] */\n      0x00\n        /* \"contracts/Ballot.sol\":1653:1655  to */\n      dup5\n        /* \"contracts/Ballot.sol\":1646:1656  voters[to] */\n      0xffffffffffffffffffffffffffffffffffffffff\n      and\n      0xffffffffffffffffffffffffffffffffffffffff\n      and\n      dup2\n      mstore\n      0x20\n      add\n      swap1\n      dup2\n      mstore\n      0x20\n      add\n      0x00\n      keccak256\n        /* \"contracts/Ballot.sol\":1619:1656  Voter storage delegate_  = voters[to] */\n      swap1\n      pop\n        /* \"contracts/Ballot.sol\":1723:1727  true */\n      0x01\n        /* \"contracts/Ballot.sol\":1706:1727  delegate_.voted==true */\n      iszero\n      iszero\n        /* \"contracts/Ballot.sol\":1706:1715  delegate_ */\n      dup2\n        /* \"contracts/Ballot.sol\":1706:1721  delegate_.voted */\n      0x01\n      add\n      0x00\n      swap1\n      sload\n      swap1\n      0x0100\n      exp\n      swap1\n      div\n      0xff\n      and\n        /* \"contracts/Ballot.sol\":1706:1727  delegate_.voted==true */\n      iszero\n      iszero\n      eq\n        /* \"contracts/Ballot.sol\":1698:1728  require(delegate_.voted==true) */\n      tag_73\n      jumpi\n      0x00\n      dup1\n      revert\n    tag_73:\n        /* \"contracts/Ballot.sol\":1753:1757  true */\n      0x01\n        /* \"contracts/Ballot.sol\":1738:1744  sender */\n      dup3\n        /* \"contracts/Ballot.sol\":1738:1750  sender.voted */\n      0x01\n      add\n      0x00\n        /* \"contracts/Ballot.sol\":1738:1757  sender.voted = true */\n      0x0100\n      exp\n      dup2\n      sload\n      dup2\n      0xff\n      mul\n      not\n      and\n      swap1\n      dup4\n      iszero\n      iszero\n      mul\n      or\n      swap1\n      sstore\n      pop\n        /* \"contracts/Ballot.sol\":1785:1787  to */\n      dup3\n        /* \"contracts/Ballot.sol\":1767:1773  sender */\n      dup3\n        /* \"contracts/Ballot.sol\":1767:1782  sender.delegate */\n      0x01\n      add\n      0x01\n        /* \"contracts/Ballot.sol\":1767:1787  sender.delegate = to */\n      0x0100\n      exp\n      dup2\n      sload\n      dup2\n      0xffffffffffffffffffffffffffffffffffffffff\n      mul\n      not\n      and\n      swap1\n      dup4\n      0xffffffffffffffffffffffffffffffffffffffff\n      and\n      mul\n      or\n      swap1\n      sstore\n      pop\n        /* \"contracts/Ballot.sol\":1802:1811  delegate_ */\n      dup1\n        /* \"contracts/Ballot.sol\":1802:1817  delegate_.voted */\n      0x01\n      add\n      0x00\n      swap1\n      sload\n      swap1\n      0x0100\n      exp\n      swap1\n      div\n      0xff\n      and\n        /* \"contracts/Ballot.sol\":1798:1958  if (delegate_.voted) {... */\n      iszero\n      tag_74\n      jumpi\n        /* \"contracts/Ballot.sol\":1872:1878  sender */\n      dup2\n        /* \"contracts/Ballot.sol\":1872:1885  sender.weight */\n      0x00\n      add\n      sload\n        /* \"contracts/Ballot.sol\":1833:1842  proposals */\n      0x02\n        /* \"contracts/Ballot.sol\":1843:1852  delegate_ */\n      dup3\n        /* \"contracts/Ballot.sol\":1843:1857  delegate_.vote */\n      0x02\n      add\n      sload\n        /* \"contracts/Ballot.sol\":1833:1858  proposals[delegate_.vote] */\n      dup2\n      sload\n      dup2\n      lt\n      tag_75\n      jumpi\n      tag_76\n      tag_54\n      jump\t// in\n    tag_76:\n    tag_75:\n      swap1\n      0x00\n      mstore\n      keccak256(0x00, 0x20)\n      swap1\n      0x02\n      mul\n      add\n        /* \"contracts/Ballot.sol\":1833:1868  proposals[delegate_.vote].voteCount */\n      0x01\n      add\n      0x00\n        /* \"contracts/Ballot.sol\":1833:1885  proposals[delegate_.vote].voteCount += sender.weight */\n      dup3\n      dup3\n      sload\n      tag_78\n      swap2\n      swap1\n      tag_57\n      jump\t// in\n    tag_78:\n      swap3\n      pop\n      pop\n      dup2\n      swap1\n      sstore\n      pop\n        /* \"contracts/Ballot.sol\":1798:1958  if (delegate_.voted) {... */\n      jump(tag_79)\n    tag_74:\n        /* \"contracts/Ballot.sol\":1934:1940  sender */\n      dup2\n        /* \"contracts/Ballot.sol\":1934:1947  sender.weight */\n      0x00\n      add\n      sload\n        /* \"contracts/Ballot.sol\":1914:1923  delegate_ */\n      dup2\n        /* \"contracts/Ballot.sol\":1914:1930  delegate_.weight */\n      0x00\n      add\n      0x00\n        /* \"contracts/Ballot.sol\":1914:1947  delegate_.weight += sender.weight */\n      dup3\n      dup3\n      sload\n      tag_80\n      swap2\n      swap1\n      tag_57\n      jump\t// in\n    tag_80:\n      swap3\n      pop\n      pop\n      dup2\n      swap1\n      sstore\n      pop\n        /* \"contracts/Ballot.sol\":1798:1958  if (delegate_.voted) {... */\n    tag_79:\n        /* \"contracts/Ballot.sol\":1215:1964  {... */\n      pop\n      pop\n        /* \"contracts/Ballot.sol\":1176:1964  function delegate(address to) external {... */\n      pop\n      jump\t// out\n        /* \"contracts/Ballot.sol\":2295:2614  function winningProposal() public view returns(uint winningProposal_) {... */\n    tag_26:\n        /* \"contracts/Ballot.sol\":2342:2363  uint winningProposal_ */\n      0x00\n        /* \"contracts/Ballot.sol\":2374:2395  uint winningVoteCount */\n      dup1\n        /* \"contracts/Ballot.sol\":2398:2399  0 */\n      0x00\n        /* \"contracts/Ballot.sol\":2374:2399  uint winningVoteCount = 0 */\n      swap1\n      pop\n        /* \"contracts/Ballot.sol\":2412:2418  uint p */\n      0x00\n        /* \"contracts/Ballot.sol\":2408:2608  for(uint p = 0;p<proposals.length;p++){... */\n    tag_82:\n        /* \"contracts/Ballot.sol\":2425:2434  proposals */\n      0x02\n        /* \"contracts/Ballot.sol\":2425:2441  proposals.length */\n      dup1\n      sload\n      swap1\n      pop\n        /* \"contracts/Ballot.sol\":2423:2424  p */\n      dup2\n        /* \"contracts/Ballot.sol\":2423:2441  p<proposals.length */\n      lt\n        /* \"contracts/Ballot.sol\":2408:2608  for(uint p = 0;p<proposals.length;p++){... */\n      iszero\n      tag_83\n      jumpi\n        /* \"contracts/Ballot.sol\":2482:2498  winningVoteCount */\n      dup2\n        /* \"contracts/Ballot.sol\":2459:2468  proposals */\n      0x02\n        /* \"contracts/Ballot.sol\":2469:2470  p */\n      dup3\n        /* \"contracts/Ballot.sol\":2459:2471  proposals[p] */\n      dup2\n      sload\n      dup2\n      lt\n      tag_85\n      jumpi\n      tag_86\n      tag_54\n      jump\t// in\n    tag_86:\n    tag_85:\n      swap1\n      0x00\n      mstore\n      keccak256(0x00, 0x20)\n      swap1\n      0x02\n      mul\n      add\n        /* \"contracts/Ballot.sol\":2459:2481  proposals[p].voteCount */\n      0x01\n      add\n      sload\n        /* \"contracts/Ballot.sol\":2459:2498  proposals[p].voteCount>winningVoteCount */\n      gt\n        /* \"contracts/Ballot.sol\":2456:2599  if(proposals[p].voteCount>winningVoteCount){... */\n      iszero\n      tag_88\n      jumpi\n        /* \"contracts/Ballot.sol\":2532:2533  p */\n      dup1\n        /* \"contracts/Ballot.sol\":2513:2533  winningProposal_ = p */\n      swap3\n      pop\n        /* \"contracts/Ballot.sol\":2566:2575  proposals */\n      0x02\n        /* \"contracts/Ballot.sol\":2576:2577  p */\n      dup2\n        /* \"contracts/Ballot.sol\":2566:2578  proposals[p] */\n      dup2\n      sload\n      dup2\n      lt\n      tag_89\n      jumpi\n      tag_90\n      tag_54\n      jump\t// in\n    tag_90:\n    tag_89:\n      swap1\n      0x00\n      mstore\n      keccak256(0x00, 0x20)\n      swap1\n      0x02\n      mul\n      add\n        /* \"contracts/Ballot.sol\":2566:2588  proposals[p].voteCount */\n      0x01\n      add\n      sload\n        /* \"contracts/Ballot.sol\":2547:2588  winningVoteCount = proposals[p].voteCount */\n      swap2\n      pop\n        /* \"contracts/Ballot.sol\":2456:2599  if(proposals[p].voteCount>winningVoteCount){... */\n    tag_88:\n        /* \"contracts/Ballot.sol\":2442:2445  p++ */\n      dup1\n      dup1\n      0x01\n      add\n      swap2\n      pop\n      pop\n        /* \"contracts/Ballot.sol\":2408:2608  for(uint p = 0;p<proposals.length;p++){... */\n      jump(tag_82)\n    tag_83:\n      pop\n        /* \"contracts/Ballot.sol\":2365:2614  {... */\n      pop\n        /* \"contracts/Ballot.sol\":2295:2614  function winningProposal() public view returns(uint winningProposal_) {... */\n      swap1\n      jump\t// out\n        /* \"contracts/Ballot.sol\":806:1170  function giveRightToVote(address voter) external {... */\n    tag_31:\n        /* \"contracts/Ballot.sol\":900:911  chainPerson */\n      0x00\n      dup1\n      sload\n      swap1\n      0x0100\n      exp\n      swap1\n      div\n      0xffffffffffffffffffffffffffffffffffffffff\n      and\n        /* \"contracts/Ballot.sol\":886:911  msg.sender == chainPerson */\n      0xffffffffffffffffffffffffffffffffffffffff\n      and\n        /* \"contracts/Ballot.sol\":886:896  msg.sender */\n      caller\n        /* \"contracts/Ballot.sol\":886:911  msg.sender == chainPerson */\n      0xffffffffffffffffffffffffffffffffffffffff\n      and\n      eq\n        /* \"contracts/Ballot.sol\":865:976  require(... */\n      tag_93\n      jumpi\n      mload(0x40)\n      0x08c379a000000000000000000000000000000000000000000000000000000000\n      dup2\n      mstore\n      0x04\n      add\n      tag_94\n      swap1\n      tag_95\n      jump\t// in\n    tag_94:\n      mload(0x40)\n      dup1\n      swap2\n      sub\n      swap1\n      revert\n    tag_93:\n        /* \"contracts/Ballot.sol\":1014:1015  0 */\n      0x00\n        /* \"contracts/Ballot.sol\":990:996  voters */\n      0x01\n        /* \"contracts/Ballot.sol\":990:1003  voters[voter] */\n      0x00\n        /* \"contracts/Ballot.sol\":997:1002  voter */\n      dup4\n        /* \"contracts/Ballot.sol\":990:1003  voters[voter] */\n      0xffffffffffffffffffffffffffffffffffffffff\n      and\n      0xffffffffffffffffffffffffffffffffffffffff\n      and\n      dup2\n      mstore\n      0x20\n      add\n      swap1\n      dup2\n      mstore\n      0x20\n      add\n      0x00\n      keccak256\n        /* \"contracts/Ballot.sol\":990:1010  voters[voter].weight */\n      0x00\n      add\n      sload\n        /* \"contracts/Ballot.sol\":990:1015  voters[voter].weight != 0 */\n      eq\n      iszero\n        /* \"contracts/Ballot.sol\":990:1039  voters[voter].weight != 0 && !voters[voter].voted */\n      dup1\n      iszero\n      tag_96\n      jumpi\n      pop\n        /* \"contracts/Ballot.sol\":1020:1026  voters */\n      0x01\n        /* \"contracts/Ballot.sol\":1020:1033  voters[voter] */\n      0x00\n        /* \"contracts/Ballot.sol\":1027:1032  voter */\n      dup3\n        /* \"contracts/Ballot.sol\":1020:1033  voters[voter] */\n      0xffffffffffffffffffffffffffffffffffffffff\n      and\n      0xffffffffffffffffffffffffffffffffffffffff\n      and\n      dup2\n      mstore\n      0x20\n      add\n      swap1\n      dup2\n      mstore\n      0x20\n      add\n      0x00\n      keccak256\n        /* \"contracts/Ballot.sol\":1020:1039  voters[voter].voted */\n      0x01\n      add\n      0x00\n      swap1\n      sload\n      swap1\n      0x0100\n      exp\n      swap1\n      div\n      0xff\n      and\n        /* \"contracts/Ballot.sol\":1019:1039  !voters[voter].voted */\n      iszero\n        /* \"contracts/Ballot.sol\":990:1039  voters[voter].weight != 0 && !voters[voter].voted */\n    tag_96:\n        /* \"contracts/Ballot.sol\":986:1099  if (voters[voter].weight != 0 && !voters[voter].voted){... */\n      iszero\n      tag_97\n      jumpi\n        /* \"contracts/Ballot.sol\":1054:1088  revert(\"The voter already voted.\") */\n      mload(0x40)\n      0x08c379a000000000000000000000000000000000000000000000000000000000\n      dup2\n      mstore\n      0x04\n      add\n      tag_98\n      swap1\n      tag_99\n      jump\t// in\n    tag_98:\n      mload(0x40)\n      dup1\n      swap2\n      sub\n      swap1\n      revert\n        /* \"contracts/Ballot.sol\":986:1099  if (voters[voter].weight != 0 && !voters[voter].voted){... */\n    tag_97:\n        /* \"contracts/Ballot.sol\":1135:1136  1 */\n      0x01\n        /* \"contracts/Ballot.sol\":1112:1118  voters */\n      dup1\n        /* \"contracts/Ballot.sol\":1112:1125  voters[voter] */\n      0x00\n        /* \"contracts/Ballot.sol\":1119:1124  voter */\n      dup4\n        /* \"contracts/Ballot.sol\":1112:1125  voters[voter] */\n      0xffffffffffffffffffffffffffffffffffffffff\n      and\n      0xffffffffffffffffffffffffffffffffffffffff\n      and\n      dup2\n      mstore\n      0x20\n      add\n      swap1\n      dup2\n      mstore\n      0x20\n      add\n      0x00\n      keccak256\n        /* \"contracts/Ballot.sol\":1112:1132  voters[voter].weight */\n      0x00\n      add\n        /* \"contracts/Ballot.sol\":1112:1136  voters[voter].weight = 1 */\n      dup2\n      swap1\n      sstore\n      pop\n        /* \"contracts/Ballot.sol\":806:1170  function giveRightToVote(address voter) external {... */\n      pop\n      jump\t// out\n        /* \"contracts/Ballot.sol\":390:428  mapping(address => Voter)public voters */\n    tag_34:\n      mstore(0x20, 0x01)\n      dup1\n      0x00\n      mstore\n      keccak256(0x00, 0x40)\n      0x00\n      swap2\n      pop\n      swap1\n      pop\n      dup1\n      0x00\n      add\n      sload\n      swap1\n      dup1\n      0x01\n      add\n      0x00\n      swap1\n      sload\n      swap1\n      0x0100\n      exp\n      swap1\n      div\n      0xff\n      and\n      swap1\n      dup1\n      0x01\n      add\n      0x01\n      swap1\n      sload\n      swap1\n      0x0100\n      exp\n      swap1\n      div\n      0xffffffffffffffffffffffffffffffffffffffff\n      and\n      swap1\n      dup1\n      0x02\n      add\n      sload\n      swap1\n      pop\n      dup5\n      jump\t// out\n        /* \"contracts/Ballot.sol\":319:345  address public chainPerson */\n    tag_38:\n      0x00\n      dup1\n      sload\n      swap1\n      0x0100\n      exp\n      swap1\n      div\n      0xffffffffffffffffffffffffffffffffffffffff\n      and\n      dup2\n      jump\t// out\n        /* \"contracts/Ballot.sol\":2620:2748  function winnerName() external view returns(bytes32 winnerName_){... */\n    tag_42:\n        /* \"contracts/Ballot.sol\":2664:2683  bytes32 winnerName_ */\n      0x00\n        /* \"contracts/Ballot.sol\":2708:2717  proposals */\n      0x02\n        /* \"contracts/Ballot.sol\":2718:2735  winningProposal() */\n      tag_101\n        /* \"contracts/Ballot.sol\":2718:2733  winningProposal */\n      tag_26\n        /* \"contracts/Ballot.sol\":2718:2735  winningProposal() */\n      jump\t// in\n    tag_101:\n        /* \"contracts/Ballot.sol\":2708:2736  proposals[winningProposal()] */\n      dup2\n      sload\n      dup2\n      lt\n      tag_102\n      jumpi\n      tag_103\n      tag_54\n      jump\t// in\n    tag_103:\n    tag_102:\n      swap1\n      0x00\n      mstore\n      keccak256(0x00, 0x20)\n      swap1\n      0x02\n      mul\n      add\n        /* \"contracts/Ballot.sol\":2708:2741  proposals[winningProposal()].name */\n      0x00\n      add\n      sload\n        /* \"contracts/Ballot.sol\":2694:2741  winnerName_ = proposals[winningProposal()].name */\n      swap1\n      pop\n        /* \"contracts/Ballot.sol\":2620:2748  function winnerName() external view returns(bytes32 winnerName_){... */\n      swap1\n      jump\t// out\n        /* \"#utility.yul\":88:205   */\n    tag_106:\n        /* \"#utility.yul\":197:198   */\n      0x00\n        /* \"#utility.yul\":194:195   */\n      dup1\n        /* \"#utility.yul\":187:199   */\n      revert\n        /* \"#utility.yul\":334:411   */\n    tag_108:\n        /* \"#utility.yul\":371:378   */\n      0x00\n        /* \"#utility.yul\":400:405   */\n      dup2\n        /* \"#utility.yul\":389:405   */\n      swap1\n      pop\n        /* \"#utility.yul\":334:411   */\n      swap2\n      swap1\n      pop\n      jump\t// out\n        /* \"#utility.yul\":417:539   */\n    tag_109:\n        /* \"#utility.yul\":490:514   */\n      tag_141\n        /* \"#utility.yul\":508:513   */\n      dup2\n        /* \"#utility.yul\":490:514   */\n      tag_108\n      jump\t// in\n    tag_141:\n        /* \"#utility.yul\":483:488   */\n      dup2\n        /* \"#utility.yul\":480:515   */\n      eq\n        /* \"#utility.yul\":470:533   */\n      tag_142\n      jumpi\n        /* \"#utility.yul\":529:530   */\n      0x00\n        /* \"#utility.yul\":526:527   */\n      dup1\n        /* \"#utility.yul\":519:531   */\n      revert\n        /* \"#utility.yul\":470:533   */\n    tag_142:\n        /* \"#utility.yul\":417:539   */\n      pop\n      jump\t// out\n        /* \"#utility.yul\":545:684   */\n    tag_110:\n        /* \"#utility.yul\":591:596   */\n      0x00\n        /* \"#utility.yul\":629:635   */\n      dup2\n        /* \"#utility.yul\":616:636   */\n      calldataload\n        /* \"#utility.yul\":607:636   */\n      swap1\n      pop\n        /* \"#utility.yul\":645:678   */\n      tag_144\n        /* \"#utility.yul\":672:677   */\n      dup2\n        /* \"#utility.yul\":645:678   */\n      tag_109\n      jump\t// in\n    tag_144:\n        /* \"#utility.yul\":545:684   */\n      swap3\n      swap2\n      pop\n      pop\n      jump\t// out\n        /* \"#utility.yul\":690:1019   */\n    tag_14:\n        /* \"#utility.yul\":749:755   */\n      0x00\n        /* \"#utility.yul\":798:800   */\n      0x20\n        /* \"#utility.yul\":786:795   */\n      dup3\n        /* \"#utility.yul\":777:784   */\n      dup5\n        /* \"#utility.yul\":773:796   */\n      sub\n        /* \"#utility.yul\":769:801   */\n      slt\n        /* \"#utility.yul\":766:885   */\n      iszero\n      tag_146\n      jumpi\n        /* \"#utility.yul\":804:883   */\n      tag_147\n      tag_106\n      jump\t// in\n    tag_147:\n        /* \"#utility.yul\":766:885   */\n    tag_146:\n        /* \"#utility.yul\":924:925   */\n      0x00\n        /* \"#utility.yul\":949:1002   */\n      tag_148\n        /* \"#utility.yul\":994:1001   */\n      dup5\n        /* \"#utility.yul\":985:991   */\n      dup3\n        /* \"#utility.yul\":974:983   */\n      dup6\n        /* \"#utility.yul\":970:992   */\n      add\n        /* \"#utility.yul\":949:1002   */\n      tag_110\n      jump\t// in\n    tag_148:\n        /* \"#utility.yul\":939:1002   */\n      swap2\n      pop\n        /* \"#utility.yul\":895:1012   */\n      pop\n        /* \"#utility.yul\":690:1019   */\n      swap3\n      swap2\n      pop\n      pop\n      jump\t// out\n        /* \"#utility.yul\":1025:1102   */\n    tag_111:\n        /* \"#utility.yul\":1062:1069   */\n      0x00\n        /* \"#utility.yul\":1091:1096   */\n      dup2\n        /* \"#utility.yul\":1080:1096   */\n      swap1\n      pop\n        /* \"#utility.yul\":1025:1102   */\n      swap2\n      swap1\n      pop\n      jump\t// out\n        /* \"#utility.yul\":1108:1226   */\n    tag_112:\n        /* \"#utility.yul\":1195:1219   */\n      tag_151\n        /* \"#utility.yul\":1213:1218   */\n      dup2\n        /* \"#utility.yul\":1195:1219   */\n      tag_111\n      jump\t// in\n    tag_151:\n        /* \"#utility.yul\":1190:1193   */\n      dup3\n        /* \"#utility.yul\":1183:1220   */\n      mstore\n        /* \"#utility.yul\":1108:1226   */\n      pop\n      pop\n      jump\t// out\n        /* \"#utility.yul\":1232:1350   */\n    tag_113:\n        /* \"#utility.yul\":1319:1343   */\n      tag_153\n        /* \"#utility.yul\":1337:1342   */\n      dup2\n        /* \"#utility.yul\":1319:1343   */\n      tag_108\n      jump\t// in\n    tag_153:\n        /* \"#utility.yul\":1314:1317   */\n      dup3\n        /* \"#utility.yul\":1307:1344   */\n      mstore\n        /* \"#utility.yul\":1232:1350   */\n      pop\n      pop\n      jump\t// out\n        /* \"#utility.yul\":1356:1688   */\n    tag_20:\n        /* \"#utility.yul\":1477:1481   */\n      0x00\n        /* \"#utility.yul\":1515:1517   */\n      0x40\n        /* \"#utility.yul\":1504:1513   */\n      dup3\n        /* \"#utility.yul\":1500:1518   */\n      add\n        /* \"#utility.yul\":1492:1518   */\n      swap1\n      pop\n        /* \"#utility.yul\":1528:1599   */\n      tag_155\n        /* \"#utility.yul\":1596:1597   */\n      0x00\n        /* \"#utility.yul\":1585:1594   */\n      dup4\n        /* \"#utility.yul\":1581:1598   */\n      add\n        /* \"#utility.yul\":1572:1578   */\n      dup6\n        /* \"#utility.yul\":1528:1599   */\n      tag_112\n      jump\t// in\n    tag_155:\n        /* \"#utility.yul\":1609:1681   */\n      tag_156\n        /* \"#utility.yul\":1677:1679   */\n      0x20\n        /* \"#utility.yul\":1666:1675   */\n      dup4\n        /* \"#utility.yul\":1662:1680   */\n      add\n        /* \"#utility.yul\":1653:1659   */\n      dup5\n        /* \"#utility.yul\":1609:1681   */\n      tag_113\n      jump\t// in\n    tag_156:\n        /* \"#utility.yul\":1356:1688   */\n      swap4\n      swap3\n      pop\n      pop\n      pop\n      jump\t// out\n        /* \"#utility.yul\":1694:1820   */\n    tag_114:\n        /* \"#utility.yul\":1731:1738   */\n      0x00\n        /* \"#utility.yul\":1771:1813   */\n      0xffffffffffffffffffffffffffffffffffffffff\n        /* \"#utility.yul\":1764:1769   */\n      dup3\n        /* \"#utility.yul\":1760:1814   */\n      and\n        /* \"#utility.yul\":1749:1814   */\n      swap1\n      pop\n        /* \"#utility.yul\":1694:1820   */\n      swap2\n      swap1\n      pop\n      jump\t// out\n        /* \"#utility.yul\":1826:1922   */\n    tag_115:\n        /* \"#utility.yul\":1863:1870   */\n      0x00\n        /* \"#utility.yul\":1892:1916   */\n      tag_159\n        /* \"#utility.yul\":1910:1915   */\n      dup3\n        /* \"#utility.yul\":1892:1916   */\n      tag_114\n      jump\t// in\n    tag_159:\n        /* \"#utility.yul\":1881:1916   */\n      swap1\n      pop\n        /* \"#utility.yul\":1826:1922   */\n      swap2\n      swap1\n      pop\n      jump\t// out\n        /* \"#utility.yul\":1928:2050   */\n    tag_116:\n        /* \"#utility.yul\":2001:2025   */\n      tag_161\n        /* \"#utility.yul\":2019:2024   */\n      dup2\n        /* \"#utility.yul\":2001:2025   */\n      tag_115\n      jump\t// in\n    tag_161:\n        /* \"#utility.yul\":1994:1999   */\n      dup2\n        /* \"#utility.yul\":1991:2026   */\n      eq\n        /* \"#utility.yul\":1981:2044   */\n      tag_162\n      jumpi\n        /* \"#utility.yul\":2040:2041   */\n      0x00\n        /* \"#utility.yul\":2037:2038   */\n      dup1\n        /* \"#utility.yul\":2030:2042   */\n      revert\n        /* \"#utility.yul\":1981:2044   */\n    tag_162:\n        /* \"#utility.yul\":1928:2050   */\n      pop\n      jump\t// out\n        /* \"#utility.yul\":2056:2195   */\n    tag_117:\n        /* \"#utility.yul\":2102:2107   */\n      0x00\n        /* \"#utility.yul\":2140:2146   */\n      dup2\n        /* \"#utility.yul\":2127:2147   */\n      calldataload\n        /* \"#utility.yul\":2118:2147   */\n      swap1\n      pop\n        /* \"#utility.yul\":2156:2189   */\n      tag_164\n        /* \"#utility.yul\":2183:2188   */\n      dup2\n        /* \"#utility.yul\":2156:2189   */\n      tag_116\n      jump\t// in\n    tag_164:\n        /* \"#utility.yul\":2056:2195   */\n      swap3\n      swap2\n      pop\n      pop\n      jump\t// out\n        /* \"#utility.yul\":2201:2530   */\n    tag_23:\n        /* \"#utility.yul\":2260:2266   */\n      0x00\n        /* \"#utility.yul\":2309:2311   */\n      0x20\n        /* \"#utility.yul\":2297:2306   */\n      dup3\n        /* \"#utility.yul\":2288:2295   */\n      dup5\n        /* \"#utility.yul\":2284:2307   */\n      sub\n        /* \"#utility.yul\":2280:2312   */\n      slt\n        /* \"#utility.yul\":2277:2396   */\n      iszero\n      tag_166\n      jumpi\n        /* \"#utility.yul\":2315:2394   */\n      tag_167\n      tag_106\n      jump\t// in\n    tag_167:\n        /* \"#utility.yul\":2277:2396   */\n    tag_166:\n        /* \"#utility.yul\":2435:2436   */\n      0x00\n        /* \"#utility.yul\":2460:2513   */\n      tag_168\n        /* \"#utility.yul\":2505:2512   */\n      dup5\n        /* \"#utility.yul\":2496:2502   */\n      dup3\n        /* \"#utility.yul\":2485:2494   */\n      dup6\n        /* \"#utility.yul\":2481:2503   */\n      add\n        /* \"#utility.yul\":2460:2513   */\n      tag_117\n      jump\t// in\n    tag_168:\n        /* \"#utility.yul\":2450:2513   */\n      swap2\n      pop\n        /* \"#utility.yul\":2406:2523   */\n      pop\n        /* \"#utility.yul\":2201:2530   */\n      swap3\n      swap2\n      pop\n      pop\n      jump\t// out\n        /* \"#utility.yul\":2536:2758   */\n    tag_28:\n        /* \"#utility.yul\":2629:2633   */\n      0x00\n        /* \"#utility.yul\":2667:2669   */\n      0x20\n        /* \"#utility.yul\":2656:2665   */\n      dup3\n        /* \"#utility.yul\":2652:2670   */\n      add\n        /* \"#utility.yul\":2644:2670   */\n      swap1\n      pop\n        /* \"#utility.yul\":2680:2751   */\n      tag_170\n        /* \"#utility.yul\":2748:2749   */\n      0x00\n        /* \"#utility.yul\":2737:2746   */\n      dup4\n        /* \"#utility.yul\":2733:2750   */\n      add\n        /* \"#utility.yul\":2724:2730   */\n      dup5\n        /* \"#utility.yul\":2680:2751   */\n      tag_113\n      jump\t// in\n    tag_170:\n        /* \"#utility.yul\":2536:2758   */\n      swap3\n      swap2\n      pop\n      pop\n      jump\t// out\n        /* \"#utility.yul\":2764:2854   */\n    tag_118:\n        /* \"#utility.yul\":2798:2805   */\n      0x00\n        /* \"#utility.yul\":2841:2846   */\n      dup2\n        /* \"#utility.yul\":2834:2847   */\n      iszero\n        /* \"#utility.yul\":2827:2848   */\n      iszero\n        /* \"#utility.yul\":2816:2848   */\n      swap1\n      pop\n        /* \"#utility.yul\":2764:2854   */\n      swap2\n      swap1\n      pop\n      jump\t// out\n        /* \"#utility.yul\":2860:2969   */\n    tag_119:\n        /* \"#utility.yul\":2941:2962   */\n      tag_173\n        /* \"#utility.yul\":2956:2961   */\n      dup2\n        /* \"#utility.yul\":2941:2962   */\n      tag_118\n      jump\t// in\n    tag_173:\n        /* \"#utility.yul\":2936:2939   */\n      dup3\n        /* \"#utility.yul\":2929:2963   */\n      mstore\n        /* \"#utility.yul\":2860:2969   */\n      pop\n      pop\n      jump\t// out\n        /* \"#utility.yul\":2975:3093   */\n    tag_120:\n        /* \"#utility.yul\":3062:3086   */\n      tag_175\n        /* \"#utility.yul\":3080:3085   */\n      dup2\n        /* \"#utility.yul\":3062:3086   */\n      tag_115\n      jump\t// in\n    tag_175:\n        /* \"#utility.yul\":3057:3060   */\n      dup3\n        /* \"#utility.yul\":3050:3087   */\n      mstore\n        /* \"#utility.yul\":2975:3093   */\n      pop\n      pop\n      jump\t// out\n        /* \"#utility.yul\":3099:3640   */\n    tag_36:\n        /* \"#utility.yul\":3270:3274   */\n      0x00\n        /* \"#utility.yul\":3308:3311   */\n      0x80\n        /* \"#utility.yul\":3297:3306   */\n      dup3\n        /* \"#utility.yul\":3293:3312   */\n      add\n        /* \"#utility.yul\":3285:3312   */\n      swap1\n      pop\n        /* \"#utility.yul\":3322:3393   */\n      tag_177\n        /* \"#utility.yul\":3390:3391   */\n      0x00\n        /* \"#utility.yul\":3379:3388   */\n      dup4\n        /* \"#utility.yul\":3375:3392   */\n      add\n        /* \"#utility.yul\":3366:3372   */\n      dup8\n        /* \"#utility.yul\":3322:3393   */\n      tag_113\n      jump\t// in\n    tag_177:\n        /* \"#utility.yul\":3403:3469   */\n      tag_178\n        /* \"#utility.yul\":3465:3467   */\n      0x20\n        /* \"#utility.yul\":3454:3463   */\n      dup4\n        /* \"#utility.yul\":3450:3468   */\n      add\n        /* \"#utility.yul\":3441:3447   */\n      dup7\n        /* \"#utility.yul\":3403:3469   */\n      tag_119\n      jump\t// in\n    tag_178:\n        /* \"#utility.yul\":3479:3551   */\n      tag_179\n        /* \"#utility.yul\":3547:3549   */\n      0x40\n        /* \"#utility.yul\":3536:3545   */\n      dup4\n        /* \"#utility.yul\":3532:3550   */\n      add\n        /* \"#utility.yul\":3523:3529   */\n      dup6\n        /* \"#utility.yul\":3479:3551   */\n      tag_120\n      jump\t// in\n    tag_179:\n        /* \"#utility.yul\":3561:3633   */\n      tag_180\n        /* \"#utility.yul\":3629:3631   */\n      0x60\n        /* \"#utility.yul\":3618:3627   */\n      dup4\n        /* \"#utility.yul\":3614:3632   */\n      add\n        /* \"#utility.yul\":3605:3611   */\n      dup5\n        /* \"#utility.yul\":3561:3633   */\n      tag_113\n      jump\t// in\n    tag_180:\n        /* \"#utility.yul\":3099:3640   */\n      swap6\n      swap5\n      pop\n      pop\n      pop\n      pop\n      pop\n      jump\t// out\n        /* \"#utility.yul\":3646:3868   */\n    tag_40:\n        /* \"#utility.yul\":3739:3743   */\n      0x00\n        /* \"#utility.yul\":3777:3779   */\n      0x20\n        /* \"#utility.yul\":3766:3775   */\n      dup3\n        /* \"#utility.yul\":3762:3780   */\n      add\n        /* \"#utility.yul\":3754:3780   */\n      swap1\n      pop\n        /* \"#utility.yul\":3790:3861   */\n      tag_182\n        /* \"#utility.yul\":3858:3859   */\n      0x00\n        /* \"#utility.yul\":3847:3856   */\n      dup4\n        /* \"#utility.yul\":3843:3860   */\n      add\n        /* \"#utility.yul\":3834:3840   */\n      dup5\n        /* \"#utility.yul\":3790:3861   */\n      tag_120\n      jump\t// in\n    tag_182:\n        /* \"#utility.yul\":3646:3868   */\n      swap3\n      swap2\n      pop\n      pop\n      jump\t// out\n        /* \"#utility.yul\":3874:4096   */\n    tag_44:\n        /* \"#utility.yul\":3967:3971   */\n      0x00\n        /* \"#utility.yul\":4005:4007   */\n      0x20\n        /* \"#utility.yul\":3994:4003   */\n      dup3\n        /* \"#utility.yul\":3990:4008   */\n      add\n        /* \"#utility.yul\":3982:4008   */\n      swap1\n      pop\n        /* \"#utility.yul\":4018:4089   */\n      tag_184\n        /* \"#utility.yul\":4086:4087   */\n      0x00\n        /* \"#utility.yul\":4075:4084   */\n      dup4\n        /* \"#utility.yul\":4071:4088   */\n      add\n        /* \"#utility.yul\":4062:4068   */\n      dup5\n        /* \"#utility.yul\":4018:4089   */\n      tag_112\n      jump\t// in\n    tag_184:\n        /* \"#utility.yul\":3874:4096   */\n      swap3\n      swap2\n      pop\n      pop\n      jump\t// out\n        /* \"#utility.yul\":4102:4271   */\n    tag_121:\n        /* \"#utility.yul\":4186:4197   */\n      0x00\n        /* \"#utility.yul\":4220:4226   */\n      dup3\n        /* \"#utility.yul\":4215:4218   */\n      dup3\n        /* \"#utility.yul\":4208:4227   */\n      mstore\n        /* \"#utility.yul\":4260:4264   */\n      0x20\n        /* \"#utility.yul\":4255:4258   */\n      dup3\n        /* \"#utility.yul\":4251:4265   */\n      add\n        /* \"#utility.yul\":4236:4265   */\n      swap1\n      pop\n        /* \"#utility.yul\":4102:4271   */\n      swap3\n      swap2\n      pop\n      pop\n      jump\t// out\n        /* \"#utility.yul\":4277:4440   */\n    tag_122:\n        /* \"#utility.yul\":4417:4432   */\n      0x796f7520707269766c6961676500000000000000000000000000000000000000\n        /* \"#utility.yul\":4413:4414   */\n      0x00\n        /* \"#utility.yul\":4405:4411   */\n      dup3\n        /* \"#utility.yul\":4401:4415   */\n      add\n        /* \"#utility.yul\":4394:4433   */\n      mstore\n        /* \"#utility.yul\":4277:4440   */\n      pop\n      jump\t// out\n        /* \"#utility.yul\":4446:4812   */\n    tag_123:\n        /* \"#utility.yul\":4588:4591   */\n      0x00\n        /* \"#utility.yul\":4609:4676   */\n      tag_188\n        /* \"#utility.yul\":4673:4675   */\n      0x0d\n        /* \"#utility.yul\":4668:4671   */\n      dup4\n        /* \"#utility.yul\":4609:4676   */\n      tag_121\n      jump\t// in\n    tag_188:\n        /* \"#utility.yul\":4602:4676   */\n      swap2\n      pop\n        /* \"#utility.yul\":4685:4778   */\n      tag_189\n        /* \"#utility.yul\":4774:4777   */\n      dup3\n        /* \"#utility.yul\":4685:4778   */\n      tag_122\n      jump\t// in\n    tag_189:\n        /* \"#utility.yul\":4803:4805   */\n      0x20\n        /* \"#utility.yul\":4798:4801   */\n      dup3\n        /* \"#utility.yul\":4794:4806   */\n      add\n        /* \"#utility.yul\":4787:4806   */\n      swap1\n      pop\n        /* \"#utility.yul\":4446:4812   */\n      swap2\n      swap1\n      pop\n      jump\t// out\n        /* \"#utility.yul\":4818:5237   */\n    tag_48:\n        /* \"#utility.yul\":4984:4988   */\n      0x00\n        /* \"#utility.yul\":5022:5024   */\n      0x20\n        /* \"#utility.yul\":5011:5020   */\n      dup3\n        /* \"#utility.yul\":5007:5025   */\n      add\n        /* \"#utility.yul\":4999:5025   */\n      swap1\n      pop\n        /* \"#utility.yul\":5071:5080   */\n      dup2\n        /* \"#utility.yul\":5065:5069   */\n      dup2\n        /* \"#utility.yul\":5061:5081   */\n      sub\n        /* \"#utility.yul\":5057:5058   */\n      0x00\n        /* \"#utility.yul\":5046:5055   */\n      dup4\n        /* \"#utility.yul\":5042:5059   */\n      add\n        /* \"#utility.yul\":5035:5082   */\n      mstore\n        /* \"#utility.yul\":5099:5230   */\n      tag_191\n        /* \"#utility.yul\":5225:5229   */\n      dup2\n        /* \"#utility.yul\":5099:5230   */\n      tag_123\n      jump\t// in\n    tag_191:\n        /* \"#utility.yul\":5091:5230   */\n      swap1\n      pop\n        /* \"#utility.yul\":4818:5237   */\n      swap2\n      swap1\n      pop\n      jump\t// out\n        /* \"#utility.yul\":5243:5412   */\n    tag_124:\n        /* \"#utility.yul\":5383:5404   */\n      0x796f752068617665206265656e20766f74656400000000000000000000000000\n        /* \"#utility.yul\":5379:5380   */\n      0x00\n        /* \"#utility.yul\":5371:5377   */\n      dup3\n        /* \"#utility.yul\":5367:5381   */\n      add\n        /* \"#utility.yul\":5360:5405   */\n      mstore\n        /* \"#utility.yul\":5243:5412   */\n      pop\n      jump\t// out\n        /* \"#utility.yul\":5418:5784   */\n    tag_125:\n        /* \"#utility.yul\":5560:5563   */\n      0x00\n        /* \"#utility.yul\":5581:5648   */\n      tag_194\n        /* \"#utility.yul\":5645:5647   */\n      0x13\n        /* \"#utility.yul\":5640:5643   */\n      dup4\n        /* \"#utility.yul\":5581:5648   */\n      tag_121\n      jump\t// in\n    tag_194:\n        /* \"#utility.yul\":5574:5648   */\n      swap2\n      pop\n        /* \"#utility.yul\":5657:5750   */\n      tag_195\n        /* \"#utility.yul\":5746:5749   */\n      dup3\n        /* \"#utility.yul\":5657:5750   */\n      tag_124\n      jump\t// in\n    tag_195:\n        /* \"#utility.yul\":5775:5777   */\n      0x20\n        /* \"#utility.yul\":5770:5773   */\n      dup3\n        /* \"#utility.yul\":5766:5778   */\n      add\n        /* \"#utility.yul\":5759:5778   */\n      swap1\n      pop\n        /* \"#utility.yul\":5418:5784   */\n      swap2\n      swap1\n      pop\n      jump\t// out\n        /* \"#utility.yul\":5790:6209   */\n    tag_51:\n        /* \"#utility.yul\":5956:5960   */\n      0x00\n        /* \"#utility.yul\":5994:5996   */\n      0x20\n        /* \"#utility.yul\":5983:5992   */\n      dup3\n        /* \"#utility.yul\":5979:5997   */\n      add\n        /* \"#utility.yul\":5971:5997   */\n      swap1\n      pop\n        /* \"#utility.yul\":6043:6052   */\n      dup2\n        /* \"#utility.yul\":6037:6041   */\n      dup2\n        /* \"#utility.yul\":6033:6053   */\n      sub\n        /* \"#utility.yul\":6029:6030   */\n      0x00\n        /* \"#utility.yul\":6018:6027   */\n      dup4\n        /* \"#utility.yul\":6014:6031   */\n      add\n        /* \"#utility.yul\":6007:6054   */\n      mstore\n        /* \"#utility.yul\":6071:6202   */\n      tag_197\n        /* \"#utility.yul\":6197:6201   */\n      dup2\n        /* \"#utility.yul\":6071:6202   */\n      tag_125\n      jump\t// in\n    tag_197:\n        /* \"#utility.yul\":6063:6202   */\n      swap1\n      pop\n        /* \"#utility.yul\":5790:6209   */\n      swap2\n      swap1\n      pop\n      jump\t// out\n        /* \"#utility.yul\":6215:6395   */\n    tag_54:\n        /* \"#utility.yul\":6263:6340   */\n      0x4e487b7100000000000000000000000000000000000000000000000000000000\n        /* \"#utility.yul\":6260:6261   */\n      0x00\n        /* \"#utility.yul\":6253:6341   */\n      mstore\n        /* \"#utility.yul\":6360:6364   */\n      0x32\n        /* \"#utility.yul\":6357:6358   */\n      0x04\n        /* \"#utility.yul\":6350:6365   */\n      mstore\n        /* \"#utility.yul\":6384:6388   */\n      0x24\n        /* \"#utility.yul\":6381:6382   */\n      0x00\n        /* \"#utility.yul\":6374:6389   */\n      revert\n        /* \"#utility.yul\":6401:6581   */\n    tag_126:\n        /* \"#utility.yul\":6449:6526   */\n      0x4e487b7100000000000000000000000000000000000000000000000000000000\n        /* \"#utility.yul\":6446:6447   */\n      0x00\n        /* \"#utility.yul\":6439:6527   */\n      mstore\n        /* \"#utility.yul\":6546:6550   */\n      0x11\n        /* \"#utility.yul\":6543:6544   */\n      0x04\n        /* \"#utility.yul\":6536:6551   */\n      mstore\n        /* \"#utility.yul\":6570:6574   */\n      0x24\n        /* \"#utility.yul\":6567:6568   */\n      0x00\n        /* \"#utility.yul\":6560:6575   */\n      revert\n        /* \"#utility.yul\":6587:6778   */\n    tag_57:\n        /* \"#utility.yul\":6627:6630   */\n      0x00\n        /* \"#utility.yul\":6646:6666   */\n      tag_201\n        /* \"#utility.yul\":6664:6665   */\n      dup3\n        /* \"#utility.yul\":6646:6666   */\n      tag_108\n      jump\t// in\n    tag_201:\n        /* \"#utility.yul\":6641:6666   */\n      swap2\n      pop\n        /* \"#utility.yul\":6680:6700   */\n      tag_202\n        /* \"#utility.yul\":6698:6699   */\n      dup4\n        /* \"#utility.yul\":6680:6700   */\n      tag_108\n      jump\t// in\n    tag_202:\n        /* \"#utility.yul\":6675:6700   */\n      swap3\n      pop\n        /* \"#utility.yul\":6723:6724   */\n      dup3\n        /* \"#utility.yul\":6720:6721   */\n      dup3\n        /* \"#utility.yul\":6716:6725   */\n      add\n        /* \"#utility.yul\":6709:6725   */\n      swap1\n      pop\n        /* \"#utility.yul\":6744:6747   */\n      dup1\n        /* \"#utility.yul\":6741:6742   */\n      dup3\n        /* \"#utility.yul\":6738:6748   */\n      gt\n        /* \"#utility.yul\":6735:6771   */\n      iszero\n      tag_203\n      jumpi\n        /* \"#utility.yul\":6751:6769   */\n      tag_204\n      tag_126\n      jump\t// in\n    tag_204:\n        /* \"#utility.yul\":6735:6771   */\n    tag_203:\n        /* \"#utility.yul\":6587:6778   */\n      swap3\n      swap2\n      pop\n      pop\n      jump\t// out\n        /* \"#utility.yul\":6784:6958   */\n    tag_127:\n        /* \"#utility.yul\":6924:6950   */\n      0x796f752063616e6e6f7420766f746520796f757273656c660000000000000000\n        /* \"#utility.yul\":6920:6921   */\n      0x00\n        /* \"#utility.yul\":6912:6918   */\n      dup3\n        /* \"#utility.yul\":6908:6922   */\n      add\n        /* \"#utility.yul\":6901:6951   */\n      mstore\n        /* \"#utility.yul\":6784:6958   */\n      pop\n      jump\t// out\n        /* \"#utility.yul\":6964:7330   */\n    tag_128:\n        /* \"#utility.yul\":7106:7109   */\n      0x00\n        /* \"#utility.yul\":7127:7194   */\n      tag_207\n        /* \"#utility.yul\":7191:7193   */\n      0x18\n        /* \"#utility.yul\":7186:7189   */\n      dup4\n        /* \"#utility.yul\":7127:7194   */\n      tag_121\n      jump\t// in\n    tag_207:\n        /* \"#utility.yul\":7120:7194   */\n      swap2\n      pop\n        /* \"#utility.yul\":7203:7296   */\n      tag_208\n        /* \"#utility.yul\":7292:7295   */\n      dup3\n        /* \"#utility.yul\":7203:7296   */\n      tag_127\n      jump\t// in\n    tag_208:\n        /* \"#utility.yul\":7321:7323   */\n      0x20\n        /* \"#utility.yul\":7316:7319   */\n      dup3\n        /* \"#utility.yul\":7312:7324   */\n      add\n        /* \"#utility.yul\":7305:7324   */\n      swap1\n      pop\n        /* \"#utility.yul\":6964:7330   */\n      swap2\n      swap1\n      pop\n      jump\t// out\n        /* \"#utility.yul\":7336:7755   */\n    tag_67:\n        /* \"#utility.yul\":7502:7506   */\n      0x00\n        /* \"#utility.yul\":7540:7542   */\n      0x20\n        /* \"#utility.yul\":7529:7538   */\n      dup3\n        /* \"#utility.yul\":7525:7543   */\n      add\n        /* \"#utility.yul\":7517:7543   */\n      swap1\n      pop\n        /* \"#utility.yul\":7589:7598   */\n      dup2\n        /* \"#utility.yul\":7583:7587   */\n      dup2\n        /* \"#utility.yul\":7579:7599   */\n      sub\n        /* \"#utility.yul\":7575:7576   */\n      0x00\n        /* \"#utility.yul\":7564:7573   */\n      dup4\n        /* \"#utility.yul\":7560:7577   */\n      add\n        /* \"#utility.yul\":7553:7600   */\n      mstore\n        /* \"#utility.yul\":7617:7748   */\n      tag_210\n        /* \"#utility.yul\":7743:7747   */\n      dup2\n        /* \"#utility.yul\":7617:7748   */\n      tag_128\n      jump\t// in\n    tag_210:\n        /* \"#utility.yul\":7609:7748   */\n      swap1\n      pop\n        /* \"#utility.yul\":7336:7755   */\n      swap2\n      swap1\n      pop\n      jump\t// out\n        /* \"#utility.yul\":7761:7920   */\n    tag_129:\n        /* \"#utility.yul\":7901:7912   */\n      0x66696e64206c6f6f700000000000000000000000000000000000000000000000\n        /* \"#utility.yul\":7897:7898   */\n      0x00\n        /* \"#utility.yul\":7889:7895   */\n      dup3\n        /* \"#utility.yul\":7885:7899   */\n      add\n        /* \"#utility.yul\":7878:7913   */\n      mstore\n        /* \"#utility.yul\":7761:7920   */\n      pop\n      jump\t// out\n        /* \"#utility.yul\":7926:8291   */\n    tag_130:\n        /* \"#utility.yul\":8068:8071   */\n      0x00\n        /* \"#utility.yul\":8089:8155   */\n      tag_213\n        /* \"#utility.yul\":8153:8154   */\n      0x09\n        /* \"#utility.yul\":8148:8151   */\n      dup4\n        /* \"#utility.yul\":8089:8155   */\n      tag_121\n      jump\t// in\n    tag_213:\n        /* \"#utility.yul\":8082:8155   */\n      swap2\n      pop\n        /* \"#utility.yul\":8164:8257   */\n      tag_214\n        /* \"#utility.yul\":8253:8256   */\n      dup3\n        /* \"#utility.yul\":8164:8257   */\n      tag_129\n      jump\t// in\n    tag_214:\n        /* \"#utility.yul\":8282:8284   */\n      0x20\n        /* \"#utility.yul\":8277:8280   */\n      dup3\n        /* \"#utility.yul\":8273:8285   */\n      add\n        /* \"#utility.yul\":8266:8285   */\n      swap1\n      pop\n        /* \"#utility.yul\":7926:8291   */\n      swap2\n      swap1\n      pop\n      jump\t// out\n        /* \"#utility.yul\":8297:8716   */\n    tag_72:\n        /* \"#utility.yul\":8463:8467   */\n      0x00\n        /* \"#utility.yul\":8501:8503   */\n      0x20\n        /* \"#utility.yul\":8490:8499   */\n      dup3\n        /* \"#utility.yul\":8486:8504   */\n      add\n        /* \"#utility.yul\":8478:8504   */\n      swap1\n      pop\n        /* \"#utility.yul\":8550:8559   */\n      dup2\n        /* \"#utility.yul\":8544:8548   */\n      dup2\n        /* \"#utility.yul\":8540:8560   */\n      sub\n        /* \"#utility.yul\":8536:8537   */\n      0x00\n        /* \"#utility.yul\":8525:8534   */\n      dup4\n        /* \"#utility.yul\":8521:8538   */\n      add\n        /* \"#utility.yul\":8514:8561   */\n      mstore\n        /* \"#utility.yul\":8578:8709   */\n      tag_216\n        /* \"#utility.yul\":8704:8708   */\n      dup2\n        /* \"#utility.yul\":8578:8709   */\n      tag_130\n      jump\t// in\n    tag_216:\n        /* \"#utility.yul\":8570:8709   */\n      swap1\n      pop\n        /* \"#utility.yul\":8297:8716   */\n      swap2\n      swap1\n      pop\n      jump\t// out\n        /* \"#utility.yul\":8722:8948   */\n    tag_131:\n        /* \"#utility.yul\":8862:8896   */\n      0x6f6e6c7920636861696e506572736f6e2063616e206769766520726967687420\n        /* \"#utility.yul\":8858:8859   */\n      0x00\n        /* \"#utility.yul\":8850:8856   */\n      dup3\n        /* \"#utility.yul\":8846:8860   */\n      add\n        /* \"#utility.yul\":8839:8897   */\n      mstore\n        /* \"#utility.yul\":8931:8940   */\n      0x746f20766f746500000000000000000000000000000000000000000000000000\n        /* \"#utility.yul\":8926:8928   */\n      0x20\n        /* \"#utility.yul\":8918:8924   */\n      dup3\n        /* \"#utility.yul\":8914:8929   */\n      add\n        /* \"#utility.yul\":8907:8941   */\n      mstore\n        /* \"#utility.yul\":8722:8948   */\n      pop\n      jump\t// out\n        /* \"#utility.yul\":8954:9320   */\n    tag_132:\n        /* \"#utility.yul\":9096:9099   */\n      0x00\n        /* \"#utility.yul\":9117:9184   */\n      tag_219\n        /* \"#utility.yul\":9181:9183   */\n      0x27\n        /* \"#utility.yul\":9176:9179   */\n      dup4\n        /* \"#utility.yul\":9117:9184   */\n      tag_121\n      jump\t// in\n    tag_219:\n        /* \"#utility.yul\":9110:9184   */\n      swap2\n      pop\n        /* \"#utility.yul\":9193:9286   */\n      tag_220\n        /* \"#utility.yul\":9282:9285   */\n      dup3\n        /* \"#utility.yul\":9193:9286   */\n      tag_131\n      jump\t// in\n    tag_220:\n        /* \"#utility.yul\":9311:9313   */\n      0x40\n        /* \"#utility.yul\":9306:9309   */\n      dup3\n        /* \"#utility.yul\":9302:9314   */\n      add\n        /* \"#utility.yul\":9295:9314   */\n      swap1\n      pop\n        /* \"#utility.yul\":8954:9320   */\n      swap2\n      swap1\n      pop\n      jump\t// out\n        /* \"#utility.yul\":9326:9745   */\n    tag_95:\n        /* \"#utility.yul\":9492:9496   */\n      0x00\n        /* \"#utility.yul\":9530:9532   */\n      0x20\n        /* \"#utility.yul\":9519:9528   */\n      dup3\n        /* \"#utility.yul\":9515:9533   */\n      add\n        /* \"#utility.yul\":9507:9533   */\n      swap1\n      pop\n        /* \"#utility.yul\":9579:9588   */\n      dup2\n        /* \"#utility.yul\":9573:9577   */\n      dup2\n        /* \"#utility.yul\":9569:9589   */\n      sub\n        /* \"#utility.yul\":9565:9566   */\n      0x00\n        /* \"#utility.yul\":9554:9563   */\n      dup4\n        /* \"#utility.yul\":9550:9567   */\n      add\n        /* \"#utility.yul\":9543:9590   */\n      mstore\n        /* \"#utility.yul\":9607:9738   */\n      tag_222\n        /* \"#utility.yul\":9733:9737   */\n      dup2\n        /* \"#utility.yul\":9607:9738   */\n      tag_132\n      jump\t// in\n    tag_222:\n        /* \"#utility.yul\":9599:9738   */\n      swap1\n      pop\n        /* \"#utility.yul\":9326:9745   */\n      swap2\n      swap1\n      pop\n      jump\t// out\n        /* \"#utility.yul\":9751:9925   */\n    tag_133:\n        /* \"#utility.yul\":9891:9917   */\n      0x54686520766f74657220616c726561647920766f7465642e0000000000000000\n        /* \"#utility.yul\":9887:9888   */\n      0x00\n        /* \"#utility.yul\":9879:9885   */\n      dup3\n        /* \"#utility.yul\":9875:9889   */\n      add\n        /* \"#utility.yul\":9868:9918   */\n      mstore\n        /* \"#utility.yul\":9751:9925   */\n      pop\n      jump\t// out\n        /* \"#utility.yul\":9931:10297   */\n    tag_134:\n        /* \"#utility.yul\":10073:10076   */\n      0x00\n        /* \"#utility.yul\":10094:10161   */\n      tag_225\n        /* \"#utility.yul\":10158:10160   */\n      0x18\n        /* \"#utility.yul\":10153:10156   */\n      dup4\n        /* \"#utility.yul\":10094:10161   */\n      tag_121\n      jump\t// in\n    tag_225:\n        /* \"#utility.yul\":10087:10161   */\n      swap2\n      pop\n        /* \"#utility.yul\":10170:10263   */\n      tag_226\n        /* \"#utility.yul\":10259:10262   */\n      dup3\n        /* \"#utility.yul\":10170:10263   */\n      tag_133\n      jump\t// in\n    tag_226:\n        /* \"#utility.yul\":10288:10290   */\n      0x20\n        /* \"#utility.yul\":10283:10286   */\n      dup3\n        /* \"#utility.yul\":10279:10291   */\n      add\n        /* \"#utility.yul\":10272:10291   */\n      swap1\n      pop\n        /* \"#utility.yul\":9931:10297   */\n      swap2\n      swap1\n      pop\n      jump\t// out\n        /* \"#utility.yul\":10303:10722   */\n    tag_99:\n        /* \"#utility.yul\":10469:10473   */\n      0x00\n        /* \"#utility.yul\":10507:10509   */\n      0x20\n        /* \"#utility.yul\":10496:10505   */\n      dup3\n        /* \"#utility.yul\":10492:10510   */\n      add\n        /* \"#utility.yul\":10484:10510   */\n      swap1\n      pop\n        /* \"#utility.yul\":10556:10565   */\n      dup2\n        /* \"#utility.yul\":10550:10554   */\n      dup2\n        /* \"#utility.yul\":10546:10566   */\n      sub\n        /* \"#utility.yul\":10542:10543   */\n      0x00\n        /* \"#utility.yul\":10531:10540   */\n      dup4\n        /* \"#utility.yul\":10527:10544   */\n      add\n        /* \"#utility.yul\":10520:10567   */\n      mstore\n        /* \"#utility.yul\":10584:10715   */\n      tag_228\n        /* \"#utility.yul\":10710:10714   */\n      dup2\n        /* \"#utility.yul\":10584:10715   */\n      tag_134\n      jump\t// in\n    tag_228:\n        /* \"#utility.yul\":10576:10715   */\n      swap1\n      pop\n        /* \"#utility.yul\":10303:10722   */\n      swap2\n      swap1\n      pop\n      jump\t// out\n\n    auxdata: 0xa264697066735822122059609b5c9b8f0a9024a88d40151665adae70f31e4ff21e6e221fedd928ec2c8664736f6c634300081a0033\n}\n",
				"bytecode": {
					"linkReferences": {},
					"object": "608060405234801561000f575f80fd5b506040516113d73803806113d783398181016040528101906100319190610396565b335f806101000a81548173ffffffffffffffffffffffffffffffffffffffff021916908373ffffffffffffffffffffffffffffffffffffffff1602179055506001805f805f9054906101000a900473ffffffffffffffffffffffffffffffffffffffff1673ffffffffffffffffffffffffffffffffffffffff1673ffffffffffffffffffffffffffffffffffffffff1681526020019081526020015f205f01819055505f5b815181101561016057600260405180604001604052808484815181106100ff576100fe6103dd565b5b60200260200101516101109061044c565b81526020015f815250908060018154018082558091505060019003905f5260205f2090600202015f909190919091505f820151815f015560208201518160010155505080806001019150506100d6565b50506104b2565b5f604051905090565b5f80fd5b5f80fd5b5f80fd5b5f601f19601f8301169050919050565b7f4e487b71000000000000000000000000000000000000000000000000000000005f52604160045260245ffd5b6101c28261017c565b810181811067ffffffffffffffff821117156101e1576101e061018c565b5b80604052505050565b5f6101f3610167565b90506101ff82826101b9565b919050565b5f67ffffffffffffffff82111561021e5761021d61018c565b5b602082029050602081019050919050565b5f80fd5b5f80fd5b5f67ffffffffffffffff8211156102515761025061018c565b5b61025a8261017c565b9050602081019050919050565b8281835e5f83830152505050565b5f61028761028284610237565b6101ea565b9050828152602081018484840111156102a3576102a2610233565b5b6102ae848285610267565b509392505050565b5f82601f8301126102ca576102c9610178565b5b81516102da848260208601610275565b91505092915050565b5f6102f56102f084610204565b6101ea565b905080838252602082019050602084028301858111156103185761031761022f565b5b835b8181101561035f57805167ffffffffffffffff81111561033d5761033c610178565b5b80860161034a89826102b6565b8552602085019450505060208101905061031a565b5050509392505050565b5f82601f83011261037d5761037c610178565b5b815161038d8482602086016102e3565b91505092915050565b5f602082840312156103ab576103aa610170565b5b5f82015167ffffffffffffffff8111156103c8576103c7610174565b5b6103d484828501610369565b91505092915050565b7f4e487b71000000000000000000000000000000000000000000000000000000005f52603260045260245ffd5b5f81519050919050565b5f819050602082019050919050565b5f819050919050565b5f6104378251610423565b80915050919050565b5f82821b905092915050565b5f6104568261040a565b8261046084610414565b905061046b8161042c565b925060208210156104ab576104a67fffffffffffffffffffffffffffffffffffffffffffffffffffffffffffffffff83602003600802610440565b831692505b5050919050565b610f18806104bf5f395ff3fe608060405234801561000f575f80fd5b5060043610610086575f3560e01c80639e7b8d61116100595780639e7b8d6114610111578063a3ec138d1461012d578063d886946114610160578063e2ba53f01461017e57610086565b80630121b93f1461008a578063013cf08b146100a65780635c19a95c146100d7578063609ff1bd146100f3575b5f80fd5b6100a4600480360381019061009f91906109fa565b61019c565b005b6100c060048036038101906100bb91906109fa565b6102d7565b6040516100ce929190610a4c565b60405180910390f35b6100f160048036038101906100ec9190610acd565b610306565b005b6100fb6106f0565b6040516101089190610af8565b60405180910390f35b61012b60048036038101906101269190610acd565b61076b565b005b61014760048036038101906101429190610acd565b610918565b6040516101579493929190610b3a565b60405180910390f35b610168610970565b6040516101759190610b7d565b60405180910390f35b610186610993565b6040516101939190610b96565b60405180910390f35b5f60015f3373ffffffffffffffffffffffffffffffffffffffff1673ffffffffffffffffffffffffffffffffffffffff1681526020019081526020015f2090505f815f015403610221576040517f08c379a000000000000000000000000000000000000000000000000000000000815260040161021890610c09565b60405180910390fd5b806001015f9054906101000a900460ff1615610272576040517f08c379a000000000000000000000000000000000000000000000000000000000815260040161026990610c71565b60405180910390fd5b6001816001015f6101000a81548160ff021916908315150217905550818160020181905550805f0154600283815481106102af576102ae610c8f565b5b905f5260205f2090600202016001015f8282546102cc9190610ce9565b925050819055505050565b600281815481106102e6575f80fd5b905f5260205f2090600202015f91509050805f0154908060010154905082565b5f60015f3373ffffffffffffffffffffffffffffffffffffffff1673ffffffffffffffffffffffffffffffffffffffff1681526020019081526020015f2090505f815f01540361038b576040517f08c379a000000000000000000000000000000000000000000000000000000000815260040161038290610c71565b60405180910390fd5b806001015f9054906101000a900460ff16156103dc576040517f08c379a00000000000000000000000000000000000000000000000000000000081526004016103d390610c71565b60405180910390fd5b3373ffffffffffffffffffffffffffffffffffffffff168273ffffffffffffffffffffffffffffffffffffffff160361044a576040517f08c379a000000000000000000000000000000000000000000000000000000000815260040161044190610d66565b60405180910390fd5b5b5f73ffffffffffffffffffffffffffffffffffffffff1660015f8473ffffffffffffffffffffffffffffffffffffffff1673ffffffffffffffffffffffffffffffffffffffff1681526020019081526020015f2060010160019054906101000a900473ffffffffffffffffffffffffffffffffffffffff1673ffffffffffffffffffffffffffffffffffffffff16146105b45760015f8373ffffffffffffffffffffffffffffffffffffffff1673ffffffffffffffffffffffffffffffffffffffff1681526020019081526020015f2060010160019054906101000a900473ffffffffffffffffffffffffffffffffffffffff1691503373ffffffffffffffffffffffffffffffffffffffff168273ffffffffffffffffffffffffffffffffffffffff16036105af576040517f08c379a00000000000000000000000000000000000000000000000000000000081526004016105a690610dce565b60405180910390fd5b61044b565b5f60015f8473ffffffffffffffffffffffffffffffffffffffff1673ffffffffffffffffffffffffffffffffffffffff1681526020019081526020015f20905060011515816001015f9054906101000a900460ff16151514610614575f80fd5b6001826001015f6101000a81548160ff021916908315150217905550828260010160016101000a81548173ffffffffffffffffffffffffffffffffffffffff021916908373ffffffffffffffffffffffffffffffffffffffff160217905550806001015f9054906101000a900460ff16156106ce57815f015460028260020154815481106106a5576106a4610c8f565b5b905f5260205f2090600202016001015f8282546106c29190610ce9565b925050819055506106eb565b815f0154815f015f8282546106e39190610ce9565b925050819055505b505050565b5f805f90505f5b60028054905081101561076657816002828154811061071957610718610c8f565b5b905f5260205f209060020201600101541115610759578092506002818154811061074657610745610c8f565b5b905f5260205f2090600202016001015491505b80806001019150506106f7565b505090565b5f8054906101000a900473ffffffffffffffffffffffffffffffffffffffff1673ffffffffffffffffffffffffffffffffffffffff163373ffffffffffffffffffffffffffffffffffffffff16146107f8576040517f08c379a00000000000000000000000000000000000000000000000000000000081526004016107ef90610e5c565b60405180910390fd5b5f60015f8373ffffffffffffffffffffffffffffffffffffffff1673ffffffffffffffffffffffffffffffffffffffff1681526020019081526020015f205f015414158015610891575060015f8273ffffffffffffffffffffffffffffffffffffffff1673ffffffffffffffffffffffffffffffffffffffff1681526020019081526020015f206001015f9054906101000a900460ff16155b156108d1576040517f08c379a00000000000000000000000000000000000000000000000000000000081526004016108c890610ec4565b60405180910390fd5b6001805f8373ffffffffffffffffffffffffffffffffffffffff1673ffffffffffffffffffffffffffffffffffffffff1681526020019081526020015f205f018190555050565b6001602052805f5260405f205f91509050805f015490806001015f9054906101000a900460ff16908060010160019054906101000a900473ffffffffffffffffffffffffffffffffffffffff16908060020154905084565b5f8054906101000a900473ffffffffffffffffffffffffffffffffffffffff1681565b5f600261099e6106f0565b815481106109af576109ae610c8f565b5b905f5260205f2090600202015f0154905090565b5f80fd5b5f819050919050565b6109d9816109c7565b81146109e3575f80fd5b50565b5f813590506109f4816109d0565b92915050565b5f60208284031215610a0f57610a0e6109c3565b5b5f610a1c848285016109e6565b91505092915050565b5f819050919050565b610a3781610a25565b82525050565b610a46816109c7565b82525050565b5f604082019050610a5f5f830185610a2e565b610a6c6020830184610a3d565b9392505050565b5f73ffffffffffffffffffffffffffffffffffffffff82169050919050565b5f610a9c82610a73565b9050919050565b610aac81610a92565b8114610ab6575f80fd5b50565b5f81359050610ac781610aa3565b92915050565b5f60208284031215610ae257610ae16109c3565b5b5f610aef84828501610ab9565b91505092915050565b5f602082019050610b0b5f830184610a3d565b92915050565b5f8115159050919050565b610b2581610b11565b82525050565b610b3481610a92565b82525050565b5f608082019050610b4d5f830187610a3d565b610b5a6020830186610b1c565b610b676040830185610b2b565b610b746060830184610a3d565b95945050505050565b5f602082019050610b905f830184610b2b565b92915050565b5f602082019050610ba95f830184610a2e565b92915050565b5f82825260208201905092915050565b7f796f7520707269766c69616765000000000000000000000000000000000000005f82015250565b5f610bf3600d83610baf565b9150610bfe82610bbf565b602082019050919050565b5f6020820190508181035f830152610c2081610be7565b9050919050565b7f796f752068617665206265656e20766f746564000000000000000000000000005f82015250565b5f610c5b601383610baf565b9150610c6682610c27565b602082019050919050565b5f6020820190508181035f830152610c8881610c4f565b9050919050565b7f4e487b71000000000000000000000000000000000000000000000000000000005f52603260045260245ffd5b7f4e487b71000000000000000000000000000000000000000000000000000000005f52601160045260245ffd5b5f610cf3826109c7565b9150610cfe836109c7565b9250828201905080821115610d1657610d15610cbc565b5b92915050565b7f796f752063616e6e6f7420766f746520796f757273656c6600000000000000005f82015250565b5f610d50601883610baf565b9150610d5b82610d1c565b602082019050919050565b5f6020820190508181035f830152610d7d81610d44565b9050919050565b7f66696e64206c6f6f7000000000000000000000000000000000000000000000005f82015250565b5f610db8600983610baf565b9150610dc382610d84565b602082019050919050565b5f6020820190508181035f830152610de581610dac565b9050919050565b7f6f6e6c7920636861696e506572736f6e2063616e2067697665207269676874205f8201527f746f20766f746500000000000000000000000000000000000000000000000000602082015250565b5f610e46602783610baf565b9150610e5182610dec565b604082019050919050565b5f6020820190508181035f830152610e7381610e3a565b9050919050565b7f54686520766f74657220616c726561647920766f7465642e00000000000000005f82015250565b5f610eae601883610baf565b9150610eb982610e7a565b602082019050919050565b5f6020820190508181035f830152610edb81610ea2565b905091905056fea264697066735822122059609b5c9b8f0a9024a88d40151665adae70f31e4ff21e6e221fedd928ec2c8664736f6c634300081a0033",
					"opcodes": "PUSH1 0x80 PUSH1 0x40 MSTORE CALLVALUE DUP1 ISZERO PUSH2 0xF JUMPI PUSH0 DUP1 REVERT JUMPDEST POP PUSH1 0x40 MLOAD PUSH2 0x13D7 CODESIZE SUB DUP1 PUSH2 0x13D7 DUP4 CODECOPY DUP2 DUP2 ADD PUSH1 0x40 MSTORE DUP2 ADD SWAP1 PUSH2 0x31 SWAP2 SWAP1 PUSH2 0x396 JUMP JUMPDEST CALLER PUSH0 DUP1 PUSH2 0x100 EXP DUP2 SLOAD DUP2 PUSH20 0xFFFFFFFFFFFFFFFFFFFFFFFFFFFFFFFFFFFFFFFF MUL NOT AND SWAP1 DUP4 PUSH20 0xFFFFFFFFFFFFFFFFFFFFFFFFFFFFFFFFFFFFFFFF AND MUL OR SWAP1 SSTORE POP PUSH1 0x1 DUP1 PUSH0 DUP1 PUSH0 SWAP1 SLOAD SWAP1 PUSH2 0x100 EXP SWAP1 DIV PUSH20 0xFFFFFFFFFFFFFFFFFFFFFFFFFFFFFFFFFFFFFFFF AND PUSH20 0xFFFFFFFFFFFFFFFFFFFFFFFFFFFFFFFFFFFFFFFF AND PUSH20 0xFFFFFFFFFFFFFFFFFFFFFFFFFFFFFFFFFFFFFFFF AND DUP2 MSTORE PUSH1 0x20 ADD SWAP1 DUP2 MSTORE PUSH1 0x20 ADD PUSH0 KECCAK256 PUSH0 ADD DUP2 SWAP1 SSTORE POP PUSH0 JUMPDEST DUP2 MLOAD DUP2 LT ISZERO PUSH2 0x160 JUMPI PUSH1 0x2 PUSH1 0x40 MLOAD DUP1 PUSH1 0x40 ADD PUSH1 0x40 MSTORE DUP1 DUP5 DUP5 DUP2 MLOAD DUP2 LT PUSH2 0xFF JUMPI PUSH2 0xFE PUSH2 0x3DD JUMP JUMPDEST JUMPDEST PUSH1 0x20 MUL PUSH1 0x20 ADD ADD MLOAD PUSH2 0x110 SWAP1 PUSH2 0x44C JUMP JUMPDEST DUP2 MSTORE PUSH1 0x20 ADD PUSH0 DUP2 MSTORE POP SWAP1 DUP1 PUSH1 0x1 DUP2 SLOAD ADD DUP1 DUP3 SSTORE DUP1 SWAP2 POP POP PUSH1 0x1 SWAP1 SUB SWAP1 PUSH0 MSTORE PUSH1 0x20 PUSH0 KECCAK256 SWAP1 PUSH1 0x2 MUL ADD PUSH0 SWAP1 SWAP2 SWAP1 SWAP2 SWAP1 SWAP2 POP PUSH0 DUP3 ADD MLOAD DUP2 PUSH0 ADD SSTORE PUSH1 0x20 DUP3 ADD MLOAD DUP2 PUSH1 0x1 ADD SSTORE POP POP DUP1 DUP1 PUSH1 0x1 ADD SWAP2 POP POP PUSH2 0xD6 JUMP JUMPDEST POP POP PUSH2 0x4B2 JUMP JUMPDEST PUSH0 PUSH1 0x40 MLOAD SWAP1 POP SWAP1 JUMP JUMPDEST PUSH0 DUP1 REVERT JUMPDEST PUSH0 DUP1 REVERT JUMPDEST PUSH0 DUP1 REVERT JUMPDEST PUSH0 PUSH1 0x1F NOT PUSH1 0x1F DUP4 ADD AND SWAP1 POP SWAP2 SWAP1 POP JUMP JUMPDEST PUSH32 0x4E487B7100000000000000000000000000000000000000000000000000000000 PUSH0 MSTORE PUSH1 0x41 PUSH1 0x4 MSTORE PUSH1 0x24 PUSH0 REVERT JUMPDEST PUSH2 0x1C2 DUP3 PUSH2 0x17C JUMP JUMPDEST DUP2 ADD DUP2 DUP2 LT PUSH8 0xFFFFFFFFFFFFFFFF DUP3 GT OR ISZERO PUSH2 0x1E1 JUMPI PUSH2 0x1E0 PUSH2 0x18C JUMP JUMPDEST JUMPDEST DUP1 PUSH1 0x40 MSTORE POP POP POP JUMP JUMPDEST PUSH0 PUSH2 0x1F3 PUSH2 0x167 JUMP JUMPDEST SWAP1 POP PUSH2 0x1FF DUP3 DUP3 PUSH2 0x1B9 JUMP JUMPDEST SWAP2 SWAP1 POP JUMP JUMPDEST PUSH0 PUSH8 0xFFFFFFFFFFFFFFFF DUP3 GT ISZERO PUSH2 0x21E JUMPI PUSH2 0x21D PUSH2 0x18C JUMP JUMPDEST JUMPDEST PUSH1 0x20 DUP3 MUL SWAP1 POP PUSH1 0x20 DUP2 ADD SWAP1 POP SWAP2 SWAP1 POP JUMP JUMPDEST PUSH0 DUP1 REVERT JUMPDEST PUSH0 DUP1 REVERT JUMPDEST PUSH0 PUSH8 0xFFFFFFFFFFFFFFFF DUP3 GT ISZERO PUSH2 0x251 JUMPI PUSH2 0x250 PUSH2 0x18C JUMP JUMPDEST JUMPDEST PUSH2 0x25A DUP3 PUSH2 0x17C JUMP JUMPDEST SWAP1 POP PUSH1 0x20 DUP2 ADD SWAP1 POP SWAP2 SWAP1 POP JUMP JUMPDEST DUP3 DUP2 DUP4 MCOPY PUSH0 DUP4 DUP4 ADD MSTORE POP POP POP JUMP JUMPDEST PUSH0 PUSH2 0x287 PUSH2 0x282 DUP5 PUSH2 0x237 JUMP JUMPDEST PUSH2 0x1EA JUMP JUMPDEST SWAP1 POP DUP3 DUP2 MSTORE PUSH1 0x20 DUP2 ADD DUP5 DUP5 DUP5 ADD GT ISZERO PUSH2 0x2A3 JUMPI PUSH2 0x2A2 PUSH2 0x233 JUMP JUMPDEST JUMPDEST PUSH2 0x2AE DUP5 DUP3 DUP6 PUSH2 0x267 JUMP JUMPDEST POP SWAP4 SWAP3 POP POP POP JUMP JUMPDEST PUSH0 DUP3 PUSH1 0x1F DUP4 ADD SLT PUSH2 0x2CA JUMPI PUSH2 0x2C9 PUSH2 0x178 JUMP JUMPDEST JUMPDEST DUP2 MLOAD PUSH2 0x2DA DUP5 DUP3 PUSH1 0x20 DUP7 ADD PUSH2 0x275 JUMP JUMPDEST SWAP2 POP POP SWAP3 SWAP2 POP POP JUMP JUMPDEST PUSH0 PUSH2 0x2F5 PUSH2 0x2F0 DUP5 PUSH2 0x204 JUMP JUMPDEST PUSH2 0x1EA JUMP JUMPDEST SWAP1 POP DUP1 DUP4 DUP3 MSTORE PUSH1 0x20 DUP3 ADD SWAP1 POP PUSH1 0x20 DUP5 MUL DUP4 ADD DUP6 DUP2 GT ISZERO PUSH2 0x318 JUMPI PUSH2 0x317 PUSH2 0x22F JUMP JUMPDEST JUMPDEST DUP4 JUMPDEST DUP2 DUP2 LT ISZERO PUSH2 0x35F JUMPI DUP1 MLOAD PUSH8 0xFFFFFFFFFFFFFFFF DUP2 GT ISZERO PUSH2 0x33D JUMPI PUSH2 0x33C PUSH2 0x178 JUMP JUMPDEST JUMPDEST DUP1 DUP7 ADD PUSH2 0x34A DUP10 DUP3 PUSH2 0x2B6 JUMP JUMPDEST DUP6 MSTORE PUSH1 0x20 DUP6 ADD SWAP5 POP POP POP PUSH1 0x20 DUP2 ADD SWAP1 POP PUSH2 0x31A JUMP JUMPDEST POP POP POP SWAP4 SWAP3 POP POP POP JUMP JUMPDEST PUSH0 DUP3 PUSH1 0x1F DUP4 ADD SLT PUSH2 0x37D JUMPI PUSH2 0x37C PUSH2 0x178 JUMP JUMPDEST JUMPDEST DUP2 MLOAD PUSH2 0x38D DUP5 DUP3 PUSH1 0x20 DUP7 ADD PUSH2 0x2E3 JUMP JUMPDEST SWAP2 POP POP SWAP3 SWAP2 POP POP JUMP JUMPDEST PUSH0 PUSH1 0x20 DUP3 DUP5 SUB SLT ISZERO PUSH2 0x3AB JUMPI PUSH2 0x3AA PUSH2 0x170 JUMP JUMPDEST JUMPDEST PUSH0 DUP3 ADD MLOAD PUSH8 0xFFFFFFFFFFFFFFFF DUP2 GT ISZERO PUSH2 0x3C8 JUMPI PUSH2 0x3C7 PUSH2 0x174 JUMP JUMPDEST JUMPDEST PUSH2 0x3D4 DUP5 DUP3 DUP6 ADD PUSH2 0x369 JUMP JUMPDEST SWAP2 POP POP SWAP3 SWAP2 POP POP JUMP JUMPDEST PUSH32 0x4E487B7100000000000000000000000000000000000000000000000000000000 PUSH0 MSTORE PUSH1 0x32 PUSH1 0x4 MSTORE PUSH1 0x24 PUSH0 REVERT JUMPDEST PUSH0 DUP2 MLOAD SWAP1 POP SWAP2 SWAP1 POP JUMP JUMPDEST PUSH0 DUP2 SWAP1 POP PUSH1 0x20 DUP3 ADD SWAP1 POP SWAP2 SWAP1 POP JUMP JUMPDEST PUSH0 DUP2 SWAP1 POP SWAP2 SWAP1 POP JUMP JUMPDEST PUSH0 PUSH2 0x437 DUP3 MLOAD PUSH2 0x423 JUMP JUMPDEST DUP1 SWAP2 POP POP SWAP2 SWAP1 POP JUMP JUMPDEST PUSH0 DUP3 DUP3 SHL SWAP1 POP SWAP3 SWAP2 POP POP JUMP JUMPDEST PUSH0 PUSH2 0x456 DUP3 PUSH2 0x40A JUMP JUMPDEST DUP3 PUSH2 0x460 DUP5 PUSH2 0x414 JUMP JUMPDEST SWAP1 POP PUSH2 0x46B DUP2 PUSH2 0x42C JUMP JUMPDEST SWAP3 POP PUSH1 0x20 DUP3 LT ISZERO PUSH2 0x4AB JUMPI PUSH2 0x4A6 PUSH32 0xFFFFFFFFFFFFFFFFFFFFFFFFFFFFFFFFFFFFFFFFFFFFFFFFFFFFFFFFFFFFFFFF DUP4 PUSH1 0x20 SUB PUSH1 0x8 MUL PUSH2 0x440 JUMP JUMPDEST DUP4 AND SWAP3 POP JUMPDEST POP POP SWAP2 SWAP1 POP JUMP JUMPDEST PUSH2 0xF18 DUP1 PUSH2 0x4BF PUSH0 CODECOPY PUSH0 RETURN INVALID PUSH1 0x80 PUSH1 0x40 MSTORE CALLVALUE DUP1 ISZERO PUSH2 0xF JUMPI PUSH0 DUP1 REVERT JUMPDEST POP PUSH1 0x4 CALLDATASIZE LT PUSH2 0x86 JUMPI PUSH0 CALLDATALOAD PUSH1 0xE0 SHR DUP1 PUSH4 0x9E7B8D61 GT PUSH2 0x59 JUMPI DUP1 PUSH4 0x9E7B8D61 EQ PUSH2 0x111 JUMPI DUP1 PUSH4 0xA3EC138D EQ PUSH2 0x12D JUMPI DUP1 PUSH4 0xD8869461 EQ PUSH2 0x160 JUMPI DUP1 PUSH4 0xE2BA53F0 EQ PUSH2 0x17E JUMPI PUSH2 0x86 JUMP JUMPDEST DUP1 PUSH4 0x121B93F EQ PUSH2 0x8A JUMPI DUP1 PUSH4 0x13CF08B EQ PUSH2 0xA6 JUMPI DUP1 PUSH4 0x5C19A95C EQ PUSH2 0xD7 JUMPI DUP1 PUSH4 0x609FF1BD EQ PUSH2 0xF3 JUMPI JUMPDEST PUSH0 DUP1 REVERT JUMPDEST PUSH2 0xA4 PUSH1 0x4 DUP1 CALLDATASIZE SUB DUP2 ADD SWAP1 PUSH2 0x9F SWAP2 SWAP1 PUSH2 0x9FA JUMP JUMPDEST PUSH2 0x19C JUMP JUMPDEST STOP JUMPDEST PUSH2 0xC0 PUSH1 0x4 DUP1 CALLDATASIZE SUB DUP2 ADD SWAP1 PUSH2 0xBB SWAP2 SWAP1 PUSH2 0x9FA JUMP JUMPDEST PUSH2 0x2D7 JUMP JUMPDEST PUSH1 0x40 MLOAD PUSH2 0xCE SWAP3 SWAP2 SWAP1 PUSH2 0xA4C JUMP JUMPDEST PUSH1 0x40 MLOAD DUP1 SWAP2 SUB SWAP1 RETURN JUMPDEST PUSH2 0xF1 PUSH1 0x4 DUP1 CALLDATASIZE SUB DUP2 ADD SWAP1 PUSH2 0xEC SWAP2 SWAP1 PUSH2 0xACD JUMP JUMPDEST PUSH2 0x306 JUMP JUMPDEST STOP JUMPDEST PUSH2 0xFB PUSH2 0x6F0 JUMP JUMPDEST PUSH1 0x40 MLOAD PUSH2 0x108 SWAP2 SWAP1 PUSH2 0xAF8 JUMP JUMPDEST PUSH1 0x40 MLOAD DUP1 SWAP2 SUB SWAP1 RETURN JUMPDEST PUSH2 0x12B PUSH1 0x4 DUP1 CALLDATASIZE SUB DUP2 ADD SWAP1 PUSH2 0x126 SWAP2 SWAP1 PUSH2 0xACD JUMP JUMPDEST PUSH2 0x76B JUMP JUMPDEST STOP JUMPDEST PUSH2 0x147 PUSH1 0x4 DUP1 CALLDATASIZE SUB DUP2 ADD SWAP1 PUSH2 0x142 SWAP2 SWAP1 PUSH2 0xACD JUMP JUMPDEST PUSH2 0x918 JUMP JUMPDEST PUSH1 0x40 MLOAD PUSH2 0x157 SWAP5 SWAP4 SWAP3 SWAP2 SWAP1 PUSH2 0xB3A JUMP JUMPDEST PUSH1 0x40 MLOAD DUP1 SWAP2 SUB SWAP1 RETURN JUMPDEST PUSH2 0x168 PUSH2 0x970 JUMP JUMPDEST PUSH1 0x40 MLOAD PUSH2 0x175 SWAP2 SWAP1 PUSH2 0xB7D JUMP JUMPDEST PUSH1 0x40 MLOAD DUP1 SWAP2 SUB SWAP1 RETURN JUMPDEST PUSH2 0x186 PUSH2 0x993 JUMP JUMPDEST PUSH1 0x40 MLOAD PUSH2 0x193 SWAP2 SWAP1 PUSH2 0xB96 JUMP JUMPDEST PUSH1 0x40 MLOAD DUP1 SWAP2 SUB SWAP1 RETURN JUMPDEST PUSH0 PUSH1 0x1 PUSH0 CALLER PUSH20 0xFFFFFFFFFFFFFFFFFFFFFFFFFFFFFFFFFFFFFFFF AND PUSH20 0xFFFFFFFFFFFFFFFFFFFFFFFFFFFFFFFFFFFFFFFF AND DUP2 MSTORE PUSH1 0x20 ADD SWAP1 DUP2 MSTORE PUSH1 0x20 ADD PUSH0 KECCAK256 SWAP1 POP PUSH0 DUP2 PUSH0 ADD SLOAD SUB PUSH2 0x221 JUMPI PUSH1 0x40 MLOAD PUSH32 0x8C379A000000000000000000000000000000000000000000000000000000000 DUP2 MSTORE PUSH1 0x4 ADD PUSH2 0x218 SWAP1 PUSH2 0xC09 JUMP JUMPDEST PUSH1 0x40 MLOAD DUP1 SWAP2 SUB SWAP1 REVERT JUMPDEST DUP1 PUSH1 0x1 ADD PUSH0 SWAP1 SLOAD SWAP1 PUSH2 0x100 EXP SWAP1 DIV PUSH1 0xFF AND ISZERO PUSH2 0x272 JUMPI PUSH1 0x40 MLOAD PUSH32 0x8C379A000000000000000000000000000000000000000000000000000000000 DUP2 MSTORE PUSH1 0x4 ADD PUSH2 0x269 SWAP1 PUSH2 0xC71 JUMP JUMPDEST PUSH1 0x40 MLOAD DUP1 SWAP2 SUB SWAP1 REVERT JUMPDEST PUSH1 0x1 DUP2 PUSH1 0x1 ADD PUSH0 PUSH2 0x100 EXP DUP2 SLOAD DUP2 PUSH1 0xFF MUL NOT AND SWAP1 DUP4 ISZERO ISZERO MUL OR SWAP1 SSTORE POP DUP2 DUP2 PUSH1 0x2 ADD DUP2 SWAP1 SSTORE POP DUP1 PUSH0 ADD SLOAD PUSH1 0x2 DUP4 DUP2 SLOAD DUP2 LT PUSH2 0x2AF JUMPI PUSH2 0x2AE PUSH2 0xC8F JUMP JUMPDEST JUMPDEST SWAP1 PUSH0 MSTORE PUSH1 0x20 PUSH0 KECCAK256 SWAP1 PUSH1 0x2 MUL ADD PUSH1 0x1 ADD PUSH0 DUP3 DUP3 SLOAD PUSH2 0x2CC SWAP2 SWAP1 PUSH2 0xCE9 JUMP JUMPDEST SWAP3 POP POP DUP2 SWAP1 SSTORE POP POP POP JUMP JUMPDEST PUSH1 0x2 DUP2 DUP2 SLOAD DUP2 LT PUSH2 0x2E6 JUMPI PUSH0 DUP1 REVERT JUMPDEST SWAP1 PUSH0 MSTORE PUSH1 0x20 PUSH0 KECCAK256 SWAP1 PUSH1 0x2 MUL ADD PUSH0 SWAP2 POP SWAP1 POP DUP1 PUSH0 ADD SLOAD SWAP1 DUP1 PUSH1 0x1 ADD SLOAD SWAP1 POP DUP3 JUMP JUMPDEST PUSH0 PUSH1 0x1 PUSH0 CALLER PUSH20 0xFFFFFFFFFFFFFFFFFFFFFFFFFFFFFFFFFFFFFFFF AND PUSH20 0xFFFFFFFFFFFFFFFFFFFFFFFFFFFFFFFFFFFFFFFF AND DUP2 MSTORE PUSH1 0x20 ADD SWAP1 DUP2 MSTORE PUSH1 0x20 ADD PUSH0 KECCAK256 SWAP1 POP PUSH0 DUP2 PUSH0 ADD SLOAD SUB PUSH2 0x38B JUMPI PUSH1 0x40 MLOAD PUSH32 0x8C379A000000000000000000000000000000000000000000000000000000000 DUP2 MSTORE PUSH1 0x4 ADD PUSH2 0x382 SWAP1 PUSH2 0xC71 JUMP JUMPDEST PUSH1 0x40 MLOAD DUP1 SWAP2 SUB SWAP1 REVERT JUMPDEST DUP1 PUSH1 0x1 ADD PUSH0 SWAP1 SLOAD SWAP1 PUSH2 0x100 EXP SWAP1 DIV PUSH1 0xFF AND ISZERO PUSH2 0x3DC JUMPI PUSH1 0x40 MLOAD PUSH32 0x8C379A000000000000000000000000000000000000000000000000000000000 DUP2 MSTORE PUSH1 0x4 ADD PUSH2 0x3D3 SWAP1 PUSH2 0xC71 JUMP JUMPDEST PUSH1 0x40 MLOAD DUP1 SWAP2 SUB SWAP1 REVERT JUMPDEST CALLER PUSH20 0xFFFFFFFFFFFFFFFFFFFFFFFFFFFFFFFFFFFFFFFF AND DUP3 PUSH20 0xFFFFFFFFFFFFFFFFFFFFFFFFFFFFFFFFFFFFFFFF AND SUB PUSH2 0x44A JUMPI PUSH1 0x40 MLOAD PUSH32 0x8C379A000000000000000000000000000000000000000000000000000000000 DUP2 MSTORE PUSH1 0x4 ADD PUSH2 0x441 SWAP1 PUSH2 0xD66 JUMP JUMPDEST PUSH1 0x40 MLOAD DUP1 SWAP2 SUB SWAP1 REVERT JUMPDEST JUMPDEST PUSH0 PUSH20 0xFFFFFFFFFFFFFFFFFFFFFFFFFFFFFFFFFFFFFFFF AND PUSH1 0x1 PUSH0 DUP5 PUSH20 0xFFFFFFFFFFFFFFFFFFFFFFFFFFFFFFFFFFFFFFFF AND PUSH20 0xFFFFFFFFFFFFFFFFFFFFFFFFFFFFFFFFFFFFFFFF AND DUP2 MSTORE PUSH1 0x20 ADD SWAP1 DUP2 MSTORE PUSH1 0x20 ADD PUSH0 KECCAK256 PUSH1 0x1 ADD PUSH1 0x1 SWAP1 SLOAD SWAP1 PUSH2 0x100 EXP SWAP1 DIV PUSH20 0xFFFFFFFFFFFFFFFFFFFFFFFFFFFFFFFFFFFFFFFF AND PUSH20 0xFFFFFFFFFFFFFFFFFFFFFFFFFFFFFFFFFFFFFFFF AND EQ PUSH2 0x5B4 JUMPI PUSH1 0x1 PUSH0 DUP4 PUSH20 0xFFFFFFFFFFFFFFFFFFFFFFFFFFFFFFFFFFFFFFFF AND PUSH20 0xFFFFFFFFFFFFFFFFFFFFFFFFFFFFFFFFFFFFFFFF AND DUP2 MSTORE PUSH1 0x20 ADD SWAP1 DUP2 MSTORE PUSH1 0x20 ADD PUSH0 KECCAK256 PUSH1 0x1 ADD PUSH1 0x1 SWAP1 SLOAD SWAP1 PUSH2 0x100 EXP SWAP1 DIV PUSH20 0xFFFFFFFFFFFFFFFFFFFFFFFFFFFFFFFFFFFFFFFF AND SWAP2 POP CALLER PUSH20 0xFFFFFFFFFFFFFFFFFFFFFFFFFFFFFFFFFFFFFFFF AND DUP3 PUSH20 0xFFFFFFFFFFFFFFFFFFFFFFFFFFFFFFFFFFFFFFFF AND SUB PUSH2 0x5AF JUMPI PUSH1 0x40 MLOAD PUSH32 0x8C379A000000000000000000000000000000000000000000000000000000000 DUP2 MSTORE PUSH1 0x4 ADD PUSH2 0x5A6 SWAP1 PUSH2 0xDCE JUMP JUMPDEST PUSH1 0x40 MLOAD DUP1 SWAP2 SUB SWAP1 REVERT JUMPDEST PUSH2 0x44B JUMP JUMPDEST PUSH0 PUSH1 0x1 PUSH0 DUP5 PUSH20 0xFFFFFFFFFFFFFFFFFFFFFFFFFFFFFFFFFFFFFFFF AND PUSH20 0xFFFFFFFFFFFFFFFFFFFFFFFFFFFFFFFFFFFFFFFF AND DUP2 MSTORE PUSH1 0x20 ADD SWAP1 DUP2 MSTORE PUSH1 0x20 ADD PUSH0 KECCAK256 SWAP1 POP PUSH1 0x1 ISZERO ISZERO DUP2 PUSH1 0x1 ADD PUSH0 SWAP1 SLOAD SWAP1 PUSH2 0x100 EXP SWAP1 DIV PUSH1 0xFF AND ISZERO ISZERO EQ PUSH2 0x614 JUMPI PUSH0 DUP1 REVERT JUMPDEST PUSH1 0x1 DUP3 PUSH1 0x1 ADD PUSH0 PUSH2 0x100 EXP DUP2 SLOAD DUP2 PUSH1 0xFF MUL NOT AND SWAP1 DUP4 ISZERO ISZERO MUL OR SWAP1 SSTORE POP DUP3 DUP3 PUSH1 0x1 ADD PUSH1 0x1 PUSH2 0x100 EXP DUP2 SLOAD DUP2 PUSH20 0xFFFFFFFFFFFFFFFFFFFFFFFFFFFFFFFFFFFFFFFF MUL NOT AND SWAP1 DUP4 PUSH20 0xFFFFFFFFFFFFFFFFFFFFFFFFFFFFFFFFFFFFFFFF AND MUL OR SWAP1 SSTORE POP DUP1 PUSH1 0x1 ADD PUSH0 SWAP1 SLOAD SWAP1 PUSH2 0x100 EXP SWAP1 DIV PUSH1 0xFF AND ISZERO PUSH2 0x6CE JUMPI DUP2 PUSH0 ADD SLOAD PUSH1 0x2 DUP3 PUSH1 0x2 ADD SLOAD DUP2 SLOAD DUP2 LT PUSH2 0x6A5 JUMPI PUSH2 0x6A4 PUSH2 0xC8F JUMP JUMPDEST JUMPDEST SWAP1 PUSH0 MSTORE PUSH1 0x20 PUSH0 KECCAK256 SWAP1 PUSH1 0x2 MUL ADD PUSH1 0x1 ADD PUSH0 DUP3 DUP3 SLOAD PUSH2 0x6C2 SWAP2 SWAP1 PUSH2 0xCE9 JUMP JUMPDEST SWAP3 POP POP DUP2 SWAP1 SSTORE POP PUSH2 0x6EB JUMP JUMPDEST DUP2 PUSH0 ADD SLOAD DUP2 PUSH0 ADD PUSH0 DUP3 DUP3 SLOAD PUSH2 0x6E3 SWAP2 SWAP1 PUSH2 0xCE9 JUMP JUMPDEST SWAP3 POP POP DUP2 SWAP1 SSTORE POP JUMPDEST POP POP POP JUMP JUMPDEST PUSH0 DUP1 PUSH0 SWAP1 POP PUSH0 JUMPDEST PUSH1 0x2 DUP1 SLOAD SWAP1 POP DUP2 LT ISZERO PUSH2 0x766 JUMPI DUP2 PUSH1 0x2 DUP3 DUP2 SLOAD DUP2 LT PUSH2 0x719 JUMPI PUSH2 0x718 PUSH2 0xC8F JUMP JUMPDEST JUMPDEST SWAP1 PUSH0 MSTORE PUSH1 0x20 PUSH0 KECCAK256 SWAP1 PUSH1 0x2 MUL ADD PUSH1 0x1 ADD SLOAD GT ISZERO PUSH2 0x759 JUMPI DUP1 SWAP3 POP PUSH1 0x2 DUP2 DUP2 SLOAD DUP2 LT PUSH2 0x746 JUMPI PUSH2 0x745 PUSH2 0xC8F JUMP JUMPDEST JUMPDEST SWAP1 PUSH0 MSTORE PUSH1 0x20 PUSH0 KECCAK256 SWAP1 PUSH1 0x2 MUL ADD PUSH1 0x1 ADD SLOAD SWAP2 POP JUMPDEST DUP1 DUP1 PUSH1 0x1 ADD SWAP2 POP POP PUSH2 0x6F7 JUMP JUMPDEST POP POP SWAP1 JUMP JUMPDEST PUSH0 DUP1 SLOAD SWAP1 PUSH2 0x100 EXP SWAP1 DIV PUSH20 0xFFFFFFFFFFFFFFFFFFFFFFFFFFFFFFFFFFFFFFFF AND PUSH20 0xFFFFFFFFFFFFFFFFFFFFFFFFFFFFFFFFFFFFFFFF AND CALLER PUSH20 0xFFFFFFFFFFFFFFFFFFFFFFFFFFFFFFFFFFFFFFFF AND EQ PUSH2 0x7F8 JUMPI PUSH1 0x40 MLOAD PUSH32 0x8C379A000000000000000000000000000000000000000000000000000000000 DUP2 MSTORE PUSH1 0x4 ADD PUSH2 0x7EF SWAP1 PUSH2 0xE5C JUMP JUMPDEST PUSH1 0x40 MLOAD DUP1 SWAP2 SUB SWAP1 REVERT JUMPDEST PUSH0 PUSH1 0x1 PUSH0 DUP4 PUSH20 0xFFFFFFFFFFFFFFFFFFFFFFFFFFFFFFFFFFFFFFFF AND PUSH20 0xFFFFFFFFFFFFFFFFFFFFFFFFFFFFFFFFFFFFFFFF AND DUP2 MSTORE PUSH1 0x20 ADD SWAP1 DUP2 MSTORE PUSH1 0x20 ADD PUSH0 KECCAK256 PUSH0 ADD SLOAD EQ ISZERO DUP1 ISZERO PUSH2 0x891 JUMPI POP PUSH1 0x1 PUSH0 DUP3 PUSH20 0xFFFFFFFFFFFFFFFFFFFFFFFFFFFFFFFFFFFFFFFF AND PUSH20 0xFFFFFFFFFFFFFFFFFFFFFFFFFFFFFFFFFFFFFFFF AND DUP2 MSTORE PUSH1 0x20 ADD SWAP1 DUP2 MSTORE PUSH1 0x20 ADD PUSH0 KECCAK256 PUSH1 0x1 ADD PUSH0 SWAP1 SLOAD SWAP1 PUSH2 0x100 EXP SWAP1 DIV PUSH1 0xFF AND ISZERO JUMPDEST ISZERO PUSH2 0x8D1 JUMPI PUSH1 0x40 MLOAD PUSH32 0x8C379A000000000000000000000000000000000000000000000000000000000 DUP2 MSTORE PUSH1 0x4 ADD PUSH2 0x8C8 SWAP1 PUSH2 0xEC4 JUMP JUMPDEST PUSH1 0x40 MLOAD DUP1 SWAP2 SUB SWAP1 REVERT JUMPDEST PUSH1 0x1 DUP1 PUSH0 DUP4 PUSH20 0xFFFFFFFFFFFFFFFFFFFFFFFFFFFFFFFFFFFFFFFF AND PUSH20 0xFFFFFFFFFFFFFFFFFFFFFFFFFFFFFFFFFFFFFFFF AND DUP2 MSTORE PUSH1 0x20 ADD SWAP1 DUP2 MSTORE PUSH1 0x20 ADD PUSH0 KECCAK256 PUSH0 ADD DUP2 SWAP1 SSTORE POP POP JUMP JUMPDEST PUSH1 0x1 PUSH1 0x20 MSTORE DUP1 PUSH0 MSTORE PUSH1 0x40 PUSH0 KECCAK256 PUSH0 SWAP2 POP SWAP1 POP DUP1 PUSH0 ADD SLOAD SWAP1 DUP1 PUSH1 0x1 ADD PUSH0 SWAP1 SLOAD SWAP1 PUSH2 0x100 EXP SWAP1 DIV PUSH1 0xFF AND SWAP1 DUP1 PUSH1 0x1 ADD PUSH1 0x1 SWAP1 SLOAD SWAP1 PUSH2 0x100 EXP SWAP1 DIV PUSH20 0xFFFFFFFFFFFFFFFFFFFFFFFFFFFFFFFFFFFFFFFF AND SWAP1 DUP1 PUSH1 0x2 ADD SLOAD SWAP1 POP DUP5 JUMP JUMPDEST PUSH0 DUP1 SLOAD SWAP1 PUSH2 0x100 EXP SWAP1 DIV PUSH20 0xFFFFFFFFFFFFFFFFFFFFFFFFFFFFFFFFFFFFFFFF AND DUP2 JUMP JUMPDEST PUSH0 PUSH1 0x2 PUSH2 0x99E PUSH2 0x6F0 JUMP JUMPDEST DUP2 SLOAD DUP2 LT PUSH2 0x9AF JUMPI PUSH2 0x9AE PUSH2 0xC8F JUMP JUMPDEST JUMPDEST SWAP1 PUSH0 MSTORE PUSH1 0x20 PUSH0 KECCAK256 SWAP1 PUSH1 0x2 MUL ADD PUSH0 ADD SLOAD SWAP1 POP SWAP1 JUMP JUMPDEST PUSH0 DUP1 REVERT JUMPDEST PUSH0 DUP2 SWAP1 POP SWAP2 SWAP1 POP JUMP JUMPDEST PUSH2 0x9D9 DUP2 PUSH2 0x9C7 JUMP JUMPDEST DUP2 EQ PUSH2 0x9E3 JUMPI PUSH0 DUP1 REVERT JUMPDEST POP JUMP JUMPDEST PUSH0 DUP2 CALLDATALOAD SWAP1 POP PUSH2 0x9F4 DUP2 PUSH2 0x9D0 JUMP JUMPDEST SWAP3 SWAP2 POP POP JUMP JUMPDEST PUSH0 PUSH1 0x20 DUP3 DUP5 SUB SLT ISZERO PUSH2 0xA0F JUMPI PUSH2 0xA0E PUSH2 0x9C3 JUMP JUMPDEST JUMPDEST PUSH0 PUSH2 0xA1C DUP5 DUP3 DUP6 ADD PUSH2 0x9E6 JUMP JUMPDEST SWAP2 POP POP SWAP3 SWAP2 POP POP JUMP JUMPDEST PUSH0 DUP2 SWAP1 POP SWAP2 SWAP1 POP JUMP JUMPDEST PUSH2 0xA37 DUP2 PUSH2 0xA25 JUMP JUMPDEST DUP3 MSTORE POP POP JUMP JUMPDEST PUSH2 0xA46 DUP2 PUSH2 0x9C7 JUMP JUMPDEST DUP3 MSTORE POP POP JUMP JUMPDEST PUSH0 PUSH1 0x40 DUP3 ADD SWAP1 POP PUSH2 0xA5F PUSH0 DUP4 ADD DUP6 PUSH2 0xA2E JUMP JUMPDEST PUSH2 0xA6C PUSH1 0x20 DUP4 ADD DUP5 PUSH2 0xA3D JUMP JUMPDEST SWAP4 SWAP3 POP POP POP JUMP JUMPDEST PUSH0 PUSH20 0xFFFFFFFFFFFFFFFFFFFFFFFFFFFFFFFFFFFFFFFF DUP3 AND SWAP1 POP SWAP2 SWAP1 POP JUMP JUMPDEST PUSH0 PUSH2 0xA9C DUP3 PUSH2 0xA73 JUMP JUMPDEST SWAP1 POP SWAP2 SWAP1 POP JUMP JUMPDEST PUSH2 0xAAC DUP2 PUSH2 0xA92 JUMP JUMPDEST DUP2 EQ PUSH2 0xAB6 JUMPI PUSH0 DUP1 REVERT JUMPDEST POP JUMP JUMPDEST PUSH0 DUP2 CALLDATALOAD SWAP1 POP PUSH2 0xAC7 DUP2 PUSH2 0xAA3 JUMP JUMPDEST SWAP3 SWAP2 POP POP JUMP JUMPDEST PUSH0 PUSH1 0x20 DUP3 DUP5 SUB SLT ISZERO PUSH2 0xAE2 JUMPI PUSH2 0xAE1 PUSH2 0x9C3 JUMP JUMPDEST JUMPDEST PUSH0 PUSH2 0xAEF DUP5 DUP3 DUP6 ADD PUSH2 0xAB9 JUMP JUMPDEST SWAP2 POP POP SWAP3 SWAP2 POP POP JUMP JUMPDEST PUSH0 PUSH1 0x20 DUP3 ADD SWAP1 POP PUSH2 0xB0B PUSH0 DUP4 ADD DUP5 PUSH2 0xA3D JUMP JUMPDEST SWAP3 SWAP2 POP POP JUMP JUMPDEST PUSH0 DUP2 ISZERO ISZERO SWAP1 POP SWAP2 SWAP1 POP JUMP JUMPDEST PUSH2 0xB25 DUP2 PUSH2 0xB11 JUMP JUMPDEST DUP3 MSTORE POP POP JUMP JUMPDEST PUSH2 0xB34 DUP2 PUSH2 0xA92 JUMP JUMPDEST DUP3 MSTORE POP POP JUMP JUMPDEST PUSH0 PUSH1 0x80 DUP3 ADD SWAP1 POP PUSH2 0xB4D PUSH0 DUP4 ADD DUP8 PUSH2 0xA3D JUMP JUMPDEST PUSH2 0xB5A PUSH1 0x20 DUP4 ADD DUP7 PUSH2 0xB1C JUMP JUMPDEST PUSH2 0xB67 PUSH1 0x40 DUP4 ADD DUP6 PUSH2 0xB2B JUMP JUMPDEST PUSH2 0xB74 PUSH1 0x60 DUP4 ADD DUP5 PUSH2 0xA3D JUMP JUMPDEST SWAP6 SWAP5 POP POP POP POP POP JUMP JUMPDEST PUSH0 PUSH1 0x20 DUP3 ADD SWAP1 POP PUSH2 0xB90 PUSH0 DUP4 ADD DUP5 PUSH2 0xB2B JUMP JUMPDEST SWAP3 SWAP2 POP POP JUMP JUMPDEST PUSH0 PUSH1 0x20 DUP3 ADD SWAP1 POP PUSH2 0xBA9 PUSH0 DUP4 ADD DUP5 PUSH2 0xA2E JUMP JUMPDEST SWAP3 SWAP2 POP POP JUMP JUMPDEST PUSH0 DUP3 DUP3 MSTORE PUSH1 0x20 DUP3 ADD SWAP1 POP SWAP3 SWAP2 POP POP JUMP JUMPDEST PUSH32 0x796F7520707269766C6961676500000000000000000000000000000000000000 PUSH0 DUP3 ADD MSTORE POP JUMP JUMPDEST PUSH0 PUSH2 0xBF3 PUSH1 0xD DUP4 PUSH2 0xBAF JUMP JUMPDEST SWAP2 POP PUSH2 0xBFE DUP3 PUSH2 0xBBF JUMP JUMPDEST PUSH1 0x20 DUP3 ADD SWAP1 POP SWAP2 SWAP1 POP JUMP JUMPDEST PUSH0 PUSH1 0x20 DUP3 ADD SWAP1 POP DUP2 DUP2 SUB PUSH0 DUP4 ADD MSTORE PUSH2 0xC20 DUP2 PUSH2 0xBE7 JUMP JUMPDEST SWAP1 POP SWAP2 SWAP1 POP JUMP JUMPDEST PUSH32 0x796F752068617665206265656E20766F74656400000000000000000000000000 PUSH0 DUP3 ADD MSTORE POP JUMP JUMPDEST PUSH0 PUSH2 0xC5B PUSH1 0x13 DUP4 PUSH2 0xBAF JUMP JUMPDEST SWAP2 POP PUSH2 0xC66 DUP3 PUSH2 0xC27 JUMP JUMPDEST PUSH1 0x20 DUP3 ADD SWAP1 POP SWAP2 SWAP1 POP JUMP JUMPDEST PUSH0 PUSH1 0x20 DUP3 ADD SWAP1 POP DUP2 DUP2 SUB PUSH0 DUP4 ADD MSTORE PUSH2 0xC88 DUP2 PUSH2 0xC4F JUMP JUMPDEST SWAP1 POP SWAP2 SWAP1 POP JUMP JUMPDEST PUSH32 0x4E487B7100000000000000000000000000000000000000000000000000000000 PUSH0 MSTORE PUSH1 0x32 PUSH1 0x4 MSTORE PUSH1 0x24 PUSH0 REVERT JUMPDEST PUSH32 0x4E487B7100000000000000000000000000000000000000000000000000000000 PUSH0 MSTORE PUSH1 0x11 PUSH1 0x4 MSTORE PUSH1 0x24 PUSH0 REVERT JUMPDEST PUSH0 PUSH2 0xCF3 DUP3 PUSH2 0x9C7 JUMP JUMPDEST SWAP2 POP PUSH2 0xCFE DUP4 PUSH2 0x9C7 JUMP JUMPDEST SWAP3 POP DUP3 DUP3 ADD SWAP1 POP DUP1 DUP3 GT ISZERO PUSH2 0xD16 JUMPI PUSH2 0xD15 PUSH2 0xCBC JUMP JUMPDEST JUMPDEST SWAP3 SWAP2 POP POP JUMP JUMPDEST PUSH32 0x796F752063616E6E6F7420766F746520796F757273656C660000000000000000 PUSH0 DUP3 ADD MSTORE POP JUMP JUMPDEST PUSH0 PUSH2 0xD50 PUSH1 0x18 DUP4 PUSH2 0xBAF JUMP JUMPDEST SWAP2 POP PUSH2 0xD5B DUP3 PUSH2 0xD1C JUMP JUMPDEST PUSH1 0x20 DUP3 ADD SWAP1 POP SWAP2 SWAP1 POP JUMP JUMPDEST PUSH0 PUSH1 0x20 DUP3 ADD SWAP1 POP DUP2 DUP2 SUB PUSH0 DUP4 ADD MSTORE PUSH2 0xD7D DUP2 PUSH2 0xD44 JUMP JUMPDEST SWAP1 POP SWAP2 SWAP1 POP JUMP JUMPDEST PUSH32 0x66696E64206C6F6F700000000000000000000000000000000000000000000000 PUSH0 DUP3 ADD MSTORE POP JUMP JUMPDEST PUSH0 PUSH2 0xDB8 PUSH1 0x9 DUP4 PUSH2 0xBAF JUMP JUMPDEST SWAP2 POP PUSH2 0xDC3 DUP3 PUSH2 0xD84 JUMP JUMPDEST PUSH1 0x20 DUP3 ADD SWAP1 POP SWAP2 SWAP1 POP JUMP JUMPDEST PUSH0 PUSH1 0x20 DUP3 ADD SWAP1 POP DUP2 DUP2 SUB PUSH0 DUP4 ADD MSTORE PUSH2 0xDE5 DUP2 PUSH2 0xDAC JUMP JUMPDEST SWAP1 POP SWAP2 SWAP1 POP JUMP JUMPDEST PUSH32 0x6F6E6C7920636861696E506572736F6E2063616E206769766520726967687420 PUSH0 DUP3 ADD MSTORE PUSH32 0x746F20766F746500000000000000000000000000000000000000000000000000 PUSH1 0x20 DUP3 ADD MSTORE POP JUMP JUMPDEST PUSH0 PUSH2 0xE46 PUSH1 0x27 DUP4 PUSH2 0xBAF JUMP JUMPDEST SWAP2 POP PUSH2 0xE51 DUP3 PUSH2 0xDEC JUMP JUMPDEST PUSH1 0x40 DUP3 ADD SWAP1 POP SWAP2 SWAP1 POP JUMP JUMPDEST PUSH0 PUSH1 0x20 DUP3 ADD SWAP1 POP DUP2 DUP2 SUB PUSH0 DUP4 ADD MSTORE PUSH2 0xE73 DUP2 PUSH2 0xE3A JUMP JUMPDEST SWAP1 POP SWAP2 SWAP1 POP JUMP JUMPDEST PUSH32 0x54686520766F74657220616C726561647920766F7465642E0000000000000000 PUSH0 DUP3 ADD MSTORE POP JUMP JUMPDEST PUSH0 PUSH2 0xEAE PUSH1 0x18 DUP4 PUSH2 0xBAF JUMP JUMPDEST SWAP2 POP PUSH2 0xEB9 DUP3 PUSH2 0xE7A JUMP JUMPDEST PUSH1 0x20 DUP3 ADD SWAP1 POP SWAP2 SWAP1 POP JUMP JUMPDEST PUSH0 PUSH1 0x20 DUP3 ADD SWAP1 POP DUP2 DUP2 SUB PUSH0 DUP4 ADD MSTORE PUSH2 0xEDB DUP2 PUSH2 0xEA2 JUMP JUMPDEST SWAP1 POP SWAP2 SWAP1 POP JUMP INVALID LOG2 PUSH5 0x6970667358 0x22 SLT KECCAK256 MSIZE PUSH1 0x9B TLOAD SWAP12 DUP16 EXP SWAP1 0x24 0xA8 DUP14 BLOCKHASH ISZERO AND PUSH6 0xADAE70F31E4F CALLCODE 0x1E PUSH15 0x221FEDD928EC2C8664736F6C634300 ADDMOD BYTE STOP CALLER "
				},
				"gasEstimates": {
					"creation": {
						"codeDepositCost": "772800",
						"executionCost": "infinite",
						"totalCost": "infinite"
					},
					"external": {
						"chainPerson()": "2549",
						"delegate(address)": "infinite",
						"giveRightToVote(address)": "29300",
						"proposals(uint256)": "infinite",
						"vote(uint256)": "infinite",
						"voters(address)": "infinite",
						"winnerName()": "infinite",
						"winningProposal()": "infinite"
					}
				},
				"methodIdentifiers": {
					"chainPerson()": "d8869461",
					"delegate(address)": "5c19a95c",
					"giveRightToVote(address)": "9e7b8d61",
					"proposals(uint256)": "013cf08b",
					"vote(uint256)": "0121b93f",
					"voters(address)": "a3ec138d",
					"winnerName()": "e2ba53f0",
					"winningProposal()": "609ff1bd"
				}
			},
			"storageLayout": {
				"storage": [
					{
						"astId": 17,
						"contract": "contracts/Ballot.sol:Ballot",
						"label": "chainPerson",
						"offset": 0,
						"slot": "0",
						"type": "t_address"
					},
					{
						"astId": 22,
						"contract": "contracts/Ballot.sol:Ballot",
						"label": "voters",
						"offset": 0,
						"slot": "1",
						"type": "t_mapping(t_address,t_struct(Voter)10_storage)"
					},
					{
						"astId": 26,
						"contract": "contracts/Ballot.sol:Ballot",
						"label": "proposals",
						"offset": 0,
						"slot": "2",
						"type": "t_array(t_struct(Proposal)15_storage)dyn_storage"
					}
				],
				"types": {
					"t_address": {
						"encoding": "inplace",
						"label": "address",
						"numberOfBytes": "20"
					},
					"t_array(t_struct(Proposal)15_storage)dyn_storage": {
						"base": "t_struct(Proposal)15_storage",
						"encoding": "dynamic_array",
						"label": "struct Ballot.Proposal[]",
						"numberOfBytes": "32"
					},
					"t_bool": {
						"encoding": "inplace",
						"label": "bool",
						"numberOfBytes": "1"
					},
					"t_bytes32": {
						"encoding": "inplace",
						"label": "bytes32",
						"numberOfBytes": "32"
					},
					"t_mapping(t_address,t_struct(Voter)10_storage)": {
						"encoding": "mapping",
						"key": "t_address",
						"label": "mapping(address => struct Ballot.Voter)",
						"numberOfBytes": "32",
						"value": "t_struct(Voter)10_storage"
					},
					"t_struct(Proposal)15_storage": {
						"encoding": "inplace",
						"label": "struct Ballot.Proposal",
						"members": [
							{
								"astId": 12,
								"contract": "contracts/Ballot.sol:Ballot",
								"label": "name",
								"offset": 0,
								"slot": "0",
								"type": "t_bytes32"
							},
							{
								"astId": 14,
								"contract": "contracts/Ballot.sol:Ballot",
								"label": "voteCount",
								"offset": 0,
								"slot": "1",
								"type": "t_uint256"
							}
						],
						"numberOfBytes": "64"
					},
					"t_struct(Voter)10_storage": {
						"encoding": "inplace",
						"label": "struct Ballot.Voter",
						"members": [
							{
								"astId": 3,
								"contract": "contracts/Ballot.sol:Ballot",
								"label": "weight",
								"offset": 0,
								"slot": "0",
								"type": "t_uint256"
							},
							{
								"astId": 5,
								"contract": "contracts/Ballot.sol:Ballot",
								"label": "voted",
								"offset": 0,
								"slot": "1",
								"type": "t_bool"
							},
							{
								"astId": 7,
								"contract": "contracts/Ballot.sol:Ballot",
								"label": "delegate",
								"offset": 1,
								"slot": "1",
								"type": "t_address"
							},
							{
								"astId": 9,
								"contract": "contracts/Ballot.sol:Ballot",
								"label": "vote",
								"offset": 0,
								"slot": "2",
								"type": "t_uint256"
							}
						],
						"numberOfBytes": "96"
					},
					"t_uint256": {
						"encoding": "inplace",
						"label": "uint256",
						"numberOfBytes": "32"
					}
				}
			},
			"userdoc": {
				"kind": "user",
				"methods": {},
				"version": 1
			}
		}
	}
}